{
  "address": "0x76DA31D7C9CbEAE102aff34D3398bC450c8374c1",
  "abi": [
    {
      "inputs": [
        {
          "internalType": "address",
          "name": "_strategyToken",
          "type": "address"
        },
        {
          "internalType": "address",
          "name": "_bentoBox",
          "type": "address"
        },
        {
          "internalType": "address",
          "name": "_factory",
          "type": "address"
        },
        {
          "internalType": "address",
          "name": "_bridgeToken",
          "type": "address"
        },
        {
          "internalType": "address",
          "name": "_strategyExecutor",
          "type": "address"
        },
        {
          "internalType": "contract IMasterChef",
          "name": "_masterchef",
          "type": "address"
        },
        {
          "internalType": "uint256",
          "name": "_pid",
          "type": "uint256"
        },
        {
          "internalType": "contract ISushiSwap",
          "name": "_router",
          "type": "address"
        },
        {
          "internalType": "address",
          "name": "_rewardToken",
          "type": "address"
        },
        {
          "internalType": "bool",
          "name": "_usePairToken0",
          "type": "bool"
        },
        {
          "internalType": "bytes32",
          "name": "_pairCodeHash",
          "type": "bytes32"
        }
      ],
      "stateMutability": "nonpayable",
      "type": "constructor"
    },
    {
      "inputs": [],
      "name": "InvalidFeePercent",
      "type": "error"
    },
    {
      "anonymous": false,
      "inputs": [
        {
          "indexed": false,
          "internalType": "uint256",
          "name": "previousFee",
          "type": "uint256"
        },
        {
          "indexed": false,
          "internalType": "uint256",
          "name": "newFee",
          "type": "uint256"
        },
        {
          "indexed": false,
          "internalType": "address",
          "name": "previousFeeCollector",
          "type": "address"
        },
        {
          "indexed": false,
          "internalType": "address",
          "name": "newFeeCollector",
          "type": "address"
        }
      ],
      "name": "FeeChanged",
      "type": "event"
    },
    {
      "anonymous": false,
      "inputs": [
        {
          "indexed": true,
          "internalType": "address",
          "name": "server",
          "type": "address"
        },
        {
          "indexed": true,
          "internalType": "address",
          "name": "token0",
          "type": "address"
        },
        {
          "indexed": true,
          "internalType": "address",
          "name": "token1",
          "type": "address"
        },
        {
          "indexed": false,
          "internalType": "uint256",
          "name": "amount0",
          "type": "uint256"
        },
        {
          "indexed": false,
          "internalType": "uint256",
          "name": "amount1",
          "type": "uint256"
        }
      ],
      "name": "LogConvert",
      "type": "event"
    },
    {
      "anonymous": false,
      "inputs": [
        {
          "indexed": true,
          "internalType": "address",
          "name": "executor",
          "type": "address"
        },
        {
          "indexed": false,
          "internalType": "bool",
          "name": "allowed",
          "type": "bool"
        }
      ],
      "name": "LogSetStrategyExecutor",
      "type": "event"
    },
    {
      "anonymous": false,
      "inputs": [
        {
          "indexed": false,
          "internalType": "uint256",
          "name": "total",
          "type": "uint256"
        },
        {
          "indexed": false,
          "internalType": "uint256",
          "name": "strategyAmount",
          "type": "uint256"
        },
        {
          "indexed": false,
          "internalType": "uint256",
          "name": "feeAmount",
          "type": "uint256"
        }
      ],
      "name": "LpMinted",
      "type": "event"
    },
    {
      "anonymous": false,
      "inputs": [
        {
          "indexed": true,
          "internalType": "address",
          "name": "previousOwner",
          "type": "address"
        },
        {
          "indexed": true,
          "internalType": "address",
          "name": "newOwner",
          "type": "address"
        }
      ],
      "name": "OwnershipTransferred",
      "type": "event"
    },
    {
      "inputs": [
        {
          "internalType": "address",
          "name": "to",
          "type": "address"
        },
        {
          "internalType": "uint256",
          "name": "value",
          "type": "uint256"
        },
        {
          "internalType": "bytes",
          "name": "data",
          "type": "bytes"
        }
      ],
      "name": "afterExit",
      "outputs": [
        {
          "internalType": "bool",
          "name": "success",
          "type": "bool"
        }
      ],
      "stateMutability": "nonpayable",
      "type": "function"
    },
    {
      "inputs": [],
      "name": "bentoBox",
      "outputs": [
        {
          "internalType": "address",
          "name": "",
          "type": "address"
        }
      ],
      "stateMutability": "view",
      "type": "function"
    },
    {
      "inputs": [],
      "name": "bridgeToken",
      "outputs": [
        {
          "internalType": "address",
          "name": "",
          "type": "address"
        }
      ],
      "stateMutability": "view",
      "type": "function"
    },
    {
      "inputs": [
        {
          "internalType": "uint256",
          "name": "balance",
          "type": "uint256"
        }
      ],
      "name": "exit",
      "outputs": [
        {
          "internalType": "int256",
          "name": "amountAdded",
          "type": "int256"
        }
      ],
      "stateMutability": "nonpayable",
      "type": "function"
    },
    {
      "inputs": [],
      "name": "exited",
      "outputs": [
        {
          "internalType": "bool",
          "name": "",
          "type": "bool"
        }
      ],
      "stateMutability": "view",
      "type": "function"
    },
    {
      "inputs": [],
      "name": "factory",
      "outputs": [
        {
          "internalType": "address",
          "name": "",
          "type": "address"
        }
      ],
      "stateMutability": "view",
      "type": "function"
    },
    {
      "inputs": [],
      "name": "feeCollector",
      "outputs": [
        {
          "internalType": "address",
          "name": "",
          "type": "address"
        }
      ],
      "stateMutability": "view",
      "type": "function"
    },
    {
      "inputs": [],
      "name": "feePercent",
      "outputs": [
        {
          "internalType": "uint8",
          "name": "",
          "type": "uint8"
        }
      ],
      "stateMutability": "view",
      "type": "function"
    },
    {
      "inputs": [
        {
          "internalType": "uint256",
          "name": "balance",
          "type": "uint256"
        },
        {
          "internalType": "address",
          "name": "sender",
          "type": "address"
        }
      ],
      "name": "harvest",
      "outputs": [
        {
          "internalType": "int256",
          "name": "",
          "type": "int256"
        }
      ],
      "stateMutability": "nonpayable",
      "type": "function"
    },
    {
      "inputs": [],
      "name": "maxBentoBoxBalance",
      "outputs": [
        {
          "internalType": "uint256",
          "name": "",
          "type": "uint256"
        }
      ],
      "stateMutability": "view",
      "type": "function"
    },
    {
      "inputs": [],
      "name": "owner",
      "outputs": [
        {
          "internalType": "address",
          "name": "",
          "type": "address"
        }
      ],
      "stateMutability": "view",
      "type": "function"
    },
    {
      "inputs": [],
      "name": "renounceOwnership",
      "outputs": [],
      "stateMutability": "nonpayable",
      "type": "function"
    },
    {
      "inputs": [
        {
          "internalType": "uint256",
          "name": "maxBalance",
          "type": "uint256"
        },
        {
          "internalType": "bool",
          "name": "rebalance",
          "type": "bool"
        },
        {
          "internalType": "uint256",
          "name": "maxChangeAmount",
          "type": "uint256"
        },
        {
          "internalType": "bool",
          "name": "harvestRewards",
          "type": "bool"
        }
      ],
      "name": "safeHarvest",
      "outputs": [],
      "stateMutability": "nonpayable",
      "type": "function"
    },
    {
      "inputs": [
        {
          "internalType": "address",
          "name": "_feeCollector",
          "type": "address"
        },
        {
          "internalType": "uint8",
          "name": "_feePercent",
          "type": "uint8"
        }
      ],
      "name": "setFeeParameters",
      "outputs": [],
      "stateMutability": "nonpayable",
      "type": "function"
    },
    {
      "inputs": [
        {
          "internalType": "address",
          "name": "executor",
          "type": "address"
        },
        {
          "internalType": "bool",
          "name": "value",
          "type": "bool"
        }
      ],
      "name": "setStrategyExecutor",
      "outputs": [],
      "stateMutability": "nonpayable",
      "type": "function"
    },
    {
      "inputs": [
        {
          "internalType": "uint256",
          "name": "amount",
          "type": "uint256"
        }
      ],
      "name": "skim",
      "outputs": [],
      "stateMutability": "nonpayable",
      "type": "function"
    },
    {
      "inputs": [
        {
          "internalType": "address",
          "name": "",
          "type": "address"
        }
      ],
      "name": "strategyExecutors",
      "outputs": [
        {
          "internalType": "bool",
          "name": "",
          "type": "bool"
        }
      ],
      "stateMutability": "view",
      "type": "function"
    },
    {
      "inputs": [],
      "name": "strategyToken",
      "outputs": [
        {
          "internalType": "address",
          "name": "",
          "type": "address"
        }
      ],
      "stateMutability": "view",
      "type": "function"
    },
    {
      "inputs": [
        {
          "internalType": "uint256",
          "name": "amountOutMin",
          "type": "uint256"
        },
        {
          "internalType": "address",
          "name": "inputToken",
          "type": "address"
        }
      ],
      "name": "swapExactTokensForUnderlying",
      "outputs": [
        {
          "internalType": "uint256",
          "name": "amountOut",
          "type": "uint256"
        }
      ],
      "stateMutability": "nonpayable",
      "type": "function"
    },
    {
      "inputs": [
        {
          "internalType": "uint256",
          "name": "amountOutMin",
          "type": "uint256"
        }
      ],
      "name": "swapToLP",
      "outputs": [
        {
          "internalType": "uint256",
          "name": "amountOut",
          "type": "uint256"
        }
      ],
      "stateMutability": "nonpayable",
      "type": "function"
    },
    {
      "inputs": [
        {
          "internalType": "address",
          "name": "newOwner",
          "type": "address"
        }
      ],
      "name": "transferOwnership",
      "outputs": [],
      "stateMutability": "nonpayable",
      "type": "function"
    },
    {
      "inputs": [
        {
          "internalType": "uint256",
          "name": "amount",
          "type": "uint256"
        }
      ],
      "name": "withdraw",
      "outputs": [
        {
          "internalType": "uint256",
          "name": "actualAmount",
          "type": "uint256"
        }
      ],
      "stateMutability": "nonpayable",
      "type": "function"
    }
  ],
  "transactionHash": "0xef5fab62ea6e725b87bed9732cf61779b020bf3e38c86ddc4c05fd0b0ccc521b",
  "args": [
    "0xe7F86CEf8FEf60ce5050899D1F8e465C00D04a79",
    "0xc7a161Cfd0e133d289B13692b636B8e8B5CD8d8c",
    "0xEF45d134b73241eDa7703fa787148D9C9F4950b0",
    "0x21be370D5312f44cB42ce377BC9b8a0cEF1A4C83",
    "0xfB3485c2e209A5cfBDC1447674256578f1A80eE3",
    "0x9083EA3756BDE6Ee6f27a6e996806FBD37F6F093",
    65,
    "0x16327E3FbDaCA3bcF7E38F5Af2599D2DDc33aE52",
    "0x5Cc61A78F164885776AA610fb0FE1257df78E59B",
    true,
    "0xe242e798f6cee26a9cb0bbf24653bf066e5356ffeac160907fe2cc108e238617"
  ],
  "solcInputHash": "945b9cf7bb8838fcfd47f6a012049258",
  "bytecode": "0x6101e06040523480156200001257600080fd5b5060405162003c4938038062003c49833981016040819052620000359162000445565b8a8a8a8a8a85620000463362000200565b6001600160601b0319606087811b821660805286811b821660a05285811b821660c05284901b1660e0526101008190526001600160a01b03821615620000e1576001600160a01b038216600081815260026020908152604091829020805460ff1916600190811790915591519182527fb08a78f53a7fe017d5ca8c8fcdbf06ffa2c31f2ab668378a17700d9fc558717e910160405180910390a25b5050506001600160601b031960608a811b8216610140526101608a905288811b82166101205287901b1661018052506200011b9150503390565b600380546001600160a01b0319166001600160a01b0392909216919091179055600080620001498d62000250565b915091506200017486600019846001600160a01b03166200034c60201b62001ae8179092919060201c565b6200019b86600019836001600160a01b03166200034c60201b62001ae8179092919060201c565b620001c2886000198f6001600160a01b03166200034c60201b62001ae8179092919060201c565b83151560f81b6101c05283620001d95780620001db565b815b60601b6001600160601b0319166101a052506200054f9b505050505050505050505050565b600080546001600160a01b038381166001600160a01b0319831681178455604051919092169283917f8be0079c531659141344cd1fd0a4f28419497f9722a3daafe3b4186f6b6457e09190a35050565b6000806000839050806001600160a01b0316630dfe16816040518163ffffffff1660e01b815260040160206040518083038186803b1580156200029257600080fd5b505afa158015620002a7573d6000803e3d6000fd5b505050506040513d601f19601f82011682018060405250810190620002cd91906200041e565b9250806001600160a01b031663d21220a76040518163ffffffff1660e01b815260040160206040518083038186803b1580156200030957600080fd5b505afa1580156200031e573d6000803e3d6000fd5b505050506040513d601f19601f820116820180604052508101906200034491906200041e565b915050915091565b600060405163095ea7b360e01b81526001600160a01b03841660048201528260248201526000806044836000895af191506200038a905081620003d2565b620003cc5760405162461bcd60e51b815260206004820152600e60248201526d1054141493d59157d1905253115160921b604482015260640160405180910390fd5b50505050565b60003d82620003e557806000803e806000fd5b80602081146200040057801562000412576000925062000417565b816000803e6000511515925062000417565b600192505b5050919050565b6000602082840312156200043157600080fd5b81516200043e8162000536565b9392505050565b60008060008060008060008060008060006101608c8e0312156200046857600080fd5b8b51620004758162000536565b60208d0151909b50620004888162000536565b60408d0151909a506200049b8162000536565b60608d0151909950620004ae8162000536565b60808d0151909850620004c18162000536565b60a08d0151909750620004d48162000536565b60c08d015160e08e01519197509550620004ee8162000536565b6101008d0151909450620005028162000536565b6101208d015190935080151581146200051a57600080fd5b809250506101408c015190509295989b509295989b9093969950565b6001600160a01b03811681146200054c57600080fd5b50565b60805160601c60a05160601c60c05160601c60e05160601c610100516101205160601c6101405160601c610160516101805160601c6101a05160601c6101c05160f81c6134fa6200074f60003960008181611414015261146d0152600061130c015260006112eb015260008181611b7501528181611c7701528181611d1b0152611dde015260008181611ba501528181611ca401528181611d480152611e04015260006116ee015260008181610ee101528181610fee015281816115910152818161220e01526124f301526000818161036101528181610cac01528181610d6a015281816122df015261239c0152600081816102f801528181610bb401528181610ebe01528181610f970152818161156e015281816121a8015281816121eb015281816124d0015261254a0152600081816101f4015281816103ea0152818161047c015281816105fa01528181610674015281816107360152818161084401528181610a2901528181610b45015261116901526000818161023b0152818161045401528181610541015281816105d801528181610652015281816107910152818161082201528181610a8601528181610b2301528181610c2a01528181610dbf015281816110830152818161113201528181611337015281816113e5015281816115bc0152818161164c015281816118bb01526119d601526134fa6000f3fe608060405234801561001057600080fd5b50600436106101425760003560e01c80637fd6f15c116100b8578063c45a01551161007c578063c45a0155146102f3578063d9253c2d1461031a578063daa656de1461032d578063e8bd73a514610340578063f2fde38b14610349578063f4734b0c1461035c57600080fd5b80637fd6f15c146102835780638da5cb5b146102a9578063a7edd48c146102ba578063ba6275ab146102cd578063c415b95c146102e057600080fd5b80636939aaf51161010a5780636939aaf5146101dc5780636b2ace87146101ef578063715018a61461022e578063747efea11461023657806374ceb2671461025d5780637f8661a11461027057600080fd5b806318fccc76146101475780632e1a7d4d1461016d5780635066ebdd146101805780635ce6c327146101b357806363b98ac8146101c7575b600080fd5b61015a610155366004613100565b610383565b6040519081526020015b60405180910390f35b61015a61017b3660046130ce565b6106d4565b6101a361018e366004612eae565b60026020526000908152604090205460ff1681565b6040519015158152602001610164565b6000546101a390600160a01b900460ff1681565b6101da6101d5366004612fd2565b61086e565b005b6101da6101ea3660046130ce565b610951565b6102167f000000000000000000000000000000000000000000000000000000000000000081565b6040516001600160a01b039091168152602001610164565b6101da61095d565b6102167f000000000000000000000000000000000000000000000000000000000000000081565b6101da61026b366004612ee8565b610993565b61015a61027e3660046130ce565b610a1c565b60035461029790600160a01b900460ff1681565b60405160ff9091168152602001610164565b6000546001600160a01b0316610216565b61015a6102c8366004613100565b610b83565b6101da6102db366004613125565b6110e0565b600354610216906001600160a01b031681565b6102167f000000000000000000000000000000000000000000000000000000000000000081565b6101a3610328366004612f21565b6111cb565b61015a61033b3660046130ce565b6112b5565b61015a60015481565b6101da610357366004612eae565b611a50565b6102167f000000000000000000000000000000000000000000000000000000000000000081565b60008054600160a01b900460ff16156103df5760405162461bcd60e51b815260206004820152601960248201527810995b9d1bd09bde0814dd1c985d1959de4e88195e1a5d1959603a1b60448201526064015b60405180910390fd5b336001600160a01b037f000000000000000000000000000000000000000000000000000000000000000016146104275760405162461bcd60e51b81526004016103d6906131f8565b6001600160a01b038216301480156105025750600154604051634ffe34db60e01b81526001600160a01b037f0000000000000000000000000000000000000000000000000000000000000000811660048301527f00000000000000000000000000000000000000000000000000000000000000001690634ffe34db90602401604080518083038186803b1580156104bd57600080fd5b505afa1580156104d1573d6000803e3d6000fd5b505050506040513d601f19601f820116820180604052508101906104f59190613023565b516001600160801b031611155b801561050e5750600083115b156106ca57600061051e84611b66565b6040516370a0823160e01b81523060048201529091506000906001600160a01b037f000000000000000000000000000000000000000000000000000000000000000016906370a082319060240160206040518083038186803b15801561058357600080fd5b505afa158015610597573d6000803e3d6000fd5b505050506040513d601f19601f820116820180604052508101906105bb91906130e7565b90506000821261062857801561061f5761061f6001600160a01b037f0000000000000000000000000000000000000000000000000000000000000000167f000000000000000000000000000000000000000000000000000000000000000083611c11565b91506106ce9050565b80156106c257600061063a828461330b565b905060008113156106af576106996001600160a01b037f0000000000000000000000000000000000000000000000000000000000000000167f000000000000000000000000000000000000000000000000000000000000000083611c11565b6106aa6106a584613442565b611c68565b6106b8565b6106b882611c68565b92506106ce915050565b5090506106ce565b5060005b92915050565b60008054600160a01b900460ff161561072b5760405162461bcd60e51b815260206004820152601960248201527810995b9d1bd09bde0814dd1c985d1959de4e88195e1a5d1959603a1b60448201526064016103d6565b336001600160a01b037f000000000000000000000000000000000000000000000000000000000000000016146107735760405162461bcd60e51b81526004016103d6906131f8565b61077c82611d0c565b6040516370a0823160e01b81523060048201527f00000000000000000000000000000000000000000000000000000000000000006001600160a01b0316906370a082319060240160206040518083038186803b1580156107db57600080fd5b505afa1580156107ef573d6000803e3d6000fd5b505050506040513d601f19601f8201168201806040525081019061081391906130e7565b90506108696001600160a01b037f0000000000000000000000000000000000000000000000000000000000000000167f000000000000000000000000000000000000000000000000000000000000000083611c11565b919050565b6000546001600160a01b031633146108985760405162461bcd60e51b81526004016103d69061322d565b6003546064600160a01b90910460ff1611156108c757604051638a81d3b360e01b815260040160405180910390fd5b600380546001600160a01b038481166001600160a81b031983168117600160a01b60ff878116828102939093179096556040805191860490961680825260208201929092529290931693820184905260608201529091907fdfd60c2be7533132f69504aa2d43b7ed0a82a1f1d3ca460fa347b436901952419060800160405180910390a150505050565b61095a81611c68565b50565b6000546001600160a01b031633146109875760405162461bcd60e51b81526004016103d69061322d565b6109916000611d7f565b565b6000546001600160a01b031633146109bd5760405162461bcd60e51b81526004016103d69061322d565b6001600160a01b038216600081815260026020908152604091829020805460ff191685151590811790915591519182527fb08a78f53a7fe017d5ca8c8fcdbf06ffa2c31f2ab668378a17700d9fc558717e910160405180910390a25050565b6000336001600160a01b037f00000000000000000000000000000000000000000000000000000000000000001614610a665760405162461bcd60e51b81526004016103d6906131f8565b610a6e611dcf565b6040516370a0823160e01b81523060048201526000907f00000000000000000000000000000000000000000000000000000000000000006001600160a01b0316906370a082319060240160206040518083038186803b158015610ad057600080fd5b505afa158015610ae4573d6000803e3d6000fd5b505050506040513d601f19601f82011682018060405250810190610b0891906130e7565b9050610b1483826133a5565b9150610b6a6001600160a01b037f0000000000000000000000000000000000000000000000000000000000000000167f000000000000000000000000000000000000000000000000000000000000000083611c11565b506000805460ff60a01b1916600160a01b179055919050565b3360009081526002602052604081205460ff16610bb25760405162461bcd60e51b81526004016103d690613262565b7f00000000000000000000000000000000000000000000000000000000000000006001600160a01b0316610c285760405162461bcd60e51b815260206004820152601e60248201527f42656e746f426f782053747261746567793a2063616e6e6f742073776170000060448201526064016103d6565b7f00000000000000000000000000000000000000000000000000000000000000006001600160a01b0316826001600160a01b03161415610caa5760405162461bcd60e51b815260206004820152601f60248201527f42656e746f426f782053747261746567793a20696e76616c696420737761700060448201526064016103d6565b7f00000000000000000000000000000000000000000000000000000000000000006001600160a01b03161515600081610ce4576002610ce7565b60035b60ff1667ffffffffffffffff811115610d0257610d0261348b565b604051908082528060200260200182016040528015610d2b578160200160208202803683370190505b5090508381600081518110610d4257610d42613475565b60200260200101906001600160a01b031690816001600160a01b0316815250508115610dbd577f000000000000000000000000000000000000000000000000000000000000000081600181518110610d9c57610d9c613475565b60200260200101906001600160a01b031690816001600160a01b0316815250505b7f00000000000000000000000000000000000000000000000000000000000000008160018351610ded91906133e4565b81518110610dfd57610dfd613475565b60200260200101906001600160a01b031690816001600160a01b031681525050600081600081518110610e3257610e32613475565b60209081029190910101516040516370a0823160e01b81523060048201526001600160a01b03909116906370a082319060240160206040518083038186803b158015610e7d57600080fd5b505afa158015610e91573d6000803e3d6000fd5b505050506040513d601f19601f82011682018060405250810190610eb591906130e7565b90506000610f057f000000000000000000000000000000000000000000000000000000000000000083857f0000000000000000000000000000000000000000000000000000000000000000611e64565b90508060018251610f1691906133e4565b81518110610f2657610f26613475565b6020026020010151945086851015610f8f5760405162461bcd60e51b815260206004820152602660248201527f42656e746f426f782053747261746567793a20696e73756666696369656e74206044820152651bdd5d1c1d5d60d21b60648201526084016103d6565b6110606110127f000000000000000000000000000000000000000000000000000000000000000085600081518110610fc957610fc9613475565b602002602001015186600181518110610fe457610fe4613475565b60200260200101517f0000000000000000000000000000000000000000000000000000000000000000611ff1565b8260008151811061102557611025613475565b60200260200101518560008151811061104057611040613475565b60200260200101516001600160a01b0316611c119092919063ffffffff16565b61106b8184306120af565b60408051838152602081018790526001600160a01b037f00000000000000000000000000000000000000000000000000000000000000008116929089169133917f3b644720db133e4e05b302a56bdb46867109debe30c44b4f25566b3c41ed627b910160405180910390a45050505092915050565b3360009081526002602052604090205460ff1661110f5760405162461bcd60e51b81526004016103d690613262565b831561111b5760018490555b6040516366c6bb0b60e01b81526001600160a01b037f0000000000000000000000000000000000000000000000000000000000000000811660048301528415156024830152604482018490527f000000000000000000000000000000000000000000000000000000000000000016906366c6bb0b90606401600060405180830381600087803b1580156111ad57600080fd5b505af11580156111c1573d6000803e3d6000fd5b5050505050505050565b600080546001600160a01b031633146111f65760405162461bcd60e51b81526004016103d69061322d565b600054600160a01b900460ff1661124f5760405162461bcd60e51b815260206004820152601d60248201527f42656e746f426f782053747261746567793a206e6f742065786974656400000060448201526064016103d6565b836001600160a01b0316838360405161126891906131c9565b60006040518083038185875af1925050503d80600081146112a5576040519150601f19603f3d011682016040523d82523d6000602084013e6112aa565b606091505b509095945050505050565b3360009081526002602052604081205460ff166112e45760405162461bcd60e51b81526004016103d690613262565b60006113307f00000000000000000000000000000000000000000000000000000000000000007f00000000000000000000000000000000000000000000000000000000000000006122db565b90506000807f00000000000000000000000000000000000000000000000000000000000000006001600160a01b0316630902f1ac6040518163ffffffff1660e01b815260040160606040518083038186803b15801561138e57600080fd5b505afa1580156113a2573d6000803e3d6000fd5b505050506040513d601f19601f820116820180604052508101906113c6919061307e565b506001600160701b031691506001600160701b031691506000806114097f00000000000000000000000000000000000000000000000000000000000000006125bf565b9150915060006114457f000000000000000000000000000000000000000000000000000000000000000061143d578461143f565b855b876126b3565b60408051600280825260608201835292935060009290916020830190803683370190505090507f0000000000000000000000000000000000000000000000000000000000000000156114fe5783816000815181106114a5576114a5613475565b60200260200101906001600160a01b031690816001600160a01b03168152505082816001815181106114d9576114d9613475565b60200260200101906001600160a01b031690816001600160a01b031681525050611567565b828160008151811061151257611512613475565b60200260200101906001600160a01b031690816001600160a01b031681525050838160018151811061154657611546613475565b60200260200101906001600160a01b031690816001600160a01b0316815250505b60006115b57f000000000000000000000000000000000000000000000000000000000000000084847f0000000000000000000000000000000000000000000000000000000000000000611e64565b90506116297f0000000000000000000000000000000000000000000000000000000000000000826000815181106115ee576115ee613475565b60200260200101518460008151811061160957611609613475565b60200260200101516001600160a01b03166127159092919063ffffffff16565b6116348183306120af565b6040516370a0823160e01b81523060048201526000907f00000000000000000000000000000000000000000000000000000000000000006001600160a01b0316906370a082319060240160206040518083038186803b15801561169657600080fd5b505afa1580156116aa573d6000803e3d6000fd5b505050506040513d601f19601f820116820180604052508101906116ce91906130e7565b6040516370a0823160e01b81523060048201529091506001600160a01b037f000000000000000000000000000000000000000000000000000000000000000081169163e8e3370091899189918316906370a082319060240160206040518083038186803b15801561173e57600080fd5b505afa158015611752573d6000803e3d6000fd5b505050506040513d601f19601f8201168201806040525081019061177691906130e7565b6040516370a0823160e01b81523060048201526001600160a01b038b16906370a082319060240160206040518083038186803b1580156117b557600080fd5b505afa1580156117c9573d6000803e3d6000fd5b505050506040513d601f19601f820116820180604052508101906117ed91906130e7565b6040516001600160e01b031960e087901b1681526001600160a01b0394851660048201529390921660248401526044830152606482015260016084820181905260a48201523060c482015260001960e482015261010401606060405180830381600087803b15801561185e57600080fd5b505af1158015611872573d6000803e3d6000fd5b505050506040513d601f19601f82011682018060405250810190611896919061316f565b50506040516370a0823160e01b81523060048201526000915082906001600160a01b037f000000000000000000000000000000000000000000000000000000000000000016906370a082319060240160206040518083038186803b1580156118fd57600080fd5b505afa158015611911573d6000803e3d6000fd5b505050506040513d601f19601f8201168201806040525081019061193591906130e7565b61193f91906133e4565b90508b8110156119895760405162461bcd60e51b8152602060048201526015602482015274125b9cdd59999a58da595b9d105b5bdd5b9d13dd5d605a1b60448201526064016103d6565b6003546000906064906119a690600160a01b900460ff1684613386565b6119b09190613364565b905080156119ff576119c281836133e4565b600354909c506119ff906001600160a01b037f00000000000000000000000000000000000000000000000000000000000000008116911683612715565b60408051838152602081018e90529081018290527ffac4ceeb73d90e5d855cf54c2fc52267e49df26636cde8d7ab271952cd081b779060600160405180910390a15050505050505050505050919050565b6000546001600160a01b03163314611a7a5760405162461bcd60e51b81526004016103d69061322d565b6001600160a01b038116611adf5760405162461bcd60e51b815260206004820152602660248201527f4f776e61626c653a206e6577206f776e657220697320746865207a65726f206160448201526564647265737360d01b60648201526084016103d6565b61095a81611d7f565b600060405163095ea7b360e01b81526001600160a01b03841660048201528260248201526000806044836000895af1915050611b238161278e565b611b605760405162461bcd60e51b815260206004820152600e60248201526d1054141493d59157d1905253115160921b60448201526064016103d6565b50505050565b604051630441a3e760e41b81527f00000000000000000000000000000000000000000000000000000000000000006004820152600060248201819052907f00000000000000000000000000000000000000000000000000000000000000006001600160a01b03169063441a3e7090604401600060405180830381600087803b158015611bf157600080fd5b505af1158015611c05573d6000803e3d6000fd5b50600095945050505050565b604080516001600160a01b038416602482015260448082018490528251808303909101815260649091019091526020810180516001600160e01b031663a9059cbb60e01b179052611c639084906127d5565b505050565b604051631c57762b60e31b81527f00000000000000000000000000000000000000000000000000000000000000006004820152602481018290527f00000000000000000000000000000000000000000000000000000000000000006001600160a01b03169063e2bbb158906044015b600060405180830381600087803b158015611cf157600080fd5b505af1158015611d05573d6000803e3d6000fd5b5050505050565b604051630441a3e760e41b81527f00000000000000000000000000000000000000000000000000000000000000006004820152602481018290527f00000000000000000000000000000000000000000000000000000000000000006001600160a01b03169063441a3e7090604401611cd7565b600080546001600160a01b038381166001600160a01b0319831681178455604051919092169283917f8be0079c531659141344cd1fd0a4f28419497f9722a3daafe3b4186f6b6457e09190a35050565b604051632989754760e11b81527f000000000000000000000000000000000000000000000000000000000000000060048201527f00000000000000000000000000000000000000000000000000000000000000006001600160a01b031690635312ea8e90602401600060405180830381600087803b158015611e5057600080fd5b505af1158015611b60573d6000803e3d6000fd5b6060600283511015611eb85760405162461bcd60e51b815260206004820152601e60248201527f556e697377617056324c6962726172793a20494e56414c49445f50415448000060448201526064016103d6565b825167ffffffffffffffff811115611ed257611ed261348b565b604051908082528060200260200182016040528015611efb578160200160208202803683370190505b5090508381600081518110611f1257611f12613475565b60200260200101818152505060005b60018451611f2f91906133e4565b811015611fe857600080611f8388878581518110611f4f57611f4f613475565b602002602001015188866001611f65919061334c565b81518110611f7557611f75613475565b6020026020010151886128a7565b91509150611fab848481518110611f9c57611f9c613475565b60200260200101518383612982565b84611fb785600161334c565b81518110611fc757611fc7613475565b60200260200101818152505050508080611fe090613427565b915050611f21565b50949350505050565b60008060006120008686612aa2565b6040516bffffffffffffffffffffffff19606084811b8216602084015283901b16603482015291935091508790604801604051602081830303815290604052805190602001208560405160200161208c939291906001600160f81b0319815260609390931b6bffffffffffffffffffffffff191660018401526015830191909152603582015260550190565b60408051601f198184030181529190528051602090910120979650505050505050565b60005b600183516120c091906133e4565b811015611b60576000808483815181106120dc576120dc613475565b6020026020010151858460016120f2919061334c565b8151811061210257612102613475565b6020026020010151915091506000816001600160a01b0316836001600160a01b03161061212f5781612131565b825b905060008761214186600161334c565b8151811061215157612151613475565b60200260200101519050600080836001600160a01b0316866001600160a01b03161461217f57826000612183565b6000835b91509150600060028a5161219791906133e4565b88106121a357886121e4565b6121e47f0000000000000000000000000000000000000000000000000000000000000000878c6121d48c600261334c565b81518110610fe457610fe4613475565b90506122327f000000000000000000000000000000000000000000000000000000000000000088887f0000000000000000000000000000000000000000000000000000000000000000611ff1565b6001600160a01b031663022c0d9f84848460006040519080825280601f01601f19166020018201604052801561226f576020820181803683370190505b506040518563ffffffff1660e01b815260040161228f94939291906132a3565b600060405180830381600087803b1580156122a957600080fd5b505af11580156122bd573d6000803e3d6000fd5b505050505050505050505080806122d390613427565b9150506120b2565b60007f00000000000000000000000000000000000000000000000000000000000000006001600160a01b031615158181612316576002612319565b60035b60ff1667ffffffffffffffff8111156123345761233461348b565b60405190808252806020026020018201604052801561235d578160200160208202803683370190505b509050848160008151811061237457612374613475565b60200260200101906001600160a01b031690816001600160a01b03168152505081156123ef577f0000000000000000000000000000000000000000000000000000000000000000816001815181106123ce576123ce613475565b60200260200101906001600160a01b031690816001600160a01b0316815250505b8381600183516123ff91906133e4565b8151811061240f5761240f613475565b60200260200101906001600160a01b031690816001600160a01b03168152505060008160008151811061244457612444613475565b60209081029190910101516040516370a0823160e01b81523060048201526001600160a01b03909116906370a082319060240160206040518083038186803b15801561248f57600080fd5b505afa1580156124a3573d6000803e3d6000fd5b505050506040513d601f19601f820116820180604052508101906124c791906130e7565b905060006125177f000000000000000000000000000000000000000000000000000000000000000083857f0000000000000000000000000000000000000000000000000000000000000000611e64565b9050806001825161252891906133e4565b8151811061253857612538613475565b602002602001015194506125aa61257c7f000000000000000000000000000000000000000000000000000000000000000085600081518110610fc957610fc9613475565b8260008151811061258f5761258f613475565b60200260200101518560008151811061160957611609613475565b6125b58184306120af565b5050505092915050565b6000806000839050806001600160a01b0316630dfe16816040518163ffffffff1660e01b815260040160206040518083038186803b15801561260057600080fd5b505afa158015612614573d6000803e3d6000fd5b505050506040513d601f19601f820116820180604052508101906126389190612ecb565b9250806001600160a01b031663d21220a76040518163ffffffff1660e01b815260040160206040518083038186803b15801561267357600080fd5b505afa158015612687573d6000803e3d6000fd5b505050506040513d601f19601f820116820180604052508101906126ab9190612ecb565b915050915091565b60006107ca6126c4846107cd613386565b6126fa6126d486623cda29613386565b6126e186623cda20613386565b6126eb919061334c565b6126f59087613386565b612b9a565b61270491906133e4565b61270e9190613364565b9392505050565b600060405163a9059cbb60e01b81526001600160a01b03841660048201528260248201526000806044836000895af19150506127508161278e565b611b605760405162461bcd60e51b815260206004820152600f60248201526e1514905394d1915497d19052531151608a1b60448201526064016103d6565b60003d826127a057806000803e806000fd5b80602081146127b85780156127c957600092506127ce565b816000803e600051151592506127ce565b600192505b5050919050565b600061282a826040518060400160405280602081526020017f5361666545524332303a206c6f772d6c6576656c2063616c6c206661696c6564815250856001600160a01b0316612d189092919063ffffffff16565b805190915015611c6357808060200190518101906128489190613006565b611c635760405162461bcd60e51b815260206004820152602a60248201527f5361666545524332303a204552433230206f7065726174696f6e20646964206e6044820152691bdd081cdd58d8d9595960b21b60648201526084016103d6565b60008060006128b68686612aa2565b5090506000806128c889898989611ff1565b6001600160a01b0316630902f1ac6040518163ffffffff1660e01b815260040160606040518083038186803b15801561290057600080fd5b505afa158015612914573d6000803e3d6000fd5b505050506040513d601f19601f82011682018060405250810190612938919061307e565b506001600160701b031691506001600160701b03169150826001600160a01b0316886001600160a01b03161461296f578082612972565b81815b909a909950975050505050505050565b60008084116129e75760405162461bcd60e51b815260206004820152602b60248201527f556e697377617056324c6962726172793a20494e53554646494349454e545f4960448201526a1394155517d05353d5539560aa1b60648201526084016103d6565b6000831180156129f75750600082115b612a545760405162461bcd60e51b815260206004820152602860248201527f556e697377617056324c6962726172793a20494e53554646494349454e545f4c604482015267495155494449545960c01b60648201526084016103d6565b6000612a62856103e5613386565b90506000612a708483613386565b9050600082612a81876103e8613386565b612a8b919061334c565b9050612a978183613364565b979650505050505050565b600080826001600160a01b0316846001600160a01b03161415612b155760405162461bcd60e51b815260206004820152602560248201527f556e697377617056324c6962726172793a204944454e544943414c5f41444452604482015264455353455360d81b60648201526084016103d6565b826001600160a01b0316846001600160a01b031610612b35578284612b38565b83835b90925090506001600160a01b038216612b935760405162461bcd60e51b815260206004820152601e60248201527f556e697377617056324c6962726172793a205a45524f5f41444452455353000060448201526064016103d6565b9250929050565b600081612ba957506000919050565b816001600160801b8210612bc25760809190911c9060401b5b680100000000000000008210612bdd5760409190911c9060201b5b6401000000008210612bf45760209190911c9060101b5b620100008210612c095760109190911c9060081b5b6101008210612c1d5760089190911c9060041b5b60108210612c305760049190911c9060021b5b60088210612c3c5760011b5b6001612c488286613364565b612c52908361334c565b901c90506001612c628286613364565b612c6c908361334c565b901c90506001612c7c8286613364565b612c86908361334c565b901c90506001612c968286613364565b612ca0908361334c565b901c90506001612cb08286613364565b612cba908361334c565b901c90506001612cca8286613364565b612cd4908361334c565b901c90506001612ce48286613364565b612cee908361334c565b901c90506000612cfe8286613364565b9050808210612d0d5780612d0f565b815b95945050505050565b6060612d278484600085612d2f565b949350505050565b606082471015612d905760405162461bcd60e51b815260206004820152602660248201527f416464726573733a20696e73756666696369656e742062616c616e636520666f6044820152651c8818d85b1b60d21b60648201526084016103d6565b843b612dde5760405162461bcd60e51b815260206004820152601d60248201527f416464726573733a2063616c6c20746f206e6f6e2d636f6e747261637400000060448201526064016103d6565b600080866001600160a01b03168587604051612dfa91906131c9565b60006040518083038185875af1925050503d8060008114612e37576040519150601f19603f3d011682016040523d82523d6000602084013e612e3c565b606091505b5091509150612a9782828660608315612e5657508161270e565b825115612e665782518084602001fd5b8160405162461bcd60e51b81526004016103d691906131e5565b80516001600160701b038116811461086957600080fd5b80516001600160801b038116811461086957600080fd5b600060208284031215612ec057600080fd5b813561270e816134a1565b600060208284031215612edd57600080fd5b815161270e816134a1565b60008060408385031215612efb57600080fd5b8235612f06816134a1565b91506020830135612f16816134b6565b809150509250929050565b600080600060608486031215612f3657600080fd5b8335612f41816134a1565b92506020848101359250604085013567ffffffffffffffff80821115612f6657600080fd5b818701915087601f830112612f7a57600080fd5b813581811115612f8c57612f8c61348b565b612f9e601f8201601f191685016132da565b91508082528884828501011115612fb457600080fd5b80848401858401376000848284010152508093505050509250925092565b60008060408385031215612fe557600080fd5b8235612ff0816134a1565b9150602083013560ff81168114612f1657600080fd5b60006020828403121561301857600080fd5b815161270e816134b6565b60006040828403121561303557600080fd5b6040516040810181811067ffffffffffffffff821117156130585761305861348b565b60405261306483612e97565b815261307260208401612e97565b60208201529392505050565b60008060006060848603121561309357600080fd5b61309c84612e80565b92506130aa60208501612e80565b9150604084015163ffffffff811681146130c357600080fd5b809150509250925092565b6000602082840312156130e057600080fd5b5035919050565b6000602082840312156130f957600080fd5b5051919050565b6000806040838503121561311357600080fd5b823591506020830135612f16816134a1565b6000806000806080858703121561313b57600080fd5b84359350602085013561314d816134b6565b9250604085013591506060850135613164816134b6565b939692955090935050565b60008060006060848603121561318457600080fd5b8351925060208401519150604084015190509250925092565b600081518084526131b58160208601602086016133fb565b601f01601f19169290920160200192915050565b600082516131db8184602087016133fb565b9190910192915050565b60208152600061270e602083018461319d565b6020808252818101527f42656e746f426f782053747261746567793a206f6e6c792042656e746f426f78604082015260600190565b6020808252818101527f4f776e61626c653a2063616c6c6572206973206e6f7420746865206f776e6572604082015260600190565b60208082526021908201527f42656e746f426f782053747261746567793a206f6e6c79204578656375746f726040820152607360f81b606082015260800190565b84815283602082015260018060a01b03831660408201526080606082015260006132d0608083018461319d565b9695505050505050565b604051601f8201601f1916810167ffffffffffffffff811182821017156133035761330361348b565b604052919050565b600080821280156001600160ff1b038490038513161561332d5761332d61345f565b600160ff1b83900384128116156133465761334661345f565b50500190565b6000821982111561335f5761335f61345f565b500190565b60008261338157634e487b7160e01b600052601260045260246000fd5b500490565b60008160001904831182151516156133a0576133a061345f565b500290565b60008083128015600160ff1b8501841216156133c3576133c361345f565b6001600160ff1b03840183138116156133de576133de61345f565b50500390565b6000828210156133f6576133f661345f565b500390565b60005b838110156134165781810151838201526020016133fe565b83811115611b605750506000910152565b600060001982141561343b5761343b61345f565b5060010190565b6000600160ff1b8214156134585761345861345f565b5060000390565b634e487b7160e01b600052601160045260246000fd5b634e487b7160e01b600052603260045260246000fd5b634e487b7160e01b600052604160045260246000fd5b6001600160a01b038116811461095a57600080fd5b801515811461095a57600080fdfea2646970667358221220e815f60417d95153b19a34fddb77718074c4b6a73906a9a9c479e451a4b351f564736f6c63430008070033",
  "devdoc": {
    "kind": "dev",
    "methods": {
      "afterExit(address,uint256,bytes)": {
        "details": "After exited, the owner can perform ANY call. This is to rescue any funds that didn't get released during exit or got earned afterwards due to vesting or airdrops, etc. "
      },
      "constructor": {
        "params": {
          "_bentoBox": "BentoBox address.",
          "_bridgeToken": "An intermediary token for swapping any rewards into it before swapping it to _inputPairToken",
          "_factory": "SushiSwap factory.",
          "_pairCodeHash": "This hash is used to calculate the address of a uniswap-like pool by providing only the addresses of the two ERC20 tokens.",
          "_strategyExecutor": "an EOA that will execute the safeHarvest function.",
          "_strategyToken": "Address of the underlying LP token the strategy invests.",
          "_usePairToken0": "When true, the _rewardToken will be swapped to the pair's token0 for one-sided liquidity providing, otherwise, the pair's token1."
        }
      },
      "exit(uint256)": {
        "details": "do not use isActive modifier here; allow bentobox to call strategy.exit() multiple times",
        "params": {
          "balance": "The amount of tokens the caller thinks it has invested."
        },
        "returns": {
          "amountAdded": "The delta (+profit or -loss) that occured in contrast to `balance`."
        }
      },
      "harvest(uint256,address)": {
        "details": "Only BentoBox can call harvest on this strategy.Ensures that (1) the caller was this contract (called through the safeHarvest function) and (2) that we are not being frontrun by a large BentoBox deposit when harvesting profits. ",
        "params": {
          "balance": "The amount of tokens the caller thinks it has invested.",
          "sender": "The address of the initiator of this transaction. Can be used for reimbursements, etc."
        },
        "returns": {
          "_0": "The delta (+profit or -loss) that occured in contrast to `balance`."
        }
      },
      "owner()": {
        "details": "Returns the address of the current owner."
      },
      "renounceOwnership()": {
        "details": "Leaves the contract without owner. It will not be possible to call `onlyOwner` functions anymore. Can only be called by the current owner. NOTE: Renouncing ownership will leave the contract without an owner, thereby removing any functionality that is only available to the owner."
      },
      "safeHarvest(uint256,bool,uint256,bool)": {
        "details": "maxBalance can be set to 0 to keep the previous value.maxChangeAmount can be set to 0 to allow for full rebalancing.",
        "params": {
          "harvestRewards": "If we want to claim any accrued reward tokens",
          "maxBalance": "The maximum balance of the underlying token that is allowed to be in BentoBox.",
          "maxChangeAmount": "When rebalancing - the maximum amount that will be deposited to or withdrawn from a strategy to BentoBox.",
          "rebalance": "Whether BentoBox should rebalance the strategy assets to acheive it's target allocation."
        }
      },
      "skim(uint256)": {
        "params": {
          "amount": "The amount of tokens to invest."
        }
      },
      "transferOwnership(address)": {
        "details": "Transfers ownership of the contract to a new account (`newOwner`). Can only be called by the current owner."
      },
      "withdraw(uint256)": {
        "details": "The `actualAmount` should be very close to the amount. The difference should NOT be used to report a loss. That's what harvest is for.",
        "params": {
          "amount": "The requested amount the caller wants to withdraw."
        },
        "returns": {
          "actualAmount": "The real amount that is withdrawn."
        }
      }
    },
    "version": 1
  },
  "userdoc": {
    "kind": "user",
    "methods": {
      "exit(uint256)": {
        "notice": "Withdraw all assets in the safest way possible. This shouldn't fail."
      },
      "harvest(uint256,address)": {
        "notice": "Harvest any profits made converted to the asset and pass them to the caller."
      },
      "safeHarvest(uint256,bool,uint256,bool)": {
        "notice": "Harvest profits while preventing a sandwich attack exploit."
      },
      "skim(uint256)": {
        "notice": "Send the assets to the Strategy and call skim to invest them."
      },
      "swapExactTokensForUnderlying(uint256,address)": {
        "notice": "Swap some tokens in the contract for the underlying and deposits them to address(this)"
      },
      "swapToLP(uint256)": {
        "notice": "Swap some tokens in the contract for the underlying and deposits them to address(this)"
      },
      "withdraw(uint256)": {
        "notice": "Withdraw assets. The returned amount can differ from the requested amount due to rounding."
      }
    },
    "version": 1
  },
  "storageLayout": {
    "storage": [
      {
        "astId": 7,
        "contract": "contracts/strategies/MasterChefLPStrategy.sol:MasterChefLPStrategy",
        "label": "_owner",
        "offset": 0,
        "slot": "0",
        "type": "t_address"
      },
      {
        "astId": 1815,
        "contract": "contracts/strategies/MasterChefLPStrategy.sol:MasterChefLPStrategy",
        "label": "exited",
        "offset": 20,
        "slot": "0",
        "type": "t_bool"
      },
      {
        "astId": 1818,
        "contract": "contracts/strategies/MasterChefLPStrategy.sol:MasterChefLPStrategy",
        "label": "maxBentoBoxBalance",
        "offset": 0,
        "slot": "1",
        "type": "t_uint256"
      },
      {
        "astId": 1823,
        "contract": "contracts/strategies/MasterChefLPStrategy.sol:MasterChefLPStrategy",
        "label": "strategyExecutors",
        "offset": 0,
        "slot": "2",
        "type": "t_mapping(t_address,t_bool)"
      },
      {
        "astId": 6383,
        "contract": "contracts/strategies/MasterChefLPStrategy.sol:MasterChefLPStrategy",
        "label": "feeCollector",
        "offset": 0,
        "slot": "3",
        "type": "t_address"
      },
      {
        "astId": 6385,
        "contract": "contracts/strategies/MasterChefLPStrategy.sol:MasterChefLPStrategy",
        "label": "feePercent",
        "offset": 20,
        "slot": "3",
        "type": "t_uint8"
      }
    ],
    "types": {
      "t_address": {
        "encoding": "inplace",
        "label": "address",
        "numberOfBytes": "20"
      },
      "t_bool": {
        "encoding": "inplace",
        "label": "bool",
        "numberOfBytes": "1"
      },
      "t_mapping(t_address,t_bool)": {
        "encoding": "mapping",
        "key": "t_address",
        "label": "mapping(address => bool)",
        "numberOfBytes": "32",
        "value": "t_bool"
      },
      "t_uint256": {
        "encoding": "inplace",
        "label": "uint256",
        "numberOfBytes": "32"
      },
      "t_uint8": {
        "encoding": "inplace",
        "label": "uint8",
        "numberOfBytes": "1"
      }
    }
  }
}