{
  "address": "0x6171619B5793099F8C577fe5dFC08ceA35a3B3Aa",
  "abi": [
    {
      "inputs": [
        {
          "internalType": "address",
          "name": "_strategyToken",
          "type": "address"
        },
        {
          "internalType": "address",
          "name": "_bentoBox",
          "type": "address"
        },
        {
          "internalType": "address",
          "name": "_factory",
          "type": "address"
        },
        {
          "internalType": "address",
          "name": "_bridgeToken",
          "type": "address"
        },
        {
          "internalType": "address",
          "name": "_strategyExecutor",
          "type": "address"
        },
        {
          "internalType": "contract ICakePool",
          "name": "_cakePool",
          "type": "address"
        },
        {
          "internalType": "bytes32",
          "name": "_pairCodeHash",
          "type": "bytes32"
        }
      ],
      "stateMutability": "nonpayable",
      "type": "constructor"
    },
    {
      "anonymous": false,
      "inputs": [
        {
          "indexed": true,
          "internalType": "address",
          "name": "server",
          "type": "address"
        },
        {
          "indexed": true,
          "internalType": "address",
          "name": "token0",
          "type": "address"
        },
        {
          "indexed": true,
          "internalType": "address",
          "name": "token1",
          "type": "address"
        },
        {
          "indexed": false,
          "internalType": "uint256",
          "name": "amount0",
          "type": "uint256"
        },
        {
          "indexed": false,
          "internalType": "uint256",
          "name": "amount1",
          "type": "uint256"
        }
      ],
      "name": "LogConvert",
      "type": "event"
    },
    {
      "anonymous": false,
      "inputs": [
        {
          "indexed": true,
          "internalType": "address",
          "name": "executor",
          "type": "address"
        },
        {
          "indexed": false,
          "internalType": "bool",
          "name": "allowed",
          "type": "bool"
        }
      ],
      "name": "LogSetStrategyExecutor",
      "type": "event"
    },
    {
      "anonymous": false,
      "inputs": [
        {
          "indexed": false,
          "internalType": "uint256",
          "name": "total",
          "type": "uint256"
        },
        {
          "indexed": false,
          "internalType": "uint256",
          "name": "strategyAmount",
          "type": "uint256"
        },
        {
          "indexed": false,
          "internalType": "uint256",
          "name": "feeAmount",
          "type": "uint256"
        }
      ],
      "name": "LpMinted",
      "type": "event"
    },
    {
      "anonymous": false,
      "inputs": [
        {
          "indexed": true,
          "internalType": "address",
          "name": "previousOwner",
          "type": "address"
        },
        {
          "indexed": true,
          "internalType": "address",
          "name": "newOwner",
          "type": "address"
        }
      ],
      "name": "OwnershipTransferred",
      "type": "event"
    },
    {
      "inputs": [],
      "name": "NO_LOCKTIME",
      "outputs": [
        {
          "internalType": "uint256",
          "name": "",
          "type": "uint256"
        }
      ],
      "stateMutability": "view",
      "type": "function"
    },
    {
      "inputs": [
        {
          "internalType": "address",
          "name": "to",
          "type": "address"
        },
        {
          "internalType": "uint256",
          "name": "value",
          "type": "uint256"
        },
        {
          "internalType": "bytes",
          "name": "data",
          "type": "bytes"
        }
      ],
      "name": "afterExit",
      "outputs": [
        {
          "internalType": "bool",
          "name": "success",
          "type": "bool"
        }
      ],
      "stateMutability": "nonpayable",
      "type": "function"
    },
    {
      "inputs": [],
      "name": "bentoBox",
      "outputs": [
        {
          "internalType": "address",
          "name": "",
          "type": "address"
        }
      ],
      "stateMutability": "view",
      "type": "function"
    },
    {
      "inputs": [],
      "name": "bridgeToken",
      "outputs": [
        {
          "internalType": "address",
          "name": "",
          "type": "address"
        }
      ],
      "stateMutability": "view",
      "type": "function"
    },
    {
      "inputs": [
        {
          "internalType": "uint256",
          "name": "balance",
          "type": "uint256"
        }
      ],
      "name": "exit",
      "outputs": [
        {
          "internalType": "int256",
          "name": "amountAdded",
          "type": "int256"
        }
      ],
      "stateMutability": "nonpayable",
      "type": "function"
    },
    {
      "inputs": [],
      "name": "exited",
      "outputs": [
        {
          "internalType": "bool",
          "name": "",
          "type": "bool"
        }
      ],
      "stateMutability": "view",
      "type": "function"
    },
    {
      "inputs": [],
      "name": "factory",
      "outputs": [
        {
          "internalType": "address",
          "name": "",
          "type": "address"
        }
      ],
      "stateMutability": "view",
      "type": "function"
    },
    {
      "inputs": [],
      "name": "fee",
      "outputs": [
        {
          "internalType": "uint256",
          "name": "",
          "type": "uint256"
        }
      ],
      "stateMutability": "view",
      "type": "function"
    },
    {
      "inputs": [],
      "name": "feeCollector",
      "outputs": [
        {
          "internalType": "address",
          "name": "",
          "type": "address"
        }
      ],
      "stateMutability": "view",
      "type": "function"
    },
    {
      "inputs": [
        {
          "internalType": "uint256",
          "name": "balance",
          "type": "uint256"
        },
        {
          "internalType": "address",
          "name": "sender",
          "type": "address"
        }
      ],
      "name": "harvest",
      "outputs": [
        {
          "internalType": "int256",
          "name": "",
          "type": "int256"
        }
      ],
      "stateMutability": "nonpayable",
      "type": "function"
    },
    {
      "inputs": [],
      "name": "maxBentoBoxBalance",
      "outputs": [
        {
          "internalType": "uint256",
          "name": "",
          "type": "uint256"
        }
      ],
      "stateMutability": "view",
      "type": "function"
    },
    {
      "inputs": [],
      "name": "owner",
      "outputs": [
        {
          "internalType": "address",
          "name": "",
          "type": "address"
        }
      ],
      "stateMutability": "view",
      "type": "function"
    },
    {
      "inputs": [],
      "name": "renounceOwnership",
      "outputs": [],
      "stateMutability": "nonpayable",
      "type": "function"
    },
    {
      "inputs": [
        {
          "internalType": "uint256",
          "name": "maxBalance",
          "type": "uint256"
        },
        {
          "internalType": "bool",
          "name": "rebalance",
          "type": "bool"
        },
        {
          "internalType": "uint256",
          "name": "maxChangeAmount",
          "type": "uint256"
        },
        {
          "internalType": "bool",
          "name": "harvestRewards",
          "type": "bool"
        }
      ],
      "name": "safeHarvest",
      "outputs": [],
      "stateMutability": "nonpayable",
      "type": "function"
    },
    {
      "inputs": [
        {
          "internalType": "address",
          "name": "_feeCollector",
          "type": "address"
        },
        {
          "internalType": "uint256",
          "name": "_fee",
          "type": "uint256"
        }
      ],
      "name": "setFeeCollector",
      "outputs": [],
      "stateMutability": "nonpayable",
      "type": "function"
    },
    {
      "inputs": [
        {
          "internalType": "address",
          "name": "executor",
          "type": "address"
        },
        {
          "internalType": "bool",
          "name": "value",
          "type": "bool"
        }
      ],
      "name": "setStrategyExecutor",
      "outputs": [],
      "stateMutability": "nonpayable",
      "type": "function"
    },
    {
      "inputs": [
        {
          "internalType": "uint256",
          "name": "amount",
          "type": "uint256"
        }
      ],
      "name": "skim",
      "outputs": [],
      "stateMutability": "nonpayable",
      "type": "function"
    },
    {
      "inputs": [
        {
          "internalType": "address",
          "name": "",
          "type": "address"
        }
      ],
      "name": "strategyExecutors",
      "outputs": [
        {
          "internalType": "bool",
          "name": "",
          "type": "bool"
        }
      ],
      "stateMutability": "view",
      "type": "function"
    },
    {
      "inputs": [],
      "name": "strategyToken",
      "outputs": [
        {
          "internalType": "address",
          "name": "",
          "type": "address"
        }
      ],
      "stateMutability": "view",
      "type": "function"
    },
    {
      "inputs": [
        {
          "internalType": "uint256",
          "name": "amountOutMin",
          "type": "uint256"
        },
        {
          "internalType": "address",
          "name": "inputToken",
          "type": "address"
        }
      ],
      "name": "swapExactTokensForUnderlying",
      "outputs": [
        {
          "internalType": "uint256",
          "name": "amountOut",
          "type": "uint256"
        }
      ],
      "stateMutability": "nonpayable",
      "type": "function"
    },
    {
      "inputs": [],
      "name": "totalDepositAmount",
      "outputs": [
        {
          "internalType": "uint256",
          "name": "",
          "type": "uint256"
        }
      ],
      "stateMutability": "view",
      "type": "function"
    },
    {
      "inputs": [
        {
          "internalType": "address",
          "name": "newOwner",
          "type": "address"
        }
      ],
      "name": "transferOwnership",
      "outputs": [],
      "stateMutability": "nonpayable",
      "type": "function"
    },
    {
      "inputs": [
        {
          "internalType": "uint256",
          "name": "amount",
          "type": "uint256"
        }
      ],
      "name": "withdraw",
      "outputs": [
        {
          "internalType": "uint256",
          "name": "actualAmount",
          "type": "uint256"
        }
      ],
      "stateMutability": "nonpayable",
      "type": "function"
    }
  ],
  "transactionHash": "0x817cd97690bbb72ef0a75c766f6034d2018d309a72a0e194bac7a0c703bd969e",
  "args": [
    "0x0E09FaBB73Bd3Ade0a17ECC321fD13a19e81cE82",
    "0x090185f2135308bad17527004364ebcc2d37e5f6",
    "0xcA143Ce32Fe78f1f7019d7d551a6402fC5350c73",
    "0x0000000000000000000000000000000000000000",
    "0xfddfE525054efaAD204600d00CA86ADb1Cc2ea8a",
    "0x45c54210128a065de780C4B0Df3d16664f7f859e",
    "0x00fb7f630766e6a796048ea87d01acd3068e8ff67d078148a3fa3f4a84f69bd5"
  ],
  "solcInputHash": "de4c7cb20d194961f6a54dd5f8785830",
  "bytecode": "0x6101406040523480156200001257600080fd5b50604051620030763803806200307683398101604081905262000035916200056a565b86868686868562000046336200014d565b6001600160601b0319606087811b821660805286811b821660a05285811b821660c05284901b1660e0526101008190526001600160a01b03821615620000e1576001600160a01b038216600081815260026020908152604091829020805460ff1916600190811790915591519182527fb08a78f53a7fe017d5ca8c8fcdbf06ffa2c31f2ab668378a17700d9fc558717e910160405180910390a25b5050505050606083901b6001600160601b0319166101205250620001023390565b600580546001600160a01b0319166001600160a01b03928316179055600a60045562000140908816836000196200019d602090811b620012e817901c565b50505050505050620006e6565b600080546001600160a01b038381166001600160a01b0319831681178455604051919092169283917f8be0079c531659141344cd1fd0a4f28419497f9722a3daafe3b4186f6b6457e09190a35050565b8015806200022b5750604051636eb1769f60e11b81523060048201526001600160a01b03838116602483015284169063dd62ed3e9060440160206040518083038186803b158015620001ee57600080fd5b505afa15801562000203573d6000803e3d6000fd5b505050506040513d601f19601f820116820180604052508101906200022991906200062d565b155b620002a35760405162461bcd60e51b815260206004820152603660248201527f5361666545524332303a20617070726f76652066726f6d206e6f6e2d7a65726f60448201527f20746f206e6f6e2d7a65726f20616c6c6f77616e63650000000000000000000060648201526084015b60405180910390fd5b604080516001600160a01b038416602482015260448082018490528251808303909101815260649091019091526020810180516001600160e01b0390811663095ea7b360e01b17909152620002fb9185916200030016565b505050565b60006200035c826040518060400160405280602081526020017f5361666545524332303a206c6f772d6c6576656c2063616c6c206661696c6564815250856001600160a01b0316620003de60201b62001444179092919060201c565b805190915015620002fb57808060200190518101906200037d919062000609565b620002fb5760405162461bcd60e51b815260206004820152602a60248201527f5361666545524332303a204552433230206f7065726174696f6e20646964206e6044820152691bdd081cdd58d8d9595960b21b60648201526084016200029a565b6060620003ef8484600085620003f9565b90505b9392505050565b6060824710156200045c5760405162461bcd60e51b815260206004820152602660248201527f416464726573733a20696e73756666696369656e742062616c616e636520666f6044820152651c8818d85b1b60d21b60648201526084016200029a565b843b620004ac5760405162461bcd60e51b815260206004820152601d60248201527f416464726573733a2063616c6c20746f206e6f6e2d636f6e747261637400000060448201526064016200029a565b600080866001600160a01b03168587604051620004ca919062000647565b60006040518083038185875af1925050503d806000811462000509576040519150601f19603f3d011682016040523d82523d6000602084013e6200050e565b606091505b509092509050620005218282866200052c565b979650505050505050565b606083156200053d575081620003f2565b8251156200054e5782518084602001fd5b8160405162461bcd60e51b81526004016200029a919062000665565b600080600080600080600060e0888a0312156200058657600080fd5b87516200059381620006cd565b6020890151909750620005a681620006cd565b6040890151909650620005b981620006cd565b6060890151909550620005cc81620006cd565b6080890151909450620005df81620006cd565b60a0890151909350620005f281620006cd565b8092505060c0880151905092959891949750929550565b6000602082840312156200061c57600080fd5b81518015158114620003f257600080fd5b6000602082840312156200064057600080fd5b5051919050565b600082516200065b8184602087016200069a565b9190910192915050565b6020815260008251806020840152620006868160408501602087016200069a565b601f01601f19169190910160400192915050565b60005b83811015620006b75781810151838201526020016200069d565b83811115620006c7576000848401525b50505050565b6001600160a01b0381168114620006e357600080fd5b50565b60805160601c60a05160601c60c05160601c60e05160601c610100516101205160601c612835620008416000396000818161146101528181611611015281816116e2015281816117770152611808015260008181610dea01528181610ef70152611c2501526000818161033a01528181610bb50152610c730152600081816102d201528181610abd01528181610dc701528181610ea001528181611bbf0152611c020152600081816101ec015281816103d601528181610468015281816105e60152818161066001528181610722015281816108300152818161093201528181610a4e0152611072015260008181610233015281816104400152818161052d015281816105c40152818161063e0152818161077d0152818161080e0152818161098f01528181610a2c01528181610b3301528181610cc801528181610f8c0152818161103b015281816114e901526115ba01526128356000f3fe608060405234801561001057600080fd5b506004361061014d5760003560e01c80638da5cb5b116100c3578063d9253c2d1161007c578063d9253c2d146102fd578063ddca3f4314610310578063e8bd73a514610319578063f2fde38b14610322578063f4734b0c14610335578063fac3f5501461035c57600080fd5b80638da5cb5b14610283578063a7edd48c14610294578063ba6275ab146102a7578063c415b95c146102ba578063c45a0155146102cd578063c5408d50146102f457600080fd5b80636b2ace87116101155780636b2ace87146101e7578063715018a614610226578063747efea11461022e57806374ceb267146102555780637f8661a1146102685780638a4a58bd1461027b57600080fd5b806318fccc76146101525780632e1a7d4d146101785780635066ebdd1461018b5780635ce6c327146101be5780636939aaf5146101d2575b600080fd5b610165610160366004612477565b61036f565b6040519081526020015b60405180910390f35b610165610186366004612445565b6106c0565b6101ae610199366004612252565b60026020526000908152604090205460ff1681565b604051901515815260200161016f565b6000546101ae90600160a01b900460ff1681565b6101e56101e0366004612445565b61085a565b005b61020e7f000000000000000000000000000000000000000000000000000000000000000081565b6040516001600160a01b03909116815260200161016f565b6101e5610866565b61020e7f000000000000000000000000000000000000000000000000000000000000000081565b6101e561026336600461226d565b61089c565b610165610276366004612445565b610925565b610165600081565b6000546001600160a01b031661020e565b6101656102a2366004612477565b610a8c565b6101e56102b53660046124a3565b610fe9565b60055461020e906001600160a01b031681565b61020e7f000000000000000000000000000000000000000000000000000000000000000081565b61016560035481565b6101ae61030b3660046122ce565b6110d4565b61016560045481565b61016560015481565b6101e5610330366004612252565b6111be565b61020e7f000000000000000000000000000000000000000000000000000000000000000081565b6101e561036a3660046122a4565b611256565b60008054600160a01b900460ff16156103cb5760405162461bcd60e51b815260206004820152601960248201527810995b9d1bd09bde0814dd1c985d1959de4e88195e1a5d1959603a1b60448201526064015b60405180910390fd5b336001600160a01b037f000000000000000000000000000000000000000000000000000000000000000016146104135760405162461bcd60e51b81526004016103c290612548565b6001600160a01b038216301480156104ee5750600154604051634ffe34db60e01b81526001600160a01b037f0000000000000000000000000000000000000000000000000000000000000000811660048301527f00000000000000000000000000000000000000000000000000000000000000001690634ffe34db90602401604080518083038186803b1580156104a957600080fd5b505afa1580156104bd573d6000803e3d6000fd5b505050506040513d601f19601f820116820180604052508101906104e1919061239a565b516001600160801b031611155b80156104fa5750600083115b156106b657600061050a8461145d565b6040516370a0823160e01b81523060048201529091506000906001600160a01b037f000000000000000000000000000000000000000000000000000000000000000016906370a082319060240160206040518083038186803b15801561056f57600080fd5b505afa158015610583573d6000803e3d6000fd5b505050506040513d601f19601f820116820180604052508101906105a7919061245e565b90506000821261061457801561060b5761060b6001600160a01b037f0000000000000000000000000000000000000000000000000000000000000000167f00000000000000000000000000000000000000000000000000000000000000008361167e565b91506106ba9050565b80156106ae576000610626828461265b565b9050600081131561069b576106856001600160a01b037f0000000000000000000000000000000000000000000000000000000000000000167f00000000000000000000000000000000000000000000000000000000000000008361167e565b61069661069184612792565b6116ae565b6106a4565b6106a4826116ae565b92506106ba915050565b5090506106ba565b5060005b92915050565b60008054600160a01b900460ff16156107175760405162461bcd60e51b815260206004820152601960248201527810995b9d1bd09bde0814dd1c985d1959de4e88195e1a5d1959603a1b60448201526064016103c2565b336001600160a01b037f0000000000000000000000000000000000000000000000000000000000000000161461075f5760405162461bcd60e51b81526004016103c290612548565b6107688261174a565b6040516370a0823160e01b81523060048201527f00000000000000000000000000000000000000000000000000000000000000006001600160a01b0316906370a082319060240160206040518083038186803b1580156107c757600080fd5b505afa1580156107db573d6000803e3d6000fd5b505050506040513d601f19601f820116820180604052508101906107ff919061245e565b90506108556001600160a01b037f0000000000000000000000000000000000000000000000000000000000000000167f00000000000000000000000000000000000000000000000000000000000000008361167e565b919050565b610863816116ae565b50565b6000546001600160a01b031633146108905760405162461bcd60e51b81526004016103c29061257d565b61089a60006117ae565b565b6000546001600160a01b031633146108c65760405162461bcd60e51b81526004016103c29061257d565b6001600160a01b038216600081815260026020908152604091829020805460ff191685151590811790915591519182527fb08a78f53a7fe017d5ca8c8fcdbf06ffa2c31f2ab668378a17700d9fc558717e910160405180910390a25050565b6000336001600160a01b037f0000000000000000000000000000000000000000000000000000000000000000161461096f5760405162461bcd60e51b81526004016103c290612548565b6109776117fe565b6040516370a0823160e01b81523060048201526000907f00000000000000000000000000000000000000000000000000000000000000006001600160a01b0316906370a082319060240160206040518083038186803b1580156109d957600080fd5b505afa1580156109ed573d6000803e3d6000fd5b505050506040513d601f19601f82011682018060405250810190610a11919061245e565b9050610a1d83826126f5565b9150610a736001600160a01b037f0000000000000000000000000000000000000000000000000000000000000000167f00000000000000000000000000000000000000000000000000000000000000008361167e565b506000805460ff60a01b1916600160a01b179055919050565b3360009081526002602052604081205460ff16610abb5760405162461bcd60e51b81526004016103c2906125b2565b7f00000000000000000000000000000000000000000000000000000000000000006001600160a01b0316610b315760405162461bcd60e51b815260206004820152601e60248201527f42656e746f426f782053747261746567793a2063616e6e6f742073776170000060448201526064016103c2565b7f00000000000000000000000000000000000000000000000000000000000000006001600160a01b0316826001600160a01b03161415610bb35760405162461bcd60e51b815260206004820152601f60248201527f42656e746f426f782053747261746567793a20696e76616c696420737761700060448201526064016103c2565b7f00000000000000000000000000000000000000000000000000000000000000006001600160a01b03161515600081610bed576002610bf0565b60035b60ff1667ffffffffffffffff811115610c0b57610c0b6127db565b604051908082528060200260200182016040528015610c34578160200160208202803683370190505b5090508381600081518110610c4b57610c4b6127c5565b60200260200101906001600160a01b031690816001600160a01b0316815250508115610cc6577f000000000000000000000000000000000000000000000000000000000000000081600181518110610ca557610ca56127c5565b60200260200101906001600160a01b031690816001600160a01b0316815250505b7f00000000000000000000000000000000000000000000000000000000000000008160018351610cf69190612734565b81518110610d0657610d066127c5565b60200260200101906001600160a01b031690816001600160a01b031681525050600081600081518110610d3b57610d3b6127c5565b60209081029190910101516040516370a0823160e01b81523060048201526001600160a01b03909116906370a082319060240160206040518083038186803b158015610d8657600080fd5b505afa158015610d9a573d6000803e3d6000fd5b505050506040513d601f19601f82011682018060405250810190610dbe919061245e565b90506000610e0e7f000000000000000000000000000000000000000000000000000000000000000083857f000000000000000000000000000000000000000000000000000000000000000061187b565b90508060018251610e1f9190612734565b81518110610e2f57610e2f6127c5565b6020026020010151945086851015610e985760405162461bcd60e51b815260206004820152602660248201527f42656e746f426f782053747261746567793a20696e73756666696369656e74206044820152651bdd5d1c1d5d60d21b60648201526084016103c2565b610f69610f1b7f000000000000000000000000000000000000000000000000000000000000000085600081518110610ed257610ed26127c5565b602002602001015186600181518110610eed57610eed6127c5565b60200260200101517f0000000000000000000000000000000000000000000000000000000000000000611a08565b82600081518110610f2e57610f2e6127c5565b602002602001015185600081518110610f4957610f496127c5565b60200260200101516001600160a01b031661167e9092919063ffffffff16565b610f74818430611ac6565b60408051838152602081018790526001600160a01b037f00000000000000000000000000000000000000000000000000000000000000008116929089169133917f3b644720db133e4e05b302a56bdb46867109debe30c44b4f25566b3c41ed627b910160405180910390a45050505092915050565b3360009081526002602052604090205460ff166110185760405162461bcd60e51b81526004016103c2906125b2565b83156110245760018490555b6040516366c6bb0b60e01b81526001600160a01b037f0000000000000000000000000000000000000000000000000000000000000000811660048301528415156024830152604482018490527f000000000000000000000000000000000000000000000000000000000000000016906366c6bb0b90606401600060405180830381600087803b1580156110b657600080fd5b505af11580156110ca573d6000803e3d6000fd5b5050505050505050565b600080546001600160a01b031633146110ff5760405162461bcd60e51b81526004016103c29061257d565b600054600160a01b900460ff166111585760405162461bcd60e51b815260206004820152601d60248201527f42656e746f426f782053747261746567793a206e6f742065786974656400000060448201526064016103c2565b836001600160a01b031683836040516111719190612519565b60006040518083038185875af1925050503d80600081146111ae576040519150601f19603f3d011682016040523d82523d6000602084013e6111b3565b606091505b509095945050505050565b6000546001600160a01b031633146111e85760405162461bcd60e51b81526004016103c29061257d565b6001600160a01b03811661124d5760405162461bcd60e51b815260206004820152602660248201527f4f776e61626c653a206e6577206f776e657220697320746865207a65726f206160448201526564647265737360d01b60648201526084016103c2565b610863816117ae565b6000546001600160a01b031633146112805760405162461bcd60e51b81526004016103c29061257d565b60648111156112c25760405162461bcd60e51b815260206004820152600e60248201526d06d617820666565206973203130360941b60448201526064016103c2565b600580546001600160a01b0319166001600160a01b039390931692909217909155600455565b8015806113715750604051636eb1769f60e11b81523060048201526001600160a01b03838116602483015284169063dd62ed3e9060440160206040518083038186803b15801561133757600080fd5b505afa15801561134b573d6000803e3d6000fd5b505050506040513d601f19601f8201168201806040525081019061136f919061245e565b155b6113dc5760405162461bcd60e51b815260206004820152603660248201527f5361666545524332303a20617070726f76652066726f6d206e6f6e2d7a65726f60448201527520746f206e6f6e2d7a65726f20616c6c6f77616e636560501b60648201526084016103c2565b6040516001600160a01b03831660248201526044810182905261143f90849063095ea7b360e01b906064015b60408051601f198184030181529190526020810180516001600160e01b03166001600160e01b031990931692909217909152611cf2565b505050565b60606114538484600085611dc4565b90505b9392505050565b60007f00000000000000000000000000000000000000000000000000000000000000006001600160a01b031663853828b66040518163ffffffff1660e01b8152600401600060405180830381600087803b1580156114ba57600080fd5b505af11580156114ce573d6000803e3d6000fd5b50506040516370a0823160e01b8152306004820152600092507f00000000000000000000000000000000000000000000000000000000000000006001600160a01b031691506370a082319060240160206040518083038186803b15801561153457600080fd5b505afa158015611548573d6000803e3d6000fd5b505050506040513d601f19601f8201168201806040525081019061156c919061245e565b90506003548111156115ea576000600354826115889190612734565b9050600060646004548361159c91906126d6565b6115a691906126b4565b6005549091506115e3906001600160a01b037f0000000000000000000000000000000000000000000000000000000000000000811691168361167e565b50506115f0565b60038190555b600354604051631c57762b60e31b81526004810191909152600060248201527f00000000000000000000000000000000000000000000000000000000000000006001600160a01b03169063e2bbb15890604401600060405180830381600087803b15801561165d57600080fd5b505af1158015611671573d6000803e3d6000fd5b5060009695505050505050565b6040516001600160a01b03831660248201526044810182905261143f90849063a9059cbb60e01b90606401611408565b80600360008282546116c0919061269c565b9091555050604051631c57762b60e31b815260048101829052600060248201527f00000000000000000000000000000000000000000000000000000000000000006001600160a01b03169063e2bbb158906044015b600060405180830381600087803b15801561172f57600080fd5b505af1158015611743573d6000803e3d6000fd5b5050505050565b806003600082825461175c9190612734565b9091555050604051635521e9bf60e01b8152600481018290527f00000000000000000000000000000000000000000000000000000000000000006001600160a01b031690635521e9bf90602401611715565b600080546001600160a01b038381166001600160a01b0319831681178455604051919092169283917f8be0079c531659141344cd1fd0a4f28419497f9722a3daafe3b4186f6b6457e09190a35050565b60006003819055507f00000000000000000000000000000000000000000000000000000000000000006001600160a01b031663853828b66040518163ffffffff1660e01b8152600401600060405180830381600087803b15801561186157600080fd5b505af1158015611875573d6000803e3d6000fd5b50505050565b60606002835110156118cf5760405162461bcd60e51b815260206004820152601e60248201527f556e697377617056324c6962726172793a20494e56414c49445f50415448000060448201526064016103c2565b825167ffffffffffffffff8111156118e9576118e96127db565b604051908082528060200260200182016040528015611912578160200160208202803683370190505b5090508381600081518110611929576119296127c5565b60200260200101818152505060005b600184516119469190612734565b8110156119ff5760008061199a88878581518110611966576119666127c5565b60200260200101518886600161197c919061269c565b8151811061198c5761198c6127c5565b602002602001015188611eec565b915091506119c28484815181106119b3576119b36127c5565b60200260200101518383611fc7565b846119ce85600161269c565b815181106119de576119de6127c5565b602002602001018181525050505080806119f790612777565b915050611938565b50949350505050565b6000806000611a1786866120dc565b6040516bffffffffffffffffffffffff19606084811b8216602084015283901b166034820152919350915087906048016040516020818303038152906040528051906020012085604051602001611aa3939291906001600160f81b0319815260609390931b6bffffffffffffffffffffffff191660018401526015830191909152603582015260550190565b60408051601f198184030181529190528051602090910120979650505050505050565b60005b60018351611ad79190612734565b81101561187557600080848381518110611af357611af36127c5565b602002602001015185846001611b09919061269c565b81518110611b1957611b196127c5565b6020026020010151915091506000816001600160a01b0316836001600160a01b031610611b465781611b48565b825b9050600087611b5886600161269c565b81518110611b6857611b686127c5565b60200260200101519050600080836001600160a01b0316866001600160a01b031614611b9657826000611b9a565b6000835b91509150600060028a51611bae9190612734565b8810611bba5788611bfb565b611bfb7f0000000000000000000000000000000000000000000000000000000000000000878c611beb8c600261269c565b81518110610eed57610eed6127c5565b9050611c497f000000000000000000000000000000000000000000000000000000000000000088887f0000000000000000000000000000000000000000000000000000000000000000611a08565b6001600160a01b031663022c0d9f84848460006040519080825280601f01601f191660200182016040528015611c86576020820181803683370190505b506040518563ffffffff1660e01b8152600401611ca694939291906125f3565b600060405180830381600087803b158015611cc057600080fd5b505af1158015611cd4573d6000803e3d6000fd5b50505050505050505050508080611cea90612777565b915050611ac9565b6000611d47826040518060400160405280602081526020017f5361666545524332303a206c6f772d6c6576656c2063616c6c206661696c6564815250856001600160a01b03166114449092919063ffffffff16565b80519091501561143f5780806020019051810190611d65919061237d565b61143f5760405162461bcd60e51b815260206004820152602a60248201527f5361666545524332303a204552433230206f7065726174696f6e20646964206e6044820152691bdd081cdd58d8d9595960b21b60648201526084016103c2565b606082471015611e255760405162461bcd60e51b815260206004820152602660248201527f416464726573733a20696e73756666696369656e742062616c616e636520666f6044820152651c8818d85b1b60d21b60648201526084016103c2565b843b611e735760405162461bcd60e51b815260206004820152601d60248201527f416464726573733a2063616c6c20746f206e6f6e2d636f6e747261637400000060448201526064016103c2565b600080866001600160a01b03168587604051611e8f9190612519565b60006040518083038185875af1925050503d8060008114611ecc576040519150601f19603f3d011682016040523d82523d6000602084013e611ed1565b606091505b5091509150611ee18282866121d4565b979650505050505050565b6000806000611efb86866120dc565b509050600080611f0d89898989611a08565b6001600160a01b0316630902f1ac6040518163ffffffff1660e01b815260040160606040518083038186803b158015611f4557600080fd5b505afa158015611f59573d6000803e3d6000fd5b505050506040513d601f19601f82011682018060405250810190611f7d91906123f5565b506001600160701b031691506001600160701b03169150826001600160a01b0316886001600160a01b031614611fb4578082611fb7565b81815b909a909950975050505050505050565b600080841161202c5760405162461bcd60e51b815260206004820152602b60248201527f556e697377617056324c6962726172793a20494e53554646494349454e545f4960448201526a1394155517d05353d5539560aa1b60648201526084016103c2565b60008311801561203c5750600082115b6120995760405162461bcd60e51b815260206004820152602860248201527f556e697377617056324c6962726172793a20494e53554646494349454e545f4c604482015267495155494449545960c01b60648201526084016103c2565b60006120a7856103e56126d6565b905060006120b584836126d6565b90506000826120c6876103e86126d6565b6120d0919061269c565b9050611ee181836126b4565b600080826001600160a01b0316846001600160a01b0316141561214f5760405162461bcd60e51b815260206004820152602560248201527f556e697377617056324c6962726172793a204944454e544943414c5f41444452604482015264455353455360d81b60648201526084016103c2565b826001600160a01b0316846001600160a01b03161061216f578284612172565b83835b90925090506001600160a01b0382166121cd5760405162461bcd60e51b815260206004820152601e60248201527f556e697377617056324c6962726172793a205a45524f5f41444452455353000060448201526064016103c2565b9250929050565b606083156121e3575081611456565b8251156121f35782518084602001fd5b8160405162461bcd60e51b81526004016103c29190612535565b80356001600160a01b038116811461085557600080fd5b80516001600160701b038116811461085557600080fd5b80516001600160801b038116811461085557600080fd5b60006020828403121561226457600080fd5b6114568261220d565b6000806040838503121561228057600080fd5b6122898361220d565b91506020830135612299816127f1565b809150509250929050565b600080604083850312156122b757600080fd5b6122c08361220d565b946020939093013593505050565b6000806000606084860312156122e357600080fd5b6122ec8461220d565b92506020808501359250604085013567ffffffffffffffff8082111561231157600080fd5b818701915087601f83011261232557600080fd5b813581811115612337576123376127db565b612349601f8201601f1916850161262a565b9150808252888482850101111561235f57600080fd5b80848401858401376000848284010152508093505050509250925092565b60006020828403121561238f57600080fd5b8151611456816127f1565b6000604082840312156123ac57600080fd5b6040516040810181811067ffffffffffffffff821117156123cf576123cf6127db565b6040526123db8361223b565b81526123e96020840161223b565b60208201529392505050565b60008060006060848603121561240a57600080fd5b61241384612224565b925061242160208501612224565b9150604084015163ffffffff8116811461243a57600080fd5b809150509250925092565b60006020828403121561245757600080fd5b5035919050565b60006020828403121561247057600080fd5b5051919050565b6000806040838503121561248a57600080fd5b8235915061249a6020840161220d565b90509250929050565b600080600080608085870312156124b957600080fd5b8435935060208501356124cb816127f1565b92506040850135915060608501356124e2816127f1565b939692955090935050565b6000815180845261250581602086016020860161274b565b601f01601f19169290920160200192915050565b6000825161252b81846020870161274b565b9190910192915050565b60208152600061145660208301846124ed565b6020808252818101527f42656e746f426f782053747261746567793a206f6e6c792042656e746f426f78604082015260600190565b6020808252818101527f4f776e61626c653a2063616c6c6572206973206e6f7420746865206f776e6572604082015260600190565b60208082526021908201527f42656e746f426f782053747261746567793a206f6e6c79204578656375746f726040820152607360f81b606082015260800190565b84815283602082015260018060a01b038316604082015260806060820152600061262060808301846124ed565b9695505050505050565b604051601f8201601f1916810167ffffffffffffffff81118282101715612653576126536127db565b604052919050565b600080821280156001600160ff1b038490038513161561267d5761267d6127af565b600160ff1b8390038412811615612696576126966127af565b50500190565b600082198211156126af576126af6127af565b500190565b6000826126d157634e487b7160e01b600052601260045260246000fd5b500490565b60008160001904831182151516156126f0576126f06127af565b500290565b60008083128015600160ff1b850184121615612713576127136127af565b6001600160ff1b038401831381161561272e5761272e6127af565b50500390565b600082821015612746576127466127af565b500390565b60005b8381101561276657818101518382015260200161274e565b838111156118755750506000910152565b600060001982141561278b5761278b6127af565b5060010190565b6000600160ff1b8214156127a8576127a86127af565b5060000390565b634e487b7160e01b600052601160045260246000fd5b634e487b7160e01b600052603260045260246000fd5b634e487b7160e01b600052604160045260246000fd5b801515811461086357600080fdfea2646970667358221220f5fafb85545077597deb981631c4786790194b88dc70cab15880a65be4c8c9a864736f6c63430008070033",
  "devdoc": {
    "kind": "dev",
    "methods": {
      "afterExit(address,uint256,bytes)": {
        "details": "After exited, the owner can perform ANY call. This is to rescue any funds that didn't get released during exit or got earned afterwards due to vesting or airdrops, etc. "
      },
      "constructor": {
        "params": {
          "_bentoBox": "BentoBox address.",
          "_bridgeToken": "An intermediary token for swapping any rewards into it before swapping it to _inputPairToken",
          "_factory": "SushiSwap factory.",
          "_strategyExecutor": "an EOA that will execute the safeHarvest function.",
          "_strategyToken": "Address of the underlying LP token the strategy invests."
        }
      },
      "exit(uint256)": {
        "details": "do not use isActive modifier here; allow bentobox to call strategy.exit() multiple times",
        "params": {
          "balance": "The amount of tokens the caller thinks it has invested."
        },
        "returns": {
          "amountAdded": "The delta (+profit or -loss) that occured in contrast to `balance`."
        }
      },
      "harvest(uint256,address)": {
        "details": "Only BentoBox can call harvest on this strategy.Ensures that (1) the caller was this contract (called through the safeHarvest function) and (2) that we are not being frontrun by a large BentoBox deposit when harvesting profits. ",
        "params": {
          "balance": "The amount of tokens the caller thinks it has invested.",
          "sender": "The address of the initiator of this transaction. Can be used for reimbursements, etc."
        },
        "returns": {
          "_0": "The delta (+profit or -loss) that occured in contrast to `balance`."
        }
      },
      "owner()": {
        "details": "Returns the address of the current owner."
      },
      "renounceOwnership()": {
        "details": "Leaves the contract without owner. It will not be possible to call `onlyOwner` functions anymore. Can only be called by the current owner. NOTE: Renouncing ownership will leave the contract without an owner, thereby removing any functionality that is only available to the owner."
      },
      "safeHarvest(uint256,bool,uint256,bool)": {
        "details": "maxBalance can be set to 0 to keep the previous value.maxChangeAmount can be set to 0 to allow for full rebalancing.",
        "params": {
          "harvestRewards": "If we want to claim any accrued reward tokens",
          "maxBalance": "The maximum balance of the underlying token that is allowed to be in BentoBox.",
          "maxChangeAmount": "When rebalancing - the maximum amount that will be deposited to or withdrawn from a strategy to BentoBox.",
          "rebalance": "Whether BentoBox should rebalance the strategy assets to acheive it's target allocation."
        }
      },
      "skim(uint256)": {
        "params": {
          "amount": "The amount of tokens to invest."
        }
      },
      "transferOwnership(address)": {
        "details": "Transfers ownership of the contract to a new account (`newOwner`). Can only be called by the current owner."
      },
      "withdraw(uint256)": {
        "details": "The `actualAmount` should be very close to the amount. The difference should NOT be used to report a loss. That's what harvest is for.",
        "params": {
          "amount": "The requested amount the caller wants to withdraw."
        },
        "returns": {
          "actualAmount": "The real amount that is withdrawn."
        }
      }
    },
    "version": 1
  },
  "userdoc": {
    "kind": "user",
    "methods": {
      "exit(uint256)": {
        "notice": "Withdraw all assets in the safest way possible. This shouldn't fail."
      },
      "harvest(uint256,address)": {
        "notice": "Harvest any profits made converted to the asset and pass them to the caller."
      },
      "safeHarvest(uint256,bool,uint256,bool)": {
        "notice": "Harvest profits while preventing a sandwich attack exploit."
      },
      "skim(uint256)": {
        "notice": "Send the assets to the Strategy and call skim to invest them."
      },
      "swapExactTokensForUnderlying(uint256,address)": {
        "notice": "Swap some tokens in the contract for the underlying and deposits them to address(this)"
      },
      "withdraw(uint256)": {
        "notice": "Withdraw assets. The returned amount can differ from the requested amount due to rounding."
      }
    },
    "version": 1
  },
  "storageLayout": {
    "storage": [
      {
        "astId": 7,
        "contract": "contracts/strategies/CakeStrategyV2.sol:CakeStrategyV2",
        "label": "_owner",
        "offset": 0,
        "slot": "0",
        "type": "t_address"
      },
      {
        "astId": 1815,
        "contract": "contracts/strategies/CakeStrategyV2.sol:CakeStrategyV2",
        "label": "exited",
        "offset": 20,
        "slot": "0",
        "type": "t_bool"
      },
      {
        "astId": 1818,
        "contract": "contracts/strategies/CakeStrategyV2.sol:CakeStrategyV2",
        "label": "maxBentoBoxBalance",
        "offset": 0,
        "slot": "1",
        "type": "t_uint256"
      },
      {
        "astId": 1823,
        "contract": "contracts/strategies/CakeStrategyV2.sol:CakeStrategyV2",
        "label": "strategyExecutors",
        "offset": 0,
        "slot": "2",
        "type": "t_mapping(t_address,t_bool)"
      },
      {
        "astId": 5411,
        "contract": "contracts/strategies/CakeStrategyV2.sol:CakeStrategyV2",
        "label": "totalDepositAmount",
        "offset": 0,
        "slot": "3",
        "type": "t_uint256"
      },
      {
        "astId": 5413,
        "contract": "contracts/strategies/CakeStrategyV2.sol:CakeStrategyV2",
        "label": "fee",
        "offset": 0,
        "slot": "4",
        "type": "t_uint256"
      },
      {
        "astId": 5415,
        "contract": "contracts/strategies/CakeStrategyV2.sol:CakeStrategyV2",
        "label": "feeCollector",
        "offset": 0,
        "slot": "5",
        "type": "t_address"
      }
    ],
    "types": {
      "t_address": {
        "encoding": "inplace",
        "label": "address",
        "numberOfBytes": "20"
      },
      "t_bool": {
        "encoding": "inplace",
        "label": "bool",
        "numberOfBytes": "1"
      },
      "t_mapping(t_address,t_bool)": {
        "encoding": "mapping",
        "key": "t_address",
        "label": "mapping(address => bool)",
        "numberOfBytes": "32",
        "value": "t_bool"
      },
      "t_uint256": {
        "encoding": "inplace",
        "label": "uint256",
        "numberOfBytes": "32"
      }
    }
  }
}