{
  "address": "0x56fa1D0c03961cF90443EDb88985B38506635c43",
  "abi": [
    {
      "inputs": [
        {
          "internalType": "address",
          "name": "_strategyToken",
          "type": "address"
        },
        {
          "internalType": "address",
          "name": "_bentoBox",
          "type": "address"
        },
        {
          "internalType": "contract IStargateRouter",
          "name": "_router",
          "type": "address"
        },
        {
          "internalType": "uint256",
          "name": "_poolId",
          "type": "uint256"
        },
        {
          "internalType": "contract ILPStaking",
          "name": "_staking",
          "type": "address"
        },
        {
          "internalType": "uint256",
          "name": "_pid",
          "type": "uint256"
        }
      ],
      "stateMutability": "nonpayable",
      "type": "constructor"
    },
    {
      "anonymous": false,
      "inputs": [
        {
          "indexed": false,
          "internalType": "address",
          "name": "feeCollector",
          "type": "address"
        },
        {
          "indexed": false,
          "internalType": "uint256",
          "name": "feeAmount",
          "type": "uint256"
        }
      ],
      "name": "FeeParametersChanged",
      "type": "event"
    },
    {
      "anonymous": false,
      "inputs": [
        {
          "indexed": true,
          "internalType": "address",
          "name": "server",
          "type": "address"
        },
        {
          "indexed": true,
          "internalType": "address",
          "name": "token0",
          "type": "address"
        },
        {
          "indexed": true,
          "internalType": "address",
          "name": "token1",
          "type": "address"
        },
        {
          "indexed": false,
          "internalType": "uint256",
          "name": "amount0",
          "type": "uint256"
        },
        {
          "indexed": false,
          "internalType": "uint256",
          "name": "amount1",
          "type": "uint256"
        }
      ],
      "name": "LogConvert",
      "type": "event"
    },
    {
      "anonymous": false,
      "inputs": [
        {
          "indexed": true,
          "internalType": "address",
          "name": "executor",
          "type": "address"
        },
        {
          "indexed": false,
          "internalType": "bool",
          "name": "allowed",
          "type": "bool"
        }
      ],
      "name": "LogSetStrategyExecutor",
      "type": "event"
    },
    {
      "anonymous": false,
      "inputs": [
        {
          "indexed": false,
          "internalType": "uint256",
          "name": "total",
          "type": "uint256"
        },
        {
          "indexed": false,
          "internalType": "uint256",
          "name": "strategyAmount",
          "type": "uint256"
        },
        {
          "indexed": false,
          "internalType": "uint256",
          "name": "feeAmount",
          "type": "uint256"
        }
      ],
      "name": "LpMinted",
      "type": "event"
    },
    {
      "anonymous": false,
      "inputs": [
        {
          "indexed": true,
          "internalType": "address",
          "name": "previousOwner",
          "type": "address"
        },
        {
          "indexed": true,
          "internalType": "address",
          "name": "newOwner",
          "type": "address"
        }
      ],
      "name": "OwnershipTransferred",
      "type": "event"
    },
    {
      "anonymous": false,
      "inputs": [
        {
          "indexed": false,
          "internalType": "address",
          "name": "oldSwapper",
          "type": "address"
        },
        {
          "indexed": false,
          "internalType": "address",
          "name": "newSwapper",
          "type": "address"
        }
      ],
      "name": "StargateSwapperChanged",
      "type": "event"
    },
    {
      "inputs": [
        {
          "internalType": "address",
          "name": "to",
          "type": "address"
        },
        {
          "internalType": "uint256",
          "name": "value",
          "type": "uint256"
        },
        {
          "internalType": "bytes",
          "name": "data",
          "type": "bytes"
        }
      ],
      "name": "afterExit",
      "outputs": [
        {
          "internalType": "bool",
          "name": "success",
          "type": "bool"
        }
      ],
      "stateMutability": "nonpayable",
      "type": "function"
    },
    {
      "inputs": [],
      "name": "bentoBox",
      "outputs": [
        {
          "internalType": "address",
          "name": "",
          "type": "address"
        }
      ],
      "stateMutability": "view",
      "type": "function"
    },
    {
      "inputs": [],
      "name": "bridgeToken",
      "outputs": [
        {
          "internalType": "address",
          "name": "",
          "type": "address"
        }
      ],
      "stateMutability": "view",
      "type": "function"
    },
    {
      "inputs": [
        {
          "internalType": "uint256",
          "name": "balance",
          "type": "uint256"
        }
      ],
      "name": "exit",
      "outputs": [
        {
          "internalType": "int256",
          "name": "amountAdded",
          "type": "int256"
        }
      ],
      "stateMutability": "nonpayable",
      "type": "function"
    },
    {
      "inputs": [],
      "name": "exited",
      "outputs": [
        {
          "internalType": "bool",
          "name": "",
          "type": "bool"
        }
      ],
      "stateMutability": "view",
      "type": "function"
    },
    {
      "inputs": [],
      "name": "factory",
      "outputs": [
        {
          "internalType": "address",
          "name": "",
          "type": "address"
        }
      ],
      "stateMutability": "view",
      "type": "function"
    },
    {
      "inputs": [],
      "name": "feeCollector",
      "outputs": [
        {
          "internalType": "address",
          "name": "",
          "type": "address"
        }
      ],
      "stateMutability": "view",
      "type": "function"
    },
    {
      "inputs": [],
      "name": "feePercent",
      "outputs": [
        {
          "internalType": "uint8",
          "name": "",
          "type": "uint8"
        }
      ],
      "stateMutability": "view",
      "type": "function"
    },
    {
      "inputs": [
        {
          "internalType": "uint256",
          "name": "balance",
          "type": "uint256"
        },
        {
          "internalType": "address",
          "name": "sender",
          "type": "address"
        }
      ],
      "name": "harvest",
      "outputs": [
        {
          "internalType": "int256",
          "name": "",
          "type": "int256"
        }
      ],
      "stateMutability": "nonpayable",
      "type": "function"
    },
    {
      "inputs": [],
      "name": "maxBentoBoxBalance",
      "outputs": [
        {
          "internalType": "uint256",
          "name": "",
          "type": "uint256"
        }
      ],
      "stateMutability": "view",
      "type": "function"
    },
    {
      "inputs": [],
      "name": "owner",
      "outputs": [
        {
          "internalType": "address",
          "name": "",
          "type": "address"
        }
      ],
      "stateMutability": "view",
      "type": "function"
    },
    {
      "inputs": [],
      "name": "pid",
      "outputs": [
        {
          "internalType": "uint256",
          "name": "",
          "type": "uint256"
        }
      ],
      "stateMutability": "view",
      "type": "function"
    },
    {
      "inputs": [],
      "name": "poolId",
      "outputs": [
        {
          "internalType": "uint256",
          "name": "",
          "type": "uint256"
        }
      ],
      "stateMutability": "view",
      "type": "function"
    },
    {
      "inputs": [],
      "name": "renounceOwnership",
      "outputs": [],
      "stateMutability": "nonpayable",
      "type": "function"
    },
    {
      "inputs": [],
      "name": "router",
      "outputs": [
        {
          "internalType": "contract IStargateRouter",
          "name": "",
          "type": "address"
        }
      ],
      "stateMutability": "view",
      "type": "function"
    },
    {
      "inputs": [
        {
          "internalType": "uint256",
          "name": "maxBalance",
          "type": "uint256"
        },
        {
          "internalType": "bool",
          "name": "rebalance",
          "type": "bool"
        },
        {
          "internalType": "uint256",
          "name": "maxChangeAmount",
          "type": "uint256"
        },
        {
          "internalType": "bool",
          "name": "harvestRewards",
          "type": "bool"
        }
      ],
      "name": "safeHarvest",
      "outputs": [],
      "stateMutability": "nonpayable",
      "type": "function"
    },
    {
      "inputs": [
        {
          "internalType": "address",
          "name": "_feeCollector",
          "type": "address"
        },
        {
          "internalType": "uint8",
          "name": "_feePercent",
          "type": "uint8"
        }
      ],
      "name": "setFeeParameters",
      "outputs": [],
      "stateMutability": "nonpayable",
      "type": "function"
    },
    {
      "inputs": [
        {
          "internalType": "address",
          "name": "_stargateSwapper",
          "type": "address"
        }
      ],
      "name": "setStargateSwapper",
      "outputs": [],
      "stateMutability": "nonpayable",
      "type": "function"
    },
    {
      "inputs": [
        {
          "internalType": "address",
          "name": "executor",
          "type": "address"
        },
        {
          "internalType": "bool",
          "name": "value",
          "type": "bool"
        }
      ],
      "name": "setStrategyExecutor",
      "outputs": [],
      "stateMutability": "nonpayable",
      "type": "function"
    },
    {
      "inputs": [
        {
          "internalType": "uint256",
          "name": "amount",
          "type": "uint256"
        }
      ],
      "name": "skim",
      "outputs": [],
      "stateMutability": "nonpayable",
      "type": "function"
    },
    {
      "inputs": [],
      "name": "staking",
      "outputs": [
        {
          "internalType": "contract ILPStaking",
          "name": "",
          "type": "address"
        }
      ],
      "stateMutability": "view",
      "type": "function"
    },
    {
      "inputs": [],
      "name": "stargateSwapper",
      "outputs": [
        {
          "internalType": "contract IStargateSwapper",
          "name": "",
          "type": "address"
        }
      ],
      "stateMutability": "view",
      "type": "function"
    },
    {
      "inputs": [],
      "name": "stargateToken",
      "outputs": [
        {
          "internalType": "contract IStargateToken",
          "name": "",
          "type": "address"
        }
      ],
      "stateMutability": "view",
      "type": "function"
    },
    {
      "inputs": [
        {
          "internalType": "address",
          "name": "",
          "type": "address"
        }
      ],
      "name": "strategyExecutors",
      "outputs": [
        {
          "internalType": "bool",
          "name": "",
          "type": "bool"
        }
      ],
      "stateMutability": "view",
      "type": "function"
    },
    {
      "inputs": [],
      "name": "strategyToken",
      "outputs": [
        {
          "internalType": "address",
          "name": "",
          "type": "address"
        }
      ],
      "stateMutability": "view",
      "type": "function"
    },
    {
      "inputs": [
        {
          "internalType": "uint256",
          "name": "amountOutMin",
          "type": "uint256"
        },
        {
          "internalType": "address",
          "name": "inputToken",
          "type": "address"
        }
      ],
      "name": "swapExactTokensForUnderlying",
      "outputs": [
        {
          "internalType": "uint256",
          "name": "amountOut",
          "type": "uint256"
        }
      ],
      "stateMutability": "nonpayable",
      "type": "function"
    },
    {
      "inputs": [
        {
          "internalType": "uint256",
          "name": "amountOutMin",
          "type": "uint256"
        }
      ],
      "name": "swapToLP",
      "outputs": [
        {
          "internalType": "uint256",
          "name": "amountOut",
          "type": "uint256"
        }
      ],
      "stateMutability": "nonpayable",
      "type": "function"
    },
    {
      "inputs": [
        {
          "internalType": "address",
          "name": "newOwner",
          "type": "address"
        }
      ],
      "name": "transferOwnership",
      "outputs": [],
      "stateMutability": "nonpayable",
      "type": "function"
    },
    {
      "inputs": [],
      "name": "underlyingToken",
      "outputs": [
        {
          "internalType": "contract ERC20",
          "name": "",
          "type": "address"
        }
      ],
      "stateMutability": "view",
      "type": "function"
    },
    {
      "inputs": [
        {
          "internalType": "uint256",
          "name": "amount",
          "type": "uint256"
        }
      ],
      "name": "withdraw",
      "outputs": [
        {
          "internalType": "uint256",
          "name": "actualAmount",
          "type": "uint256"
        }
      ],
      "stateMutability": "nonpayable",
      "type": "function"
    }
  ],
  "transactionHash": "0xc4005b1784a111b52d5298eefd02f97ba4d2b91dfe79f394b841c4ab17925d35",
  "args": [
    "0x29e38769f23701A2e4A8Ef0492e19dA4604Be62c",
    "0x1fC83f75499b7620d53757f0b01E2ae626aAE530",
    "0x45A01E4e04F14f7A4a6702c74187c5F6222033cd",
    2,
    "0x8731d54E9D02c286767d56ac03e8037C07e01e98",
    1
  ],
  "solcInputHash": "d921d5b6a97e612082d3d1a6a7756fa4",
  "bytecode": "0x6101e06040523480156200001257600080fd5b5060405162003623380380620036238339810160408190526200003591620003f9565b858560008080806200004733620002b0565b6001600160601b0319606087811b821660805286811b821660a05285811b821660c05284901b1660e0526101008190526001600160a01b03821615620000e2576001600160a01b038216600081815260026020908152604091829020805460ff1916600190811790915591519182527fb08a78f53a7fe017d5ca8c8fcdbf06ffa2c31f2ab668378a17700d9fc558717e910160405180910390a25b5050506001600160601b0319606088811b8216610160526101a088905286901b16610120525050506101c081905260408051637e062a3560e11b815290516000916001600160a01b0389169163fc0c546a91600480820192602092909190829003018186803b1580156200015557600080fd5b505afa1580156200016a573d6000803e3d6000fd5b505050506040513d601f19601f82011682018060405250810190620001909190620003d2565b9050826001600160a01b0316636c099dee6040518163ffffffff1660e01b815260040160206040518083038186803b158015620001cc57600080fd5b505afa158015620001e1573d6000803e3d6000fd5b505050506040513d601f19601f82011682018060405250810190620002079190620003d2565b60601b6001600160601b031916610140526003805460ff60a01b1916600560a11b179055620002333390565b600380546001600160a01b0319166001600160a01b039283161790556200026c9082168660001962000300602090811b62001c1417901c565b606081901b6001600160601b03191661018052620002a36001600160a01b0388168460001962000300602090811b62001c1417901c565b505050505050506200048e565b600080546001600160a01b038381166001600160a01b0319831681178455604051919092169283917f8be0079c531659141344cd1fd0a4f28419497f9722a3daafe3b4186f6b6457e09190a35050565b600060405163095ea7b360e01b81526001600160a01b03841660048201528260248201526000806044836000895af191506200033e90508162000386565b620003805760405162461bcd60e51b815260206004820152600e60248201526d1054141493d59157d1905253115160921b604482015260640160405180910390fd5b50505050565b60003d826200039957806000803e806000fd5b8060208114620003b4578015620003c65760009250620003cb565b816000803e60005115159250620003cb565b600192505b5050919050565b600060208284031215620003e557600080fd5b8151620003f28162000475565b9392505050565b60008060008060008060c087890312156200041357600080fd5b8651620004208162000475565b6020880151909650620004338162000475565b6040880151909550620004468162000475565b606088015160808901519195509350620004608162000475565b8092505060a087015190509295509295509295565b6001600160a01b03811681146200048b57600080fd5b50565b60805160601c60a05160601c60c05160601c60e05160601c610100516101205160601c6101405160601c6101605160601c6101805160601c6101a0516101c051612fad620006766000396000818161048101528181611ca101528181611da301528181611e470152611f0a01526000818161026f01526118c3015260008181610235015261183101526000818161050901526118f90152600081816104a8015281816113dd015281816114a5015261169401526000818161029601528181611cd101528181611dd001528181611e740152611f300152600081816110910152818161119e015261233a0152600081816104e201528181610e5c0152610f1a01526000818161041801528181610d640152818161106e01528181611147015281816122d4015261231701526000818161032c0152818161059201528181610624015281816107a20152818161081c015281816108de015281816109ec01528181610bd901528181610cf5015261131901526000818161035b015281816105fc015281816106e901528181610780015281816107fa01528181610939015281816109ca01528181610c3601528181610cd301528181610dda01528181610f6f01528181611233015281816112e2015281816117390152818161197f0152611ab40152612fad6000f3fe608060405234801561001057600080fd5b50600436106101da5760003560e01c80637fd6f15c11610104578063d9253c2d116100a2578063f17898f711610071578063f17898f7146104a3578063f2fde38b146104ca578063f4734b0c146104dd578063f887ea401461050457600080fd5b8063d9253c2d1461044d578063daa656de14610460578063e8bd73a514610473578063f10684541461047c57600080fd5b8063ba6275ab116100de578063ba6275ab146103ed578063c415b95c14610400578063c45a015514610413578063d08a31601461043a57600080fd5b80637fd6f15c146103a35780638da5cb5b146103c9578063a7edd48c146103da57600080fd5b80635ce6c3271161017c578063715018a61161014b578063715018a61461034e578063747efea11461035657806374ceb2671461037d5780637f8661a11461039057600080fd5b80635ce6c327146102eb57806363b98ac8146102ff5780636939aaf5146103145780636b2ace871461032757600080fd5b80632e1a7d4d116101b85780632e1a7d4d146102575780633e0dc34e1461026a5780634cf088d9146102915780635066ebdd146102b857600080fd5b80630f0319c3146101df57806318fccc761461020f5780632495a59914610230575b600080fd5b6004546101f2906001600160a01b031681565b6040516001600160a01b0390911681526020015b60405180910390f35b61022261021d366004612bef565b61052b565b604051908152602001610206565b6101f27f000000000000000000000000000000000000000000000000000000000000000081565b610222610265366004612bbd565b61087c565b6102227f000000000000000000000000000000000000000000000000000000000000000081565b6101f27f000000000000000000000000000000000000000000000000000000000000000081565b6102db6102c63660046129c2565b60026020526000908152604090205460ff1681565b6040519015158152602001610206565b6000546102db90600160a01b900460ff1681565b61031261030d366004612ac3565b610a16565b005b610312610322366004612bbd565b610b01565b6101f27f000000000000000000000000000000000000000000000000000000000000000081565b610312610b0d565b6101f27f000000000000000000000000000000000000000000000000000000000000000081565b61031261038b3660046129dd565b610b43565b61022261039e366004612bbd565b610bcc565b6003546103b790600160a01b900460ff1681565b60405160ff9091168152602001610206565b6000546001600160a01b03166101f2565b6102226103e8366004612bef565b610d33565b6103126103fb366004612c1b565b611290565b6003546101f2906001600160a01b031681565b6101f27f000000000000000000000000000000000000000000000000000000000000000081565b6103126104483660046129c2565b61137b565b6102db61045b366004612a14565b611563565b61022261046e366004612bbd565b61164d565b61022260015481565b6102227f000000000000000000000000000000000000000000000000000000000000000081565b6101f27f000000000000000000000000000000000000000000000000000000000000000081565b6103126104d83660046129c2565b611b7c565b6101f27f000000000000000000000000000000000000000000000000000000000000000081565b6101f27f000000000000000000000000000000000000000000000000000000000000000081565b60008054600160a01b900460ff16156105875760405162461bcd60e51b815260206004820152601960248201527810995b9d1bd09bde0814dd1c985d1959de4e88195e1a5d1959603a1b60448201526064015b60405180910390fd5b336001600160a01b037f000000000000000000000000000000000000000000000000000000000000000016146105cf5760405162461bcd60e51b815260040161057e90612cc0565b6001600160a01b038216301480156106aa5750600154604051634ffe34db60e01b81526001600160a01b037f0000000000000000000000000000000000000000000000000000000000000000811660048301527f00000000000000000000000000000000000000000000000000000000000000001690634ffe34db90602401604080518083038186803b15801561066557600080fd5b505afa158015610679573d6000803e3d6000fd5b505050506040513d601f19601f8201168201806040525081019061069d9190612b12565b516001600160801b031611155b80156106b65750600083115b156108725760006106c684611c92565b6040516370a0823160e01b81523060048201529091506000906001600160a01b037f000000000000000000000000000000000000000000000000000000000000000016906370a082319060240160206040518083038186803b15801561072b57600080fd5b505afa15801561073f573d6000803e3d6000fd5b505050506040513d601f19601f820116820180604052508101906107639190612bd6565b9050600082126107d05780156107c7576107c76001600160a01b037f0000000000000000000000000000000000000000000000000000000000000000167f000000000000000000000000000000000000000000000000000000000000000083611d3d565b91506108769050565b801561086a5760006107e28284612dd3565b90506000811315610857576108416001600160a01b037f0000000000000000000000000000000000000000000000000000000000000000167f000000000000000000000000000000000000000000000000000000000000000083611d3d565b61085261084d84612f0a565b611d94565b610860565b61086082611d94565b9250610876915050565b509050610876565b5060005b92915050565b60008054600160a01b900460ff16156108d35760405162461bcd60e51b815260206004820152601960248201527810995b9d1bd09bde0814dd1c985d1959de4e88195e1a5d1959603a1b604482015260640161057e565b336001600160a01b037f0000000000000000000000000000000000000000000000000000000000000000161461091b5760405162461bcd60e51b815260040161057e90612cc0565b61092482611e38565b6040516370a0823160e01b81523060048201527f00000000000000000000000000000000000000000000000000000000000000006001600160a01b0316906370a082319060240160206040518083038186803b15801561098357600080fd5b505afa158015610997573d6000803e3d6000fd5b505050506040513d601f19601f820116820180604052508101906109bb9190612bd6565b9050610a116001600160a01b037f0000000000000000000000000000000000000000000000000000000000000000167f000000000000000000000000000000000000000000000000000000000000000083611d3d565b919050565b6000546001600160a01b03163314610a405760405162461bcd60e51b815260040161057e90612cf5565b6003546064600160a01b90910460ff161115610a935760405162461bcd60e51b81526020600482015260126024820152711a5b9d985b1a590819995954195c98d95b9d60721b604482015260640161057e565b600380546001600160a01b0384166001600160a81b03199091168117600160a01b60ff8516908102919091179092556040805191825260208201929092527f5f850aa70c541070663ba840cabd35705ada3b9428408ab2c2fd2eb7ee0f845091015b60405180910390a15050565b610b0a81611d94565b50565b6000546001600160a01b03163314610b375760405162461bcd60e51b815260040161057e90612cf5565b610b416000611eab565b565b6000546001600160a01b03163314610b6d5760405162461bcd60e51b815260040161057e90612cf5565b6001600160a01b038216600081815260026020908152604091829020805460ff191685151590811790915591519182527fb08a78f53a7fe017d5ca8c8fcdbf06ffa2c31f2ab668378a17700d9fc558717e910160405180910390a25050565b6000336001600160a01b037f00000000000000000000000000000000000000000000000000000000000000001614610c165760405162461bcd60e51b815260040161057e90612cc0565b610c1e611efb565b6040516370a0823160e01b81523060048201526000907f00000000000000000000000000000000000000000000000000000000000000006001600160a01b0316906370a082319060240160206040518083038186803b158015610c8057600080fd5b505afa158015610c94573d6000803e3d6000fd5b505050506040513d601f19601f82011682018060405250810190610cb89190612bd6565b9050610cc48382612e6d565b9150610d1a6001600160a01b037f0000000000000000000000000000000000000000000000000000000000000000167f000000000000000000000000000000000000000000000000000000000000000083611d3d565b506000805460ff60a01b1916600160a01b179055919050565b3360009081526002602052604081205460ff16610d625760405162461bcd60e51b815260040161057e90612d2a565b7f00000000000000000000000000000000000000000000000000000000000000006001600160a01b0316610dd85760405162461bcd60e51b815260206004820152601e60248201527f42656e746f426f782053747261746567793a2063616e6e6f7420737761700000604482015260640161057e565b7f00000000000000000000000000000000000000000000000000000000000000006001600160a01b0316826001600160a01b03161415610e5a5760405162461bcd60e51b815260206004820152601f60248201527f42656e746f426f782053747261746567793a20696e76616c6964207377617000604482015260640161057e565b7f00000000000000000000000000000000000000000000000000000000000000006001600160a01b03161515600081610e94576002610e97565b60035b60ff1667ffffffffffffffff811115610eb257610eb2612f53565b604051908082528060200260200182016040528015610edb578160200160208202803683370190505b5090508381600081518110610ef257610ef2612f3d565b60200260200101906001600160a01b031690816001600160a01b0316815250508115610f6d577f000000000000000000000000000000000000000000000000000000000000000081600181518110610f4c57610f4c612f3d565b60200260200101906001600160a01b031690816001600160a01b0316815250505b7f00000000000000000000000000000000000000000000000000000000000000008160018351610f9d9190612eac565b81518110610fad57610fad612f3d565b60200260200101906001600160a01b031690816001600160a01b031681525050600081600081518110610fe257610fe2612f3d565b60209081029190910101516040516370a0823160e01b81523060048201526001600160a01b03909116906370a082319060240160206040518083038186803b15801561102d57600080fd5b505afa158015611041573d6000803e3d6000fd5b505050506040513d601f19601f820116820180604052508101906110659190612bd6565b905060006110b57f000000000000000000000000000000000000000000000000000000000000000083857f0000000000000000000000000000000000000000000000000000000000000000611f90565b905080600182516110c69190612eac565b815181106110d6576110d6612f3d565b602002602001015194508685101561113f5760405162461bcd60e51b815260206004820152602660248201527f42656e746f426f782053747261746567793a20696e73756666696369656e74206044820152651bdd5d1c1d5d60d21b606482015260840161057e565b6112106111c27f00000000000000000000000000000000000000000000000000000000000000008560008151811061117957611179612f3d565b60200260200101518660018151811061119457611194612f3d565b60200260200101517f000000000000000000000000000000000000000000000000000000000000000061211d565b826000815181106111d5576111d5612f3d565b6020026020010151856000815181106111f0576111f0612f3d565b60200260200101516001600160a01b0316611d3d9092919063ffffffff16565b61121b8184306121db565b60408051838152602081018790526001600160a01b037f00000000000000000000000000000000000000000000000000000000000000008116929089169133917f3b644720db133e4e05b302a56bdb46867109debe30c44b4f25566b3c41ed627b910160405180910390a45050505092915050565b3360009081526002602052604090205460ff166112bf5760405162461bcd60e51b815260040161057e90612d2a565b83156112cb5760018490555b6040516366c6bb0b60e01b81526001600160a01b037f0000000000000000000000000000000000000000000000000000000000000000811660048301528415156024830152604482018490527f000000000000000000000000000000000000000000000000000000000000000016906366c6bb0b90606401600060405180830381600087803b15801561135d57600080fd5b505af1158015611371573d6000803e3d6000fd5b5050505050505050565b6000546001600160a01b031633146113a55760405162461bcd60e51b815260040161057e90612cf5565b6004546001600160a01b0316801561145b5760405163095ea7b360e01b81526001600160a01b038281166004830152600060248301527f0000000000000000000000000000000000000000000000000000000000000000169063095ea7b390604401602060405180830381600087803b15801561142157600080fd5b505af1158015611435573d6000803e3d6000fd5b505050506040513d601f19601f820116820180604052508101906114599190612af5565b505b600480546001600160a01b0319166001600160a01b038416908117909155156115235760405163095ea7b360e01b81526001600160a01b03838116600483015260001960248301527f0000000000000000000000000000000000000000000000000000000000000000169063095ea7b390604401602060405180830381600087803b1580156114e957600080fd5b505af11580156114fd573d6000803e3d6000fd5b505050506040513d601f19601f820116820180604052508101906115219190612af5565b505b604080516001600160a01b038084168252841660208201527f311578ae3a6c00355d71da56e0128305c0ae9487ad6ad860cd28dbc3d2fcdd959101610af5565b600080546001600160a01b0316331461158e5760405162461bcd60e51b815260040161057e90612cf5565b600054600160a01b900460ff166115e75760405162461bcd60e51b815260206004820152601d60248201527f42656e746f426f782053747261746567793a206e6f7420657869746564000000604482015260640161057e565b836001600160a01b031683836040516116009190612c91565b60006040518083038185875af1925050503d806000811461163d576040519150601f19603f3d011682016040523d82523d6000602084013e611642565b606091505b509095945050505050565b3360009081526002602052604081205460ff1661167c5760405162461bcd60e51b815260040161057e90612d2a565b6040516370a0823160e01b81523060048201526000907f00000000000000000000000000000000000000000000000000000000000000006001600160a01b0316906370a082319060240160206040518083038186803b1580156116de57600080fd5b505afa1580156116f2573d6000803e3d6000fd5b505050506040513d601f19601f820116820180604052508101906117169190612bd6565b6040516370a0823160e01b81523060048201529091506000906001600160a01b037f000000000000000000000000000000000000000000000000000000000000000016906370a082319060240160206040518083038186803b15801561177b57600080fd5b505afa15801561178f573d6000803e3d6000fd5b505050506040513d601f19601f820116820180604052508101906117b39190612bd6565b60048054604051630d8699d160e31b81529182018590523060248301529192506001600160a01b0390911690636c34ce8890604401600060405180830381600087803b15801561180257600080fd5b505af1158015611816573d6000803e3d6000fd5b50506040516370a0823160e01b8152306004820152600092507f00000000000000000000000000000000000000000000000000000000000000006001600160a01b031691506370a082319060240160206040518083038186803b15801561187c57600080fd5b505afa158015611890573d6000803e3d6000fd5b505050506040513d601f19601f820116820180604052508101906118b49190612bd6565b6040516321ec87bf60e21b81527f00000000000000000000000000000000000000000000000000000000000000006004820152602481018290523060448201529091507f00000000000000000000000000000000000000000000000000000000000000006001600160a01b0316906387b21efc90606401600060405180830381600087803b15801561194557600080fd5b505af1158015611959573d6000803e3d6000fd5b50506040516370a0823160e01b8152306004820152600092508491506001600160a01b037f000000000000000000000000000000000000000000000000000000000000000016906370a082319060240160206040518083038186803b1580156119c157600080fd5b505afa1580156119d5573d6000803e3d6000fd5b505050506040513d601f19601f820116820180604052508101906119f99190612bd6565b611a039190612eac565b905085811015611a555760405162461bcd60e51b815260206004820152601760248201527f494e53554646494349454e545f414d4f554e545f4f5554000000000000000000604482015260640161057e565b600354600090606490611a7290600160a01b900460ff1684612e4e565b611a7c9190612e2c565b9050611a888183612eac565b60035460405163a9059cbb60e01b81526001600160a01b039182166004820152602481018490529197507f0000000000000000000000000000000000000000000000000000000000000000169063a9059cbb90604401602060405180830381600087803b158015611af857600080fd5b505af1158015611b0c573d6000803e3d6000fd5b505050506040513d601f19601f82011682018060405250810190611b309190612af5565b5060408051838152602081018890529081018290527ffac4ceeb73d90e5d855cf54c2fc52267e49df26636cde8d7ab271952cd081b779060600160405180910390a15050505050919050565b6000546001600160a01b03163314611ba65760405162461bcd60e51b815260040161057e90612cf5565b6001600160a01b038116611c0b5760405162461bcd60e51b815260206004820152602660248201527f4f776e61626c653a206e6577206f776e657220697320746865207a65726f206160448201526564647265737360d01b606482015260840161057e565b610b0a81611eab565b600060405163095ea7b360e01b81526001600160a01b03841660048201528260248201526000806044836000895af1915050611c4f81612407565b611c8c5760405162461bcd60e51b815260206004820152600e60248201526d1054141493d59157d1905253115160921b604482015260640161057e565b50505050565b604051630441a3e760e41b81527f00000000000000000000000000000000000000000000000000000000000000006004820152600060248201819052907f00000000000000000000000000000000000000000000000000000000000000006001600160a01b03169063441a3e7090604401600060405180830381600087803b158015611d1d57600080fd5b505af1158015611d31573d6000803e3d6000fd5b50600095945050505050565b604080516001600160a01b038416602482015260448082018490528251808303909101815260649091019091526020810180516001600160e01b031663a9059cbb60e01b179052611d8f90849061244e565b505050565b604051631c57762b60e31b81527f00000000000000000000000000000000000000000000000000000000000000006004820152602481018290527f00000000000000000000000000000000000000000000000000000000000000006001600160a01b03169063e2bbb158906044015b600060405180830381600087803b158015611e1d57600080fd5b505af1158015611e31573d6000803e3d6000fd5b5050505050565b604051630441a3e760e41b81527f00000000000000000000000000000000000000000000000000000000000000006004820152602481018290527f00000000000000000000000000000000000000000000000000000000000000006001600160a01b03169063441a3e7090604401611e03565b600080546001600160a01b038381166001600160a01b0319831681178455604051919092169283917f8be0079c531659141344cd1fd0a4f28419497f9722a3daafe3b4186f6b6457e09190a35050565b604051632989754760e11b81527f000000000000000000000000000000000000000000000000000000000000000060048201527f00000000000000000000000000000000000000000000000000000000000000006001600160a01b031690635312ea8e90602401600060405180830381600087803b158015611f7c57600080fd5b505af1158015611c8c573d6000803e3d6000fd5b6060600283511015611fe45760405162461bcd60e51b815260206004820152601e60248201527f556e697377617056324c6962726172793a20494e56414c49445f504154480000604482015260640161057e565b825167ffffffffffffffff811115611ffe57611ffe612f53565b604051908082528060200260200182016040528015612027578160200160208202803683370190505b509050838160008151811061203e5761203e612f3d565b60200260200101818152505060005b6001845161205b9190612eac565b811015612114576000806120af8887858151811061207b5761207b612f3d565b6020026020010151888660016120919190612e14565b815181106120a1576120a1612f3d565b602002602001015188612520565b915091506120d78484815181106120c8576120c8612f3d565b602002602001015183836125fb565b846120e3856001612e14565b815181106120f3576120f3612f3d565b6020026020010181815250505050808061210c90612eef565b91505061204d565b50949350505050565b600080600061212c868661271b565b6040516bffffffffffffffffffffffff19606084811b8216602084015283901b1660348201529193509150879060480160405160208183030381529060405280519060200120856040516020016121b8939291906001600160f81b0319815260609390931b6bffffffffffffffffffffffff191660018401526015830191909152603582015260550190565b60408051601f198184030181529190528051602090910120979650505050505050565b60005b600183516121ec9190612eac565b811015611c8c5760008084838151811061220857612208612f3d565b60200260200101518584600161221e9190612e14565b8151811061222e5761222e612f3d565b6020026020010151915091506000816001600160a01b0316836001600160a01b03161061225b578161225d565b825b905060008761226d866001612e14565b8151811061227d5761227d612f3d565b60200260200101519050600080836001600160a01b0316866001600160a01b0316146122ab578260006122af565b6000835b91509150600060028a516122c39190612eac565b88106122cf5788612310565b6123107f0000000000000000000000000000000000000000000000000000000000000000878c6123008c6002612e14565b8151811061119457611194612f3d565b905061235e7f000000000000000000000000000000000000000000000000000000000000000088887f000000000000000000000000000000000000000000000000000000000000000061211d565b6001600160a01b031663022c0d9f84848460006040519080825280601f01601f19166020018201604052801561239b576020820181803683370190505b506040518563ffffffff1660e01b81526004016123bb9493929190612d6b565b600060405180830381600087803b1580156123d557600080fd5b505af11580156123e9573d6000803e3d6000fd5b505050505050505050505080806123ff90612eef565b9150506121de565b60003d8261241957806000803e806000fd5b80602081146124315780156124425760009250612447565b816000803e60005115159250612447565b600192505b5050919050565b60006124a3826040518060400160405280602081526020017f5361666545524332303a206c6f772d6c6576656c2063616c6c206661696c6564815250856001600160a01b03166128139092919063ffffffff16565b805190915015611d8f57808060200190518101906124c19190612af5565b611d8f5760405162461bcd60e51b815260206004820152602a60248201527f5361666545524332303a204552433230206f7065726174696f6e20646964206e6044820152691bdd081cdd58d8d9595960b21b606482015260840161057e565b600080600061252f868661271b565b5090506000806125418989898961211d565b6001600160a01b0316630902f1ac6040518163ffffffff1660e01b815260040160606040518083038186803b15801561257957600080fd5b505afa15801561258d573d6000803e3d6000fd5b505050506040513d601f19601f820116820180604052508101906125b19190612b6d565b506001600160701b031691506001600160701b03169150826001600160a01b0316886001600160a01b0316146125e85780826125eb565b81815b909a909950975050505050505050565b60008084116126605760405162461bcd60e51b815260206004820152602b60248201527f556e697377617056324c6962726172793a20494e53554646494349454e545f4960448201526a1394155517d05353d5539560aa1b606482015260840161057e565b6000831180156126705750600082115b6126cd5760405162461bcd60e51b815260206004820152602860248201527f556e697377617056324c6962726172793a20494e53554646494349454e545f4c604482015267495155494449545960c01b606482015260840161057e565b60006126db856103e5612e4e565b905060006126e98483612e4e565b90506000826126fa876103e8612e4e565b6127049190612e14565b90506127108183612e2c565b979650505050505050565b600080826001600160a01b0316846001600160a01b0316141561278e5760405162461bcd60e51b815260206004820152602560248201527f556e697377617056324c6962726172793a204944454e544943414c5f41444452604482015264455353455360d81b606482015260840161057e565b826001600160a01b0316846001600160a01b0316106127ae5782846127b1565b83835b90925090506001600160a01b03821661280c5760405162461bcd60e51b815260206004820152601e60248201527f556e697377617056324c6962726172793a205a45524f5f414444524553530000604482015260640161057e565b9250929050565b6060612822848460008561282c565b90505b9392505050565b60608247101561288d5760405162461bcd60e51b815260206004820152602660248201527f416464726573733a20696e73756666696369656e742062616c616e636520666f6044820152651c8818d85b1b60d21b606482015260840161057e565b843b6128db5760405162461bcd60e51b815260206004820152601d60248201527f416464726573733a2063616c6c20746f206e6f6e2d636f6e7472616374000000604482015260640161057e565b600080866001600160a01b031685876040516128f79190612c91565b60006040518083038185875af1925050503d8060008114612934576040519150601f19603f3d011682016040523d82523d6000602084013e612939565b606091505b509150915061271082828660608315612953575081612825565b8251156129635782518084602001fd5b8160405162461bcd60e51b815260040161057e9190612cad565b80356001600160a01b0381168114610a1157600080fd5b80516001600160701b0381168114610a1157600080fd5b80516001600160801b0381168114610a1157600080fd5b6000602082840312156129d457600080fd5b6128258261297d565b600080604083850312156129f057600080fd5b6129f98361297d565b91506020830135612a0981612f69565b809150509250929050565b600080600060608486031215612a2957600080fd5b612a328461297d565b92506020808501359250604085013567ffffffffffffffff80821115612a5757600080fd5b818701915087601f830112612a6b57600080fd5b813581811115612a7d57612a7d612f53565b612a8f601f8201601f19168501612da2565b91508082528884828501011115612aa557600080fd5b80848401858401376000848284010152508093505050509250925092565b60008060408385031215612ad657600080fd5b612adf8361297d565b9150602083013560ff81168114612a0957600080fd5b600060208284031215612b0757600080fd5b815161282581612f69565b600060408284031215612b2457600080fd5b6040516040810181811067ffffffffffffffff82111715612b4757612b47612f53565b604052612b53836129ab565b8152612b61602084016129ab565b60208201529392505050565b600080600060608486031215612b8257600080fd5b612b8b84612994565b9250612b9960208501612994565b9150604084015163ffffffff81168114612bb257600080fd5b809150509250925092565b600060208284031215612bcf57600080fd5b5035919050565b600060208284031215612be857600080fd5b5051919050565b60008060408385031215612c0257600080fd5b82359150612c126020840161297d565b90509250929050565b60008060008060808587031215612c3157600080fd5b843593506020850135612c4381612f69565b9250604085013591506060850135612c5a81612f69565b939692955090935050565b60008151808452612c7d816020860160208601612ec3565b601f01601f19169290920160200192915050565b60008251612ca3818460208701612ec3565b9190910192915050565b6020815260006128256020830184612c65565b6020808252818101527f42656e746f426f782053747261746567793a206f6e6c792042656e746f426f78604082015260600190565b6020808252818101527f4f776e61626c653a2063616c6c6572206973206e6f7420746865206f776e6572604082015260600190565b60208082526021908201527f42656e746f426f782053747261746567793a206f6e6c79204578656375746f726040820152607360f81b606082015260800190565b84815283602082015260018060a01b0383166040820152608060608201526000612d986080830184612c65565b9695505050505050565b604051601f8201601f1916810167ffffffffffffffff81118282101715612dcb57612dcb612f53565b604052919050565b600080821280156001600160ff1b0384900385131615612df557612df5612f27565b600160ff1b8390038412811615612e0e57612e0e612f27565b50500190565b60008219821115612e2757612e27612f27565b500190565b600082612e4957634e487b7160e01b600052601260045260246000fd5b500490565b6000816000190483118215151615612e6857612e68612f27565b500290565b60008083128015600160ff1b850184121615612e8b57612e8b612f27565b6001600160ff1b0384018313811615612ea657612ea6612f27565b50500390565b600082821015612ebe57612ebe612f27565b500390565b60005b83811015612ede578181015183820152602001612ec6565b83811115611c8c5750506000910152565b6000600019821415612f0357612f03612f27565b5060010190565b6000600160ff1b821415612f2057612f20612f27565b5060000390565b634e487b7160e01b600052601160045260246000fd5b634e487b7160e01b600052603260045260246000fd5b634e487b7160e01b600052604160045260246000fd5b8015158114610b0a57600080fdfea26469706673582212206842c5e629712002e73a2e2536195811a69ee4dee4067e8630dcdca7774555d164736f6c63430008070033",
  "devdoc": {
    "kind": "dev",
    "methods": {
      "afterExit(address,uint256,bytes)": {
        "details": "After exited, the owner can perform ANY call. This is to rescue any funds that didn't get released during exit or got earned afterwards due to vesting or airdrops, etc. "
      },
      "exit(uint256)": {
        "details": "do not use isActive modifier here; allow bentobox to call strategy.exit() multiple times",
        "params": {
          "balance": "The amount of tokens the caller thinks it has invested."
        },
        "returns": {
          "amountAdded": "The delta (+profit or -loss) that occured in contrast to `balance`."
        }
      },
      "harvest(uint256,address)": {
        "details": "Only BentoBox can call harvest on this strategy.Ensures that (1) the caller was this contract (called through the safeHarvest function) and (2) that we are not being frontrun by a large BentoBox deposit when harvesting profits. ",
        "params": {
          "balance": "The amount of tokens the caller thinks it has invested.",
          "sender": "The address of the initiator of this transaction. Can be used for reimbursements, etc."
        },
        "returns": {
          "_0": "The delta (+profit or -loss) that occured in contrast to `balance`."
        }
      },
      "owner()": {
        "details": "Returns the address of the current owner."
      },
      "renounceOwnership()": {
        "details": "Leaves the contract without owner. It will not be possible to call `onlyOwner` functions anymore. Can only be called by the current owner. NOTE: Renouncing ownership will leave the contract without an owner, thereby removing any functionality that is only available to the owner."
      },
      "safeHarvest(uint256,bool,uint256,bool)": {
        "details": "maxBalance can be set to 0 to keep the previous value.maxChangeAmount can be set to 0 to allow for full rebalancing.",
        "params": {
          "harvestRewards": "If we want to claim any accrued reward tokens",
          "maxBalance": "The maximum balance of the underlying token that is allowed to be in BentoBox.",
          "maxChangeAmount": "When rebalancing - the maximum amount that will be deposited to or withdrawn from a strategy to BentoBox.",
          "rebalance": "Whether BentoBox should rebalance the strategy assets to acheive it's target allocation."
        }
      },
      "skim(uint256)": {
        "params": {
          "amount": "The amount of tokens to invest."
        }
      },
      "transferOwnership(address)": {
        "details": "Transfers ownership of the contract to a new account (`newOwner`). Can only be called by the current owner."
      },
      "withdraw(uint256)": {
        "details": "The `actualAmount` should be very close to the amount. The difference should NOT be used to report a loss. That's what harvest is for.",
        "params": {
          "amount": "The requested amount the caller wants to withdraw."
        },
        "returns": {
          "actualAmount": "The real amount that is withdrawn."
        }
      }
    },
    "version": 1
  },
  "userdoc": {
    "kind": "user",
    "methods": {
      "exit(uint256)": {
        "notice": "Withdraw all assets in the safest way possible. This shouldn't fail."
      },
      "harvest(uint256,address)": {
        "notice": "Harvest any profits made converted to the asset and pass them to the caller."
      },
      "safeHarvest(uint256,bool,uint256,bool)": {
        "notice": "Harvest profits while preventing a sandwich attack exploit."
      },
      "skim(uint256)": {
        "notice": "Send the assets to the Strategy and call skim to invest them."
      },
      "swapExactTokensForUnderlying(uint256,address)": {
        "notice": "Swap some tokens in the contract for the underlying and deposits them to address(this)"
      },
      "withdraw(uint256)": {
        "notice": "Withdraw assets. The returned amount can differ from the requested amount due to rounding."
      }
    },
    "version": 1
  },
  "storageLayout": {
    "storage": [
      {
        "astId": 7,
        "contract": "contracts/strategies/stargate/StargateLPStrategy.sol:StargateLPStrategy",
        "label": "_owner",
        "offset": 0,
        "slot": "0",
        "type": "t_address"
      },
      {
        "astId": 1815,
        "contract": "contracts/strategies/stargate/StargateLPStrategy.sol:StargateLPStrategy",
        "label": "exited",
        "offset": 20,
        "slot": "0",
        "type": "t_bool"
      },
      {
        "astId": 1818,
        "contract": "contracts/strategies/stargate/StargateLPStrategy.sol:StargateLPStrategy",
        "label": "maxBentoBoxBalance",
        "offset": 0,
        "slot": "1",
        "type": "t_uint256"
      },
      {
        "astId": 1823,
        "contract": "contracts/strategies/stargate/StargateLPStrategy.sol:StargateLPStrategy",
        "label": "strategyExecutors",
        "offset": 0,
        "slot": "2",
        "type": "t_mapping(t_address,t_bool)"
      },
      {
        "astId": 11486,
        "contract": "contracts/strategies/stargate/StargateLPStrategy.sol:StargateLPStrategy",
        "label": "feeCollector",
        "offset": 0,
        "slot": "3",
        "type": "t_address"
      },
      {
        "astId": 11488,
        "contract": "contracts/strategies/stargate/StargateLPStrategy.sol:StargateLPStrategy",
        "label": "feePercent",
        "offset": 20,
        "slot": "3",
        "type": "t_uint8"
      },
      {
        "astId": 11491,
        "contract": "contracts/strategies/stargate/StargateLPStrategy.sol:StargateLPStrategy",
        "label": "stargateSwapper",
        "offset": 0,
        "slot": "4",
        "type": "t_contract(IStargateSwapper)4410"
      }
    ],
    "types": {
      "t_address": {
        "encoding": "inplace",
        "label": "address",
        "numberOfBytes": "20"
      },
      "t_bool": {
        "encoding": "inplace",
        "label": "bool",
        "numberOfBytes": "1"
      },
      "t_contract(IStargateSwapper)4410": {
        "encoding": "inplace",
        "label": "contract IStargateSwapper",
        "numberOfBytes": "20"
      },
      "t_mapping(t_address,t_bool)": {
        "encoding": "mapping",
        "key": "t_address",
        "label": "mapping(address => bool)",
        "numberOfBytes": "32",
        "value": "t_bool"
      },
      "t_uint256": {
        "encoding": "inplace",
        "label": "uint256",
        "numberOfBytes": "32"
      },
      "t_uint8": {
        "encoding": "inplace",
        "label": "uint8",
        "numberOfBytes": "1"
      }
    }
  }
}