{
  "address": "0x0b5E135FfBCd93F1323bdEF45c1bEa5887588dfD",
  "abi": [
    {
      "inputs": [
        {
          "internalType": "address[]",
          "name": "_path",
          "type": "address[]"
        }
      ],
      "stateMutability": "nonpayable",
      "type": "constructor"
    },
    {
      "inputs": [],
      "name": "ROUTER",
      "outputs": [
        {
          "internalType": "contract JoeRouter02",
          "name": "",
          "type": "address"
        }
      ],
      "stateMutability": "view",
      "type": "function"
    },
    {
      "inputs": [],
      "name": "STARGATE",
      "outputs": [
        {
          "internalType": "contract ERC20",
          "name": "",
          "type": "address"
        }
      ],
      "stateMutability": "view",
      "type": "function"
    },
    {
      "inputs": [
        {
          "internalType": "uint256",
          "name": "",
          "type": "uint256"
        }
      ],
      "name": "path",
      "outputs": [
        {
          "internalType": "address",
          "name": "",
          "type": "address"
        }
      ],
      "stateMutability": "view",
      "type": "function"
    },
    {
      "inputs": [
        {
          "internalType": "uint256",
          "name": "stgBalance",
          "type": "uint256"
        },
        {
          "internalType": "address",
          "name": "recipient",
          "type": "address"
        }
      ],
      "name": "swapToUnderlying",
      "outputs": [],
      "stateMutability": "nonpayable",
      "type": "function"
    }
  ],
  "transactionHash": "0xbca22347530cf48c81eb32c653c53db5c17dadae41f9c66caee998c67bca3320",
  "args": [
    [
      "0x2F6F07CDcf3588944Bf4C42aC74ff24bF56e7590",
      "0xB97EF9Ef8734C71904D8002F8b6Bc66Dd9c48a6E",
      "0x9702230A8Ea53601f5cD2dc00fDBc13d4dF4A8c7"
    ]
  ],
  "solcInputHash": "60db090f4f8d440d9fda3cb2847988f7",
  "bytecode": "0x608060405234801561001057600080fd5b506040516106e13803806106e183398101604081905261002f91610160565b60005b815181101561009c57600082828151811061004f5761004f61027d565b60209081029190910181015182546001810184556000938452919092200180546001600160a01b0319166001600160a01b039092169190911790558061009481610254565b915050610032565b5060405163095ea7b360e01b81527360ae616a2155ee3d9a68541ba4544862310933d460048201526000196024820152732f6f07cdcf3588944bf4c42ac74ff24bf56e75909063095ea7b390604401602060405180830381600087803b15801561010557600080fd5b505af1158015610119573d6000803e3d6000fd5b505050506040513d601f19601f8201168201806040525081019061013d919061022b565b50506102a9565b80516001600160a01b038116811461015b57600080fd5b919050565b6000602080838503121561017357600080fd5b82516001600160401b038082111561018a57600080fd5b818501915085601f83011261019e57600080fd5b8151818111156101b0576101b0610293565b8060051b604051601f19603f830116810181811085821117156101d5576101d5610293565b604052828152858101935084860182860187018a10156101f457600080fd5b600095505b8386101561021e5761020a81610144565b8552600195909501949386019386016101f9565b5098975050505050505050565b60006020828403121561023d57600080fd5b8151801515811461024d57600080fd5b9392505050565b600060001982141561027657634e487b7160e01b600052601160045260246000fd5b5060010190565b634e487b7160e01b600052603260045260246000fd5b634e487b7160e01b600052604160045260246000fd5b610429806102b86000396000f3fe608060405234801561001057600080fd5b506004361061004c5760003560e01c806332fe7b26146100515780636c34ce881461008857806373460ba71461009d578063af6d1fe4146100b8575b600080fd5b61006c7360ae616a2155ee3d9a68541ba4544862310933d481565b6040516001600160a01b03909116815260200160405180910390f35b61009b61009636600461032b565b6100cb565b005b61006c732f6f07cdcf3588944bf4c42ac74ff24bf56e759081565b61006c6100c6366004610312565b6101fa565b6040516323b872dd60e01b815233600482015230602482015260448101839052732f6f07cdcf3588944bf4c42ac74ff24bf56e7590906323b872dd90606401602060405180830381600087803b15801561012457600080fd5b505af1158015610138573d6000803e3d6000fd5b505050506040513d601f19601f8201168201806040525081019061015c91906102e9565b506040516338ed173960e01b81527360ae616a2155ee3d9a68541ba4544862310933d4906338ed17399061019f9085906000908190879060001990600401610367565b600060405180830381600087803b1580156101b957600080fd5b505af11580156101cd573d6000803e3d6000fd5b505050506040513d6000823e601f3d908101601f191682016040526101f59190810190610224565b505050565b6000818154811061020a57600080fd5b6000918252602090912001546001600160a01b0316905081565b6000602080838503121561023757600080fd5b825167ffffffffffffffff8082111561024f57600080fd5b818501915085601f83011261026357600080fd5b815181811115610275576102756103dd565b8060051b604051601f19603f8301168101818110858211171561029a5761029a6103dd565b604052828152858101935084860182860187018a10156102b957600080fd5b600095505b838610156102dc5780518552600195909501949386019386016102be565b5098975050505050505050565b6000602082840312156102fb57600080fd5b8151801515811461030b57600080fd5b9392505050565b60006020828403121561032457600080fd5b5035919050565b6000806040838503121561033e57600080fd5b8235915060208301356001600160a01b038116811461035c57600080fd5b809150509250929050565b600060a082018783526020878185015260a0604085015281875480845260c0860191508860005282600020935060005b818110156103bc5784546001600160a01b031683526001948501949284019201610397565b50506001600160a01b03969096166060850152505050608001529392505050565b634e487b7160e01b600052604160045260246000fdfea2646970667358221220e093f1d09bcabb1902cb4a64d83b281ff0d00e0742cad10c43387ddf4b36ba8164736f6c63430008070033",
  "devdoc": {
    "kind": "dev",
    "methods": {},
    "version": 1
  },
  "userdoc": {
    "kind": "user",
    "methods": {},
    "version": 1
  },
  "storageLayout": {
    "storage": [
      {
        "astId": 11352,
        "contract": "contracts/strategies/stargate/AvalancheStargateSwapperV1.sol:AvalancheStargateSwapperV1",
        "label": "path",
        "offset": 0,
        "slot": "0",
        "type": "t_array(t_address)dyn_storage"
      }
    ],
    "types": {
      "t_address": {
        "encoding": "inplace",
        "label": "address",
        "numberOfBytes": "20"
      },
      "t_array(t_address)dyn_storage": {
        "base": "t_address",
        "encoding": "dynamic_array",
        "label": "address[]",
        "numberOfBytes": "32"
      }
    }
  }
}