{
  "address": "0xE8D68266e7Cb6A4c7c8e230993FC42634C0e4770",
  "abi": [
    {
      "inputs": [
        {
          "internalType": "address",
          "name": "_strategyToken",
          "type": "address"
        },
        {
          "internalType": "address",
          "name": "_bentoBox",
          "type": "address"
        },
        {
          "internalType": "address",
          "name": "_factory",
          "type": "address"
        },
        {
          "internalType": "address",
          "name": "_strategyExecutor",
          "type": "address"
        },
        {
          "internalType": "contract IMasterChef",
          "name": "_masterchef",
          "type": "address"
        },
        {
          "internalType": "uint256",
          "name": "_pid",
          "type": "uint256"
        },
        {
          "internalType": "contract ISushiSwap",
          "name": "_router",
          "type": "address"
        },
        {
          "internalType": "bytes32",
          "name": "_pairCodeHash",
          "type": "bytes32"
        }
      ],
      "stateMutability": "nonpayable",
      "type": "constructor"
    },
    {
      "inputs": [
        {
          "internalType": "address",
          "name": "token",
          "type": "address"
        }
      ],
      "name": "InsupportedToken",
      "type": "error"
    },
    {
      "inputs": [],
      "name": "InvalidFeePercent",
      "type": "error"
    },
    {
      "anonymous": false,
      "inputs": [
        {
          "indexed": false,
          "internalType": "uint256",
          "name": "previousFee",
          "type": "uint256"
        },
        {
          "indexed": false,
          "internalType": "uint256",
          "name": "newFee",
          "type": "uint256"
        },
        {
          "indexed": false,
          "internalType": "address",
          "name": "previousFeeCollector",
          "type": "address"
        },
        {
          "indexed": false,
          "internalType": "address",
          "name": "newFeeCollector",
          "type": "address"
        }
      ],
      "name": "FeeChanged",
      "type": "event"
    },
    {
      "anonymous": false,
      "inputs": [
        {
          "indexed": true,
          "internalType": "address",
          "name": "server",
          "type": "address"
        },
        {
          "indexed": true,
          "internalType": "address",
          "name": "token0",
          "type": "address"
        },
        {
          "indexed": true,
          "internalType": "address",
          "name": "token1",
          "type": "address"
        },
        {
          "indexed": false,
          "internalType": "uint256",
          "name": "amount0",
          "type": "uint256"
        },
        {
          "indexed": false,
          "internalType": "uint256",
          "name": "amount1",
          "type": "uint256"
        }
      ],
      "name": "LogConvert",
      "type": "event"
    },
    {
      "anonymous": false,
      "inputs": [
        {
          "indexed": true,
          "internalType": "address",
          "name": "executor",
          "type": "address"
        },
        {
          "indexed": false,
          "internalType": "bool",
          "name": "allowed",
          "type": "bool"
        }
      ],
      "name": "LogSetStrategyExecutor",
      "type": "event"
    },
    {
      "anonymous": false,
      "inputs": [
        {
          "indexed": false,
          "internalType": "uint256",
          "name": "total",
          "type": "uint256"
        },
        {
          "indexed": false,
          "internalType": "uint256",
          "name": "strategyAmount",
          "type": "uint256"
        },
        {
          "indexed": false,
          "internalType": "uint256",
          "name": "feeAmount",
          "type": "uint256"
        }
      ],
      "name": "LpMinted",
      "type": "event"
    },
    {
      "anonymous": false,
      "inputs": [
        {
          "indexed": true,
          "internalType": "address",
          "name": "previousOwner",
          "type": "address"
        },
        {
          "indexed": true,
          "internalType": "address",
          "name": "newOwner",
          "type": "address"
        }
      ],
      "name": "OwnershipTransferred",
      "type": "event"
    },
    {
      "anonymous": false,
      "inputs": [
        {
          "indexed": false,
          "internalType": "address",
          "name": "token",
          "type": "address"
        },
        {
          "indexed": false,
          "internalType": "bool",
          "name": "enabled",
          "type": "bool"
        }
      ],
      "name": "RewardTokenUpdated",
      "type": "event"
    },
    {
      "inputs": [
        {
          "internalType": "address",
          "name": "to",
          "type": "address"
        },
        {
          "internalType": "uint256",
          "name": "value",
          "type": "uint256"
        },
        {
          "internalType": "bytes",
          "name": "data",
          "type": "bytes"
        }
      ],
      "name": "afterExit",
      "outputs": [
        {
          "internalType": "bool",
          "name": "success",
          "type": "bool"
        }
      ],
      "stateMutability": "nonpayable",
      "type": "function"
    },
    {
      "inputs": [],
      "name": "bentoBox",
      "outputs": [
        {
          "internalType": "address",
          "name": "",
          "type": "address"
        }
      ],
      "stateMutability": "view",
      "type": "function"
    },
    {
      "inputs": [],
      "name": "bridgeToken",
      "outputs": [
        {
          "internalType": "address",
          "name": "",
          "type": "address"
        }
      ],
      "stateMutability": "view",
      "type": "function"
    },
    {
      "inputs": [
        {
          "internalType": "uint256",
          "name": "balance",
          "type": "uint256"
        }
      ],
      "name": "exit",
      "outputs": [
        {
          "internalType": "int256",
          "name": "amountAdded",
          "type": "int256"
        }
      ],
      "stateMutability": "nonpayable",
      "type": "function"
    },
    {
      "inputs": [],
      "name": "exited",
      "outputs": [
        {
          "internalType": "bool",
          "name": "",
          "type": "bool"
        }
      ],
      "stateMutability": "view",
      "type": "function"
    },
    {
      "inputs": [],
      "name": "factory",
      "outputs": [
        {
          "internalType": "address",
          "name": "",
          "type": "address"
        }
      ],
      "stateMutability": "view",
      "type": "function"
    },
    {
      "inputs": [],
      "name": "feeCollector",
      "outputs": [
        {
          "internalType": "address",
          "name": "",
          "type": "address"
        }
      ],
      "stateMutability": "view",
      "type": "function"
    },
    {
      "inputs": [],
      "name": "feePercent",
      "outputs": [
        {
          "internalType": "uint8",
          "name": "",
          "type": "uint8"
        }
      ],
      "stateMutability": "view",
      "type": "function"
    },
    {
      "inputs": [
        {
          "internalType": "uint256",
          "name": "balance",
          "type": "uint256"
        },
        {
          "internalType": "address",
          "name": "sender",
          "type": "address"
        }
      ],
      "name": "harvest",
      "outputs": [
        {
          "internalType": "int256",
          "name": "",
          "type": "int256"
        }
      ],
      "stateMutability": "nonpayable",
      "type": "function"
    },
    {
      "inputs": [],
      "name": "masterchef",
      "outputs": [
        {
          "internalType": "contract IMasterChef",
          "name": "",
          "type": "address"
        }
      ],
      "stateMutability": "view",
      "type": "function"
    },
    {
      "inputs": [],
      "name": "maxBentoBoxBalance",
      "outputs": [
        {
          "internalType": "uint256",
          "name": "",
          "type": "uint256"
        }
      ],
      "stateMutability": "view",
      "type": "function"
    },
    {
      "inputs": [],
      "name": "owner",
      "outputs": [
        {
          "internalType": "address",
          "name": "",
          "type": "address"
        }
      ],
      "stateMutability": "view",
      "type": "function"
    },
    {
      "inputs": [],
      "name": "pid",
      "outputs": [
        {
          "internalType": "uint256",
          "name": "",
          "type": "uint256"
        }
      ],
      "stateMutability": "view",
      "type": "function"
    },
    {
      "inputs": [],
      "name": "renounceOwnership",
      "outputs": [],
      "stateMutability": "nonpayable",
      "type": "function"
    },
    {
      "inputs": [
        {
          "internalType": "address",
          "name": "",
          "type": "address"
        }
      ],
      "name": "rewardTokensInfo",
      "outputs": [
        {
          "internalType": "bool",
          "name": "enabled",
          "type": "bool"
        },
        {
          "internalType": "bool",
          "name": "usePairToken0",
          "type": "bool"
        },
        {
          "internalType": "address",
          "name": "bridgeToken",
          "type": "address"
        }
      ],
      "stateMutability": "view",
      "type": "function"
    },
    {
      "inputs": [],
      "name": "router",
      "outputs": [
        {
          "internalType": "contract ISushiSwap",
          "name": "",
          "type": "address"
        }
      ],
      "stateMutability": "view",
      "type": "function"
    },
    {
      "inputs": [
        {
          "internalType": "uint256",
          "name": "maxBalance",
          "type": "uint256"
        },
        {
          "internalType": "bool",
          "name": "rebalance",
          "type": "bool"
        },
        {
          "internalType": "uint256",
          "name": "maxChangeAmount",
          "type": "uint256"
        },
        {
          "internalType": "bool",
          "name": "harvestRewards",
          "type": "bool"
        }
      ],
      "name": "safeHarvest",
      "outputs": [],
      "stateMutability": "nonpayable",
      "type": "function"
    },
    {
      "inputs": [
        {
          "internalType": "address",
          "name": "_feeCollector",
          "type": "address"
        },
        {
          "internalType": "uint8",
          "name": "_feePercent",
          "type": "uint8"
        }
      ],
      "name": "setFeeParameters",
      "outputs": [],
      "stateMutability": "nonpayable",
      "type": "function"
    },
    {
      "inputs": [
        {
          "internalType": "address",
          "name": "token",
          "type": "address"
        },
        {
          "internalType": "address",
          "name": "bridgeToken",
          "type": "address"
        },
        {
          "internalType": "bool",
          "name": "usePairToken0",
          "type": "bool"
        },
        {
          "internalType": "bool",
          "name": "enabled",
          "type": "bool"
        }
      ],
      "name": "setRewardTokenInfo",
      "outputs": [],
      "stateMutability": "nonpayable",
      "type": "function"
    },
    {
      "inputs": [
        {
          "internalType": "address",
          "name": "executor",
          "type": "address"
        },
        {
          "internalType": "bool",
          "name": "value",
          "type": "bool"
        }
      ],
      "name": "setStrategyExecutor",
      "outputs": [],
      "stateMutability": "nonpayable",
      "type": "function"
    },
    {
      "inputs": [
        {
          "internalType": "uint256",
          "name": "amount",
          "type": "uint256"
        }
      ],
      "name": "skim",
      "outputs": [],
      "stateMutability": "nonpayable",
      "type": "function"
    },
    {
      "inputs": [
        {
          "internalType": "address",
          "name": "",
          "type": "address"
        }
      ],
      "name": "strategyExecutors",
      "outputs": [
        {
          "internalType": "bool",
          "name": "",
          "type": "bool"
        }
      ],
      "stateMutability": "view",
      "type": "function"
    },
    {
      "inputs": [],
      "name": "strategyToken",
      "outputs": [
        {
          "internalType": "address",
          "name": "",
          "type": "address"
        }
      ],
      "stateMutability": "view",
      "type": "function"
    },
    {
      "inputs": [
        {
          "internalType": "uint256",
          "name": "amountOutMin",
          "type": "uint256"
        },
        {
          "internalType": "address",
          "name": "inputToken",
          "type": "address"
        }
      ],
      "name": "swapExactTokensForUnderlying",
      "outputs": [
        {
          "internalType": "uint256",
          "name": "amountOut",
          "type": "uint256"
        }
      ],
      "stateMutability": "nonpayable",
      "type": "function"
    },
    {
      "inputs": [
        {
          "internalType": "uint256",
          "name": "amountOutMin",
          "type": "uint256"
        },
        {
          "internalType": "address",
          "name": "rewardToken",
          "type": "address"
        }
      ],
      "name": "swapToLP",
      "outputs": [
        {
          "internalType": "uint256",
          "name": "amountOut",
          "type": "uint256"
        }
      ],
      "stateMutability": "nonpayable",
      "type": "function"
    },
    {
      "inputs": [],
      "name": "token0",
      "outputs": [
        {
          "internalType": "address",
          "name": "",
          "type": "address"
        }
      ],
      "stateMutability": "view",
      "type": "function"
    },
    {
      "inputs": [],
      "name": "token1",
      "outputs": [
        {
          "internalType": "address",
          "name": "",
          "type": "address"
        }
      ],
      "stateMutability": "view",
      "type": "function"
    },
    {
      "inputs": [
        {
          "internalType": "address",
          "name": "newOwner",
          "type": "address"
        }
      ],
      "name": "transferOwnership",
      "outputs": [],
      "stateMutability": "nonpayable",
      "type": "function"
    },
    {
      "inputs": [
        {
          "internalType": "uint256",
          "name": "amount",
          "type": "uint256"
        }
      ],
      "name": "withdraw",
      "outputs": [
        {
          "internalType": "uint256",
          "name": "actualAmount",
          "type": "uint256"
        }
      ],
      "stateMutability": "nonpayable",
      "type": "function"
    }
  ],
  "transactionHash": "0xde57eb2ba57cfd3a204bfc652865507a23c461c43c81704887c88a8d774b989b",
  "args": [
    "0x4b946c91C2B1a7d7C40FB3C130CdfBaf8389094d",
    "0xD825d06061fdc0585e4373F0A3F01a8C02b0e6A4",
    "0x9Ad6C38BE94206cA50bb0d90783181662f0Cfa10",
    "0xfddfE525054efaAD204600d00CA86ADb1Cc2ea8a",
    "0x188bED1968b795d5c9022F6a0bb5931Ac4c18F00",
    51,
    "0x60aE616a2155Ee3d9A68541Ba4544862310933d4",
    "0x0bbca9af0511ad1a1da383135cf3a8d2ac620e549ef9f6ae3a4c33c2fed0af91"
  ],
  "solcInputHash": "85088bd2b6de3ae166ba7a46e4da5855",
  "bytecode": "0x6101c06040523480156200001257600080fd5b5060405162003ee738038062003ee7833981016040819052620000359162000407565b878787600088856200004733620002be565b6001600160601b0319606087811b821660805286811b821660a05285811b821660c05284901b1660e0526101008190526001600160a01b03821615620000e2576001600160a01b038216600081815260026020908152604091829020805460ff1916600190811790915591519182527fb08a78f53a7fe017d5ca8c8fcdbf06ffa2c31f2ab668378a17700d9fc558717e910160405180910390a25b5050506001600160601b0319606088811b82166101405261016088905286901b166101205250620001139150503390565b600480546001600160a01b0319166001600160a01b0392831617815560408051630dfe168160e01b815290516000938c1692630dfe168192808201926020929091829003018186803b1580156200016957600080fd5b505afa1580156200017e573d6000803e3d6000fd5b505050506040513d601f19601f82011682018060405250810190620001a49190620003e0565b90506000896001600160a01b031663d21220a76040518163ffffffff1660e01b815260040160206040518083038186803b158015620001e257600080fd5b505afa158015620001f7573d6000803e3d6000fd5b505050506040513d601f19601f820116820180604052508101906200021d9190620003e0565b90506200024684600019846001600160a01b03166200030e60201b62001e97179092919060201c565b6200026d84600019836001600160a01b03166200030e60201b62001e97179092919060201c565b62000294866000198c6001600160a01b03166200030e60201b62001e97179092919060201c565b6001600160601b0319606092831b811661018052911b166101a05250620004c99650505050505050565b600080546001600160a01b038381166001600160a01b0319831681178455604051919092169283917f8be0079c531659141344cd1fd0a4f28419497f9722a3daafe3b4186f6b6457e09190a35050565b600060405163095ea7b360e01b81526001600160a01b03841660048201528260248201526000806044836000895af191506200034c90508162000394565b6200038e5760405162461bcd60e51b815260206004820152600e60248201526d1054141493d59157d1905253115160921b604482015260640160405180910390fd5b50505050565b60003d82620003a757806000803e806000fd5b8060208114620003c2578015620003d45760009250620003d9565b816000803e60005115159250620003d9565b600192505b5050919050565b600060208284031215620003f357600080fd5b81516200040081620004b0565b9392505050565b600080600080600080600080610100898b0312156200042557600080fd5b88516200043281620004b0565b60208a01519098506200044581620004b0565b60408a01519097506200045881620004b0565b60608a01519096506200046b81620004b0565b60808a01519095506200047e81620004b0565b60a08a015160c08b015191955093506200049881620004b0565b8092505060e089015190509295985092959890939650565b6001600160a01b0381168114620004c657600080fd5b50565b60805160601c60a05160601c60c05160601c60e05160601c610100516101205160601c6101405160601c610160516101805160601c6101a05160601c6137e6620007016000396000818161044a0152818161060c015281816107af0152818161080801528181610a820152610b130152600081816101d9015281816106320152818161075b0152818161085c0152610a600152600081816104a00152818161269c0152818161279e015281816128420152612905015260008181610528015281816126cc015281816127cb0152818161286f015261292b0152600081816105010152610a360152600081816108d90152818161195301528181611a600152818161212d01526125c00152600081816104da0152818161171e015281816117dc01528181611f190152611fd6015260008181610423015281816108b6015281816116260152818161193001528181611a090152818161210a015281816121840152818161255a015261259d01526000818161033701528181610e5b01528181610eed0152818161106b015281816110e5015281816111a7015281816112b50152818161149b015281816115b70152611bdb01526000818161036601528181610667015281816109040152818161099401528181610c6301528181610d7e01528181610ec501528181610fb201528181611049015281816110c30152818161120201528181611293015281816114f8015281816115950152818161169c0152818161183101528181611af50152611ba401526137e66000f3fe608060405234801561001057600080fd5b50600436106101cf5760003560e01c80637fd6f15c11610104578063d29001e0116100a2578063f2fde38b11610071578063f2fde38b146104c2578063f4734b0c146104d5578063f887ea40146104fc578063fb1db2781461052357600080fd5b8063d29001e01461046c578063d9253c2d1461047f578063e8bd73a514610492578063f10684541461049b57600080fd5b8063ba6275ab116100de578063ba6275ab146103f8578063c415b95c1461040b578063c45a01551461041e578063d21220a71461044557600080fd5b80637fd6f15c146103ae5780638da5cb5b146103d4578063a7edd48c146103e557600080fd5b806363b98ac811610171578063715018a61161014b578063715018a614610359578063747efea11461036157806374ceb267146103885780637f8661a11461039b57600080fd5b806363b98ac81461030a5780636939aaf51461031f5780636b2ace871461033257600080fd5b80632e1a7d4d116101ad5780632e1a7d4d1461024c5780635066ebdd1461025f5780635b7b067d146102925780635ce6c327146102f657600080fd5b80630dfe1681146101d457806311d480011461021857806318fccc7614610239575b600080fd5b6101fb7f000000000000000000000000000000000000000000000000000000000000000081565b6040516001600160a01b0390911681526020015b60405180910390f35b61022b610226366004613405565b61054a565b60405190815260200161020f565b61022b610247366004613405565b610df9565b61022b61025a3660046133d3565b611145565b61028261026d366004613180565b60026020526000908152604090205460ff1681565b604051901515815260200161020f565b6102d06102a0366004613180565b60036020526000908152604090205460ff808216916101008104909116906201000090046001600160a01b031683565b60408051931515845291151560208401526001600160a01b03169082015260600161020f565b60005461028290600160a01b900460ff1681565b61031d6103183660046132d9565b6112df565b005b61031d61032d3660046133d3565b6113c3565b6101fb7f000000000000000000000000000000000000000000000000000000000000000081565b61031d6113cf565b6101fb7f000000000000000000000000000000000000000000000000000000000000000081565b61031d6103963660046131f3565b611405565b61022b6103a93660046133d3565b61148e565b6004546103c290600160a01b900460ff1681565b60405160ff909116815260200161020f565b6000546001600160a01b03166101fb565b61022b6103f3366004613405565b6115f5565b61031d610406366004613431565b611b52565b6004546101fb906001600160a01b031681565b6101fb7f000000000000000000000000000000000000000000000000000000000000000081565b6101fb7f000000000000000000000000000000000000000000000000000000000000000081565b61031d61047a36600461319b565b611c3d565b61028261048d36600461322a565b611d15565b61022b60015481565b61022b7f000000000000000000000000000000000000000000000000000000000000000081565b61031d6104d0366004613180565b611dff565b6101fb7f000000000000000000000000000000000000000000000000000000000000000081565b6101fb7f000000000000000000000000000000000000000000000000000000000000000081565b6101fb7f000000000000000000000000000000000000000000000000000000000000000081565b3360009081526002602052604081205460ff166105825760405162461bcd60e51b815260040161057990613563565b60405180910390fd5b6001600160a01b038083166000908152600360209081526040918290208251606081018452905460ff80821615158084526101008304909116151593830193909352620100009004909316918301919091526105ff576040516001622ac84560e11b031981526001600160a01b0384166004820152602401610579565b60008160200151610630577f0000000000000000000000000000000000000000000000000000000000000000610652565b7f00000000000000000000000000000000000000000000000000000000000000005b905060006106608583611f15565b90506000807f00000000000000000000000000000000000000000000000000000000000000006001600160a01b0316630902f1ac6040518163ffffffff1660e01b815260040160606040518083038186803b1580156106be57600080fd5b505afa1580156106d2573d6000803e3d6000fd5b505050506040513d601f19601f820116820180604052508101906106f69190613383565b506001600160701b031691506001600160701b03169150600061072986602001516107215782610723565b835b856121f9565b6040805160028082526060820183529293506000929091602083019080368337019050509050866020015115610806577f00000000000000000000000000000000000000000000000000000000000000008160008151811061078d5761078d613776565b60200260200101906001600160a01b031690816001600160a01b0316815250507f0000000000000000000000000000000000000000000000000000000000000000816001815181106107e1576107e1613776565b60200260200101906001600160a01b031690816001600160a01b0316815250506108af565b7f00000000000000000000000000000000000000000000000000000000000000008160008151811061083a5761083a613776565b60200260200101906001600160a01b031690816001600160a01b0316815250507f00000000000000000000000000000000000000000000000000000000000000008160018151811061088e5761088e613776565b60200260200101906001600160a01b031690816001600160a01b0316815250505b60006108fd7f000000000000000000000000000000000000000000000000000000000000000084847f000000000000000000000000000000000000000000000000000000000000000061225b565b90506109717f00000000000000000000000000000000000000000000000000000000000000008260008151811061093657610936613776565b60200260200101518460008151811061095157610951613776565b60200260200101516001600160a01b03166123e89092919063ffffffff16565b61097c818330612461565b6040516370a0823160e01b81523060048201526000907f00000000000000000000000000000000000000000000000000000000000000006001600160a01b0316906370a082319060240160206040518083038186803b1580156109de57600080fd5b505afa1580156109f2573d6000803e3d6000fd5b505050506040513d601f19601f82011682018060405250810190610a1691906133ec565b6040516370a0823160e01b81523060048201529091506001600160a01b037f000000000000000000000000000000000000000000000000000000000000000081169163e8e33700917f0000000000000000000000000000000000000000000000000000000000000000917f0000000000000000000000000000000000000000000000000000000000000000918316906370a082319060240160206040518083038186803b158015610ac657600080fd5b505afa158015610ada573d6000803e3d6000fd5b505050506040513d601f19601f82011682018060405250810190610afe91906133ec565b6040516370a0823160e01b81523060048201527f00000000000000000000000000000000000000000000000000000000000000006001600160a01b0316906370a082319060240160206040518083038186803b158015610b5d57600080fd5b505afa158015610b71573d6000803e3d6000fd5b505050506040513d601f19601f82011682018060405250810190610b9591906133ec565b6040516001600160e01b031960e087901b1681526001600160a01b0394851660048201529390921660248401526044830152606482015260016084820181905260a48201523060c482015260001960e482015261010401606060405180830381600087803b158015610c0657600080fd5b505af1158015610c1a573d6000803e3d6000fd5b505050506040513d601f19601f82011682018060405250810190610c3e9190613470565b50506040516370a0823160e01b81523060048201526000915082906001600160a01b037f000000000000000000000000000000000000000000000000000000000000000016906370a082319060240160206040518083038186803b158015610ca557600080fd5b505afa158015610cb9573d6000803e3d6000fd5b505050506040513d601f19601f82011682018060405250810190610cdd91906133ec565b610ce791906136e5565b90508c811015610d315760405162461bcd60e51b8152602060048201526015602482015274125b9cdd59999a58da595b9d105b5bdd5b9d13dd5d605a1b6044820152606401610579565b600454600090606490610d4e90600160a01b900460ff1684613687565b610d589190613665565b90508015610da757610d6a81836136e5565b600454909c50610da7906001600160a01b037f000000000000000000000000000000000000000000000000000000000000000081169116836123e8565b60408051838152602081018e90529081018290527ffac4ceeb73d90e5d855cf54c2fc52267e49df26636cde8d7ab271952cd081b779060600160405180910390a1505050505050505050505092915050565b60008054600160a01b900460ff1615610e505760405162461bcd60e51b815260206004820152601960248201527810995b9d1bd09bde0814dd1c985d1959de4e88195e1a5d1959603a1b6044820152606401610579565b336001600160a01b037f00000000000000000000000000000000000000000000000000000000000000001614610e985760405162461bcd60e51b8152600401610579906134f9565b6001600160a01b03821630148015610f735750600154604051634ffe34db60e01b81526001600160a01b037f0000000000000000000000000000000000000000000000000000000000000000811660048301527f00000000000000000000000000000000000000000000000000000000000000001690634ffe34db90602401604080518083038186803b158015610f2e57600080fd5b505afa158015610f42573d6000803e3d6000fd5b505050506040513d601f19601f82011682018060405250810190610f669190613328565b516001600160801b031611155b8015610f7f5750600083115b1561113b576000610f8f8461268d565b6040516370a0823160e01b81523060048201529091506000906001600160a01b037f000000000000000000000000000000000000000000000000000000000000000016906370a082319060240160206040518083038186803b158015610ff457600080fd5b505afa158015611008573d6000803e3d6000fd5b505050506040513d601f19601f8201168201806040525081019061102c91906133ec565b905060008212611099578015611090576110906001600160a01b037f0000000000000000000000000000000000000000000000000000000000000000167f000000000000000000000000000000000000000000000000000000000000000083612738565b915061113f9050565b80156111335760006110ab828461360c565b905060008113156111205761110a6001600160a01b037f0000000000000000000000000000000000000000000000000000000000000000167f000000000000000000000000000000000000000000000000000000000000000083612738565b61111b61111684613743565b61278f565b611129565b6111298261278f565b925061113f915050565b50905061113f565b5060005b92915050565b60008054600160a01b900460ff161561119c5760405162461bcd60e51b815260206004820152601960248201527810995b9d1bd09bde0814dd1c985d1959de4e88195e1a5d1959603a1b6044820152606401610579565b336001600160a01b037f000000000000000000000000000000000000000000000000000000000000000016146111e45760405162461bcd60e51b8152600401610579906134f9565b6111ed82612833565b6040516370a0823160e01b81523060048201527f00000000000000000000000000000000000000000000000000000000000000006001600160a01b0316906370a082319060240160206040518083038186803b15801561124c57600080fd5b505afa158015611260573d6000803e3d6000fd5b505050506040513d601f19601f8201168201806040525081019061128491906133ec565b90506112da6001600160a01b037f0000000000000000000000000000000000000000000000000000000000000000167f000000000000000000000000000000000000000000000000000000000000000083612738565b919050565b6000546001600160a01b031633146113095760405162461bcd60e51b81526004016105799061352e565b6004546064600160a01b90910460ff16111561133857604051638a81d3b360e01b815260040160405180910390fd5b600480546001600160a01b038481166001600160a81b031983168117600160a01b60ff878116828102939093179096556040805191860490961680825260208201929092529290931693820184905260608201529091907fdfd60c2be7533132f69504aa2d43b7ed0a82a1f1d3ca460fa347b43690195241906080015b60405180910390a150505050565b6113cc8161278f565b50565b6000546001600160a01b031633146113f95760405162461bcd60e51b81526004016105799061352e565b61140360006128a6565b565b6000546001600160a01b0316331461142f5760405162461bcd60e51b81526004016105799061352e565b6001600160a01b038216600081815260026020908152604091829020805460ff191685151590811790915591519182527fb08a78f53a7fe017d5ca8c8fcdbf06ffa2c31f2ab668378a17700d9fc558717e910160405180910390a25050565b6000336001600160a01b037f000000000000000000000000000000000000000000000000000000000000000016146114d85760405162461bcd60e51b8152600401610579906134f9565b6114e06128f6565b6040516370a0823160e01b81523060048201526000907f00000000000000000000000000000000000000000000000000000000000000006001600160a01b0316906370a082319060240160206040518083038186803b15801561154257600080fd5b505afa158015611556573d6000803e3d6000fd5b505050506040513d601f19601f8201168201806040525081019061157a91906133ec565b905061158683826136a6565b91506115dc6001600160a01b037f0000000000000000000000000000000000000000000000000000000000000000167f000000000000000000000000000000000000000000000000000000000000000083612738565b506000805460ff60a01b1916600160a01b179055919050565b3360009081526002602052604081205460ff166116245760405162461bcd60e51b815260040161057990613563565b7f00000000000000000000000000000000000000000000000000000000000000006001600160a01b031661169a5760405162461bcd60e51b815260206004820152601e60248201527f42656e746f426f782053747261746567793a2063616e6e6f74207377617000006044820152606401610579565b7f00000000000000000000000000000000000000000000000000000000000000006001600160a01b0316826001600160a01b0316141561171c5760405162461bcd60e51b815260206004820152601f60248201527f42656e746f426f782053747261746567793a20696e76616c69642073776170006044820152606401610579565b7f00000000000000000000000000000000000000000000000000000000000000006001600160a01b03161515600081611756576002611759565b60035b60ff1667ffffffffffffffff8111156117745761177461378c565b60405190808252806020026020018201604052801561179d578160200160208202803683370190505b50905083816000815181106117b4576117b4613776565b60200260200101906001600160a01b031690816001600160a01b031681525050811561182f577f00000000000000000000000000000000000000000000000000000000000000008160018151811061180e5761180e613776565b60200260200101906001600160a01b031690816001600160a01b0316815250505b7f0000000000000000000000000000000000000000000000000000000000000000816001835161185f91906136e5565b8151811061186f5761186f613776565b60200260200101906001600160a01b031690816001600160a01b0316815250506000816000815181106118a4576118a4613776565b60209081029190910101516040516370a0823160e01b81523060048201526001600160a01b03909116906370a082319060240160206040518083038186803b1580156118ef57600080fd5b505afa158015611903573d6000803e3d6000fd5b505050506040513d601f19601f8201168201806040525081019061192791906133ec565b905060006119777f000000000000000000000000000000000000000000000000000000000000000083857f000000000000000000000000000000000000000000000000000000000000000061225b565b9050806001825161198891906136e5565b8151811061199857611998613776565b6020026020010151945086851015611a015760405162461bcd60e51b815260206004820152602660248201527f42656e746f426f782053747261746567793a20696e73756666696369656e74206044820152651bdd5d1c1d5d60d21b6064820152608401610579565b611ad2611a847f000000000000000000000000000000000000000000000000000000000000000085600081518110611a3b57611a3b613776565b602002602001015186600181518110611a5657611a56613776565b60200260200101517f000000000000000000000000000000000000000000000000000000000000000061298b565b82600081518110611a9757611a97613776565b602002602001015185600081518110611ab257611ab2613776565b60200260200101516001600160a01b03166127389092919063ffffffff16565b611add818430612461565b60408051838152602081018790526001600160a01b037f00000000000000000000000000000000000000000000000000000000000000008116929089169133917f3b644720db133e4e05b302a56bdb46867109debe30c44b4f25566b3c41ed627b910160405180910390a45050505092915050565b3360009081526002602052604090205460ff16611b815760405162461bcd60e51b815260040161057990613563565b8315611b8d5760018490555b6040516366c6bb0b60e01b81526001600160a01b037f0000000000000000000000000000000000000000000000000000000000000000811660048301528415156024830152604482018490527f000000000000000000000000000000000000000000000000000000000000000016906366c6bb0b90606401600060405180830381600087803b158015611c1f57600080fd5b505af1158015611c33573d6000803e3d6000fd5b5050505050505050565b6000546001600160a01b03163314611c675760405162461bcd60e51b81526004016105799061352e565b6040805160608101825282151580825284151560208084019182526001600160a01b038881168587019081528a8216600081815260038552889020965187549551925161ffff1990961690151561ff00191617610100921515929092029190911762010000600160b01b031916620100009490921693909302179093558351908152918201527f0d43fc779979c6ffc128014ccef1c03c1f28f30b87afe876227d86a6868376d091016113b5565b600080546001600160a01b03163314611d405760405162461bcd60e51b81526004016105799061352e565b600054600160a01b900460ff16611d995760405162461bcd60e51b815260206004820152601d60248201527f42656e746f426f782053747261746567793a206e6f74206578697465640000006044820152606401610579565b836001600160a01b03168383604051611db291906134ca565b60006040518083038185875af1925050503d8060008114611def576040519150601f19603f3d011682016040523d82523d6000602084013e611df4565b606091505b509095945050505050565b6000546001600160a01b03163314611e295760405162461bcd60e51b81526004016105799061352e565b6001600160a01b038116611e8e5760405162461bcd60e51b815260206004820152602660248201527f4f776e61626c653a206e6577206f776e657220697320746865207a65726f206160448201526564647265737360d01b6064820152608401610579565b6113cc816128a6565b600060405163095ea7b360e01b81526001600160a01b03841660048201528260248201526000806044836000895af1915050611ed281612a49565b611f0f5760405162461bcd60e51b815260206004820152600e60248201526d1054141493d59157d1905253115160921b6044820152606401610579565b50505050565b60007f00000000000000000000000000000000000000000000000000000000000000006001600160a01b031615158181611f50576002611f53565b60035b60ff1667ffffffffffffffff811115611f6e57611f6e61378c565b604051908082528060200260200182016040528015611f97578160200160208202803683370190505b5090508481600081518110611fae57611fae613776565b60200260200101906001600160a01b031690816001600160a01b0316815250508115612029577f00000000000000000000000000000000000000000000000000000000000000008160018151811061200857612008613776565b60200260200101906001600160a01b031690816001600160a01b0316815250505b83816001835161203991906136e5565b8151811061204957612049613776565b60200260200101906001600160a01b031690816001600160a01b03168152505060008160008151811061207e5761207e613776565b60209081029190910101516040516370a0823160e01b81523060048201526001600160a01b03909116906370a082319060240160206040518083038186803b1580156120c957600080fd5b505afa1580156120dd573d6000803e3d6000fd5b505050506040513d601f19601f8201168201806040525081019061210191906133ec565b905060006121517f000000000000000000000000000000000000000000000000000000000000000083857f000000000000000000000000000000000000000000000000000000000000000061225b565b9050806001825161216291906136e5565b8151811061217257612172613776565b602002602001015194506121e46121b67f000000000000000000000000000000000000000000000000000000000000000085600081518110611a3b57611a3b613776565b826000815181106121c9576121c9613776565b60200260200101518560008151811061095157610951613776565b6121ef818430612461565b5050505092915050565b60006107ca61220a846107cd613687565b61224061221a86623cda29613687565b61222786623cda20613687565b612231919061364d565b61223b9087613687565b612a90565b61224a91906136e5565b6122549190613665565b9392505050565b60606002835110156122af5760405162461bcd60e51b815260206004820152601e60248201527f556e697377617056324c6962726172793a20494e56414c49445f5041544800006044820152606401610579565b825167ffffffffffffffff8111156122c9576122c961378c565b6040519080825280602002602001820160405280156122f2578160200160208202803683370190505b509050838160008151811061230957612309613776565b60200260200101818152505060005b6001845161232691906136e5565b8110156123df5760008061237a8887858151811061234657612346613776565b60200260200101518886600161235c919061364d565b8151811061236c5761236c613776565b602002602001015188612c0e565b915091506123a284848151811061239357612393613776565b60200260200101518383612ce9565b846123ae85600161364d565b815181106123be576123be613776565b602002602001018181525050505080806123d790613728565b915050612318565b50949350505050565b600060405163a9059cbb60e01b81526001600160a01b03841660048201528260248201526000806044836000895af191505061242381612a49565b611f0f5760405162461bcd60e51b815260206004820152600f60248201526e1514905394d1915497d19052531151608a1b6044820152606401610579565b60005b6001835161247291906136e5565b811015611f0f5760008084838151811061248e5761248e613776565b6020026020010151858460016124a4919061364d565b815181106124b4576124b4613776565b6020026020010151915091506000816001600160a01b0316836001600160a01b0316106124e157816124e3565b825b90506000876124f386600161364d565b8151811061250357612503613776565b60200260200101519050600080836001600160a01b0316866001600160a01b03161461253157826000612535565b6000835b91509150600060028a5161254991906136e5565b88106125555788612596565b6125967f0000000000000000000000000000000000000000000000000000000000000000878c6125868c600261364d565b81518110611a5657611a56613776565b90506125e47f000000000000000000000000000000000000000000000000000000000000000088887f000000000000000000000000000000000000000000000000000000000000000061298b565b6001600160a01b031663022c0d9f84848460006040519080825280601f01601f191660200182016040528015612621576020820181803683370190505b506040518563ffffffff1660e01b815260040161264194939291906135a4565b600060405180830381600087803b15801561265b57600080fd5b505af115801561266f573d6000803e3d6000fd5b5050505050505050505050808061268590613728565b915050612464565b604051630441a3e760e41b81527f00000000000000000000000000000000000000000000000000000000000000006004820152600060248201819052907f00000000000000000000000000000000000000000000000000000000000000006001600160a01b03169063441a3e7090604401600060405180830381600087803b15801561271857600080fd5b505af115801561272c573d6000803e3d6000fd5b50600095945050505050565b604080516001600160a01b038416602482015260448082018490528251808303909101815260649091019091526020810180516001600160e01b031663a9059cbb60e01b17905261278a908490612e09565b505050565b604051631c57762b60e31b81527f00000000000000000000000000000000000000000000000000000000000000006004820152602481018290527f00000000000000000000000000000000000000000000000000000000000000006001600160a01b03169063e2bbb158906044015b600060405180830381600087803b15801561281857600080fd5b505af115801561282c573d6000803e3d6000fd5b5050505050565b604051630441a3e760e41b81527f00000000000000000000000000000000000000000000000000000000000000006004820152602481018290527f00000000000000000000000000000000000000000000000000000000000000006001600160a01b03169063441a3e70906044016127fe565b600080546001600160a01b038381166001600160a01b0319831681178455604051919092169283917f8be0079c531659141344cd1fd0a4f28419497f9722a3daafe3b4186f6b6457e09190a35050565b604051632989754760e11b81527f000000000000000000000000000000000000000000000000000000000000000060048201527f00000000000000000000000000000000000000000000000000000000000000006001600160a01b031690635312ea8e90602401600060405180830381600087803b15801561297757600080fd5b505af1158015611f0f573d6000803e3d6000fd5b600080600061299a8686612edb565b6040516bffffffffffffffffffffffff19606084811b8216602084015283901b166034820152919350915087906048016040516020818303038152906040528051906020012085604051602001612a26939291906001600160f81b0319815260609390931b6bffffffffffffffffffffffff191660018401526015830191909152603582015260550190565b60408051601f198184030181529190528051602090910120979650505050505050565b60003d82612a5b57806000803e806000fd5b8060208114612a73578015612a845760009250612a89565b816000803e60005115159250612a89565b600192505b5050919050565b600081612a9f57506000919050565b816001600160801b8210612ab85760809190911c9060401b5b680100000000000000008210612ad35760409190911c9060201b5b6401000000008210612aea5760209190911c9060101b5b620100008210612aff5760109190911c9060081b5b6101008210612b135760089190911c9060041b5b60108210612b265760049190911c9060021b5b60088210612b325760011b5b6001612b3e8286613665565b612b48908361364d565b901c90506001612b588286613665565b612b62908361364d565b901c90506001612b728286613665565b612b7c908361364d565b901c90506001612b8c8286613665565b612b96908361364d565b901c90506001612ba68286613665565b612bb0908361364d565b901c90506001612bc08286613665565b612bca908361364d565b901c90506001612bda8286613665565b612be4908361364d565b901c90506000612bf48286613665565b9050808210612c035780612c05565b815b95945050505050565b6000806000612c1d8686612edb565b509050600080612c2f8989898961298b565b6001600160a01b0316630902f1ac6040518163ffffffff1660e01b815260040160606040518083038186803b158015612c6757600080fd5b505afa158015612c7b573d6000803e3d6000fd5b505050506040513d601f19601f82011682018060405250810190612c9f9190613383565b506001600160701b031691506001600160701b03169150826001600160a01b0316886001600160a01b031614612cd6578082612cd9565b81815b909a909950975050505050505050565b6000808411612d4e5760405162461bcd60e51b815260206004820152602b60248201527f556e697377617056324c6962726172793a20494e53554646494349454e545f4960448201526a1394155517d05353d5539560aa1b6064820152608401610579565b600083118015612d5e5750600082115b612dbb5760405162461bcd60e51b815260206004820152602860248201527f556e697377617056324c6962726172793a20494e53554646494349454e545f4c604482015267495155494449545960c01b6064820152608401610579565b6000612dc9856103e5613687565b90506000612dd78483613687565b9050600082612de8876103e8613687565b612df2919061364d565b9050612dfe8183613665565b979650505050505050565b6000612e5e826040518060400160405280602081526020017f5361666545524332303a206c6f772d6c6576656c2063616c6c206661696c6564815250856001600160a01b0316612fd39092919063ffffffff16565b80519091501561278a5780806020019051810190612e7c919061330b565b61278a5760405162461bcd60e51b815260206004820152602a60248201527f5361666545524332303a204552433230206f7065726174696f6e20646964206e6044820152691bdd081cdd58d8d9595960b21b6064820152608401610579565b600080826001600160a01b0316846001600160a01b03161415612f4e5760405162461bcd60e51b815260206004820152602560248201527f556e697377617056324c6962726172793a204944454e544943414c5f41444452604482015264455353455360d81b6064820152608401610579565b826001600160a01b0316846001600160a01b031610612f6e578284612f71565b83835b90925090506001600160a01b038216612fcc5760405162461bcd60e51b815260206004820152601e60248201527f556e697377617056324c6962726172793a205a45524f5f4144445245535300006044820152606401610579565b9250929050565b6060612fe28484600085612fea565b949350505050565b60608247101561304b5760405162461bcd60e51b815260206004820152602660248201527f416464726573733a20696e73756666696369656e742062616c616e636520666f6044820152651c8818d85b1b60d21b6064820152608401610579565b843b6130995760405162461bcd60e51b815260206004820152601d60248201527f416464726573733a2063616c6c20746f206e6f6e2d636f6e74726163740000006044820152606401610579565b600080866001600160a01b031685876040516130b591906134ca565b60006040518083038185875af1925050503d80600081146130f2576040519150601f19603f3d011682016040523d82523d6000602084013e6130f7565b606091505b5091509150612dfe82828660608315613111575081612254565b8251156131215782518084602001fd5b8160405162461bcd60e51b815260040161057991906134e6565b80356001600160a01b03811681146112da57600080fd5b80516001600160701b03811681146112da57600080fd5b80516001600160801b03811681146112da57600080fd5b60006020828403121561319257600080fd5b6122548261313b565b600080600080608085870312156131b157600080fd5b6131ba8561313b565b93506131c86020860161313b565b925060408501356131d8816137a2565b915060608501356131e8816137a2565b939692955090935050565b6000806040838503121561320657600080fd5b61320f8361313b565b9150602083013561321f816137a2565b809150509250929050565b60008060006060848603121561323f57600080fd5b6132488461313b565b92506020808501359250604085013567ffffffffffffffff8082111561326d57600080fd5b818701915087601f83011261328157600080fd5b8135818111156132935761329361378c565b6132a5601f8201601f191685016135db565b915080825288848285010111156132bb57600080fd5b80848401858401376000848284010152508093505050509250925092565b600080604083850312156132ec57600080fd5b6132f58361313b565b9150602083013560ff8116811461321f57600080fd5b60006020828403121561331d57600080fd5b8151612254816137a2565b60006040828403121561333a57600080fd5b6040516040810181811067ffffffffffffffff8211171561335d5761335d61378c565b60405261336983613169565b815261337760208401613169565b60208201529392505050565b60008060006060848603121561339857600080fd5b6133a184613152565b92506133af60208501613152565b9150604084015163ffffffff811681146133c857600080fd5b809150509250925092565b6000602082840312156133e557600080fd5b5035919050565b6000602082840312156133fe57600080fd5b5051919050565b6000806040838503121561341857600080fd5b823591506134286020840161313b565b90509250929050565b6000806000806080858703121561344757600080fd5b843593506020850135613459816137a2565b92506040850135915060608501356131e8816137a2565b60008060006060848603121561348557600080fd5b8351925060208401519150604084015190509250925092565b600081518084526134b68160208601602086016136fc565b601f01601f19169290920160200192915050565b600082516134dc8184602087016136fc565b9190910192915050565b602081526000612254602083018461349e565b6020808252818101527f42656e746f426f782053747261746567793a206f6e6c792042656e746f426f78604082015260600190565b6020808252818101527f4f776e61626c653a2063616c6c6572206973206e6f7420746865206f776e6572604082015260600190565b60208082526021908201527f42656e746f426f782053747261746567793a206f6e6c79204578656375746f726040820152607360f81b606082015260800190565b84815283602082015260018060a01b03831660408201526080606082015260006135d1608083018461349e565b9695505050505050565b604051601f8201601f1916810167ffffffffffffffff811182821017156136045761360461378c565b604052919050565b600080821280156001600160ff1b038490038513161561362e5761362e613760565b600160ff1b839003841281161561364757613647613760565b50500190565b6000821982111561366057613660613760565b500190565b60008261368257634e487b7160e01b600052601260045260246000fd5b500490565b60008160001904831182151516156136a1576136a1613760565b500290565b60008083128015600160ff1b8501841216156136c4576136c4613760565b6001600160ff1b03840183138116156136df576136df613760565b50500390565b6000828210156136f7576136f7613760565b500390565b60005b838110156137175781810151838201526020016136ff565b83811115611f0f5750506000910152565b600060001982141561373c5761373c613760565b5060010190565b6000600160ff1b82141561375957613759613760565b5060000390565b634e487b7160e01b600052601160045260246000fd5b634e487b7160e01b600052603260045260246000fd5b634e487b7160e01b600052604160045260246000fd5b80151581146113cc57600080fdfea264697066735822122009a980a4589f9eb0bc6259728f31e1167520ccb289d1e207e045eed54e5928a264736f6c63430008070033",
  "devdoc": {
    "kind": "dev",
    "methods": {
      "afterExit(address,uint256,bytes)": {
        "details": "After exited, the owner can perform ANY call. This is to rescue any funds that didn't get released during exit or got earned afterwards due to vesting or airdrops, etc. "
      },
      "constructor": {
        "params": {
          "_bentoBox": "BentoBox address.",
          "_factory": "SushiSwap factory.",
          "_pairCodeHash": "This hash is used to calculate the address of a uniswap-like pool by providing only the addresses of the two ERC20 tokens.",
          "_strategyExecutor": "an EOA that will execute the safeHarvest function.",
          "_strategyToken": "Address of the underlying LP token the strategy invests."
        }
      },
      "exit(uint256)": {
        "details": "do not use isActive modifier here; allow bentobox to call strategy.exit() multiple times",
        "params": {
          "balance": "The amount of tokens the caller thinks it has invested."
        },
        "returns": {
          "amountAdded": "The delta (+profit or -loss) that occured in contrast to `balance`."
        }
      },
      "harvest(uint256,address)": {
        "details": "Only BentoBox can call harvest on this strategy.Ensures that (1) the caller was this contract (called through the safeHarvest function) and (2) that we are not being frontrun by a large BentoBox deposit when harvesting profits. ",
        "params": {
          "balance": "The amount of tokens the caller thinks it has invested.",
          "sender": "The address of the initiator of this transaction. Can be used for reimbursements, etc."
        },
        "returns": {
          "_0": "The delta (+profit or -loss) that occured in contrast to `balance`."
        }
      },
      "owner()": {
        "details": "Returns the address of the current owner."
      },
      "renounceOwnership()": {
        "details": "Leaves the contract without owner. It will not be possible to call `onlyOwner` functions anymore. Can only be called by the current owner. NOTE: Renouncing ownership will leave the contract without an owner, thereby removing any functionality that is only available to the owner."
      },
      "safeHarvest(uint256,bool,uint256,bool)": {
        "details": "maxBalance can be set to 0 to keep the previous value.maxChangeAmount can be set to 0 to allow for full rebalancing.",
        "params": {
          "harvestRewards": "If we want to claim any accrued reward tokens",
          "maxBalance": "The maximum balance of the underlying token that is allowed to be in BentoBox.",
          "maxChangeAmount": "When rebalancing - the maximum amount that will be deposited to or withdrawn from a strategy to BentoBox.",
          "rebalance": "Whether BentoBox should rebalance the strategy assets to acheive it's target allocation."
        }
      },
      "setRewardTokenInfo(address,address,bool,bool)": {
        "params": {
          "bridgeToken": "The token to swap the reward token into because swapping to the lp input token for minting",
          "token": "The reward token to add",
          "usePairToken0": "When true, the _rewardToken will be swapped to the pair's token0 for one-sided liquidity providing, otherwise, the pair's token1."
        }
      },
      "skim(uint256)": {
        "params": {
          "amount": "The amount of tokens to invest."
        }
      },
      "transferOwnership(address)": {
        "details": "Transfers ownership of the contract to a new account (`newOwner`). Can only be called by the current owner."
      },
      "withdraw(uint256)": {
        "details": "The `actualAmount` should be very close to the amount. The difference should NOT be used to report a loss. That's what harvest is for.",
        "params": {
          "amount": "The requested amount the caller wants to withdraw."
        },
        "returns": {
          "actualAmount": "The real amount that is withdrawn."
        }
      }
    },
    "version": 1
  },
  "userdoc": {
    "kind": "user",
    "methods": {
      "exit(uint256)": {
        "notice": "Withdraw all assets in the safest way possible. This shouldn't fail."
      },
      "harvest(uint256,address)": {
        "notice": "Harvest any profits made converted to the asset and pass them to the caller."
      },
      "safeHarvest(uint256,bool,uint256,bool)": {
        "notice": "Harvest profits while preventing a sandwich attack exploit."
      },
      "skim(uint256)": {
        "notice": "Send the assets to the Strategy and call skim to invest them."
      },
      "swapExactTokensForUnderlying(uint256,address)": {
        "notice": "Swap some tokens in the contract for the underlying and deposits them to address(this)"
      },
      "swapToLP(uint256,address)": {
        "notice": "Swap some tokens in the contract for the underlying and deposits them to address(this)"
      },
      "withdraw(uint256)": {
        "notice": "Withdraw assets. The returned amount can differ from the requested amount due to rounding."
      }
    },
    "version": 1
  },
  "storageLayout": {
    "storage": [
      {
        "astId": 7,
        "contract": "contracts/strategies/MasterChefLPStrategy.sol:MasterChefLPStrategy",
        "label": "_owner",
        "offset": 0,
        "slot": "0",
        "type": "t_address"
      },
      {
        "astId": 1815,
        "contract": "contracts/strategies/MasterChefLPStrategy.sol:MasterChefLPStrategy",
        "label": "exited",
        "offset": 20,
        "slot": "0",
        "type": "t_bool"
      },
      {
        "astId": 1818,
        "contract": "contracts/strategies/MasterChefLPStrategy.sol:MasterChefLPStrategy",
        "label": "maxBentoBoxBalance",
        "offset": 0,
        "slot": "1",
        "type": "t_uint256"
      },
      {
        "astId": 1823,
        "contract": "contracts/strategies/MasterChefLPStrategy.sol:MasterChefLPStrategy",
        "label": "strategyExecutors",
        "offset": 0,
        "slot": "2",
        "type": "t_mapping(t_address,t_bool)"
      },
      {
        "astId": 6401,
        "contract": "contracts/strategies/MasterChefLPStrategy.sol:MasterChefLPStrategy",
        "label": "rewardTokensInfo",
        "offset": 0,
        "slot": "3",
        "type": "t_mapping(t_address,t_struct(RewardTokenInfo)6396_storage)"
      },
      {
        "astId": 6403,
        "contract": "contracts/strategies/MasterChefLPStrategy.sol:MasterChefLPStrategy",
        "label": "feeCollector",
        "offset": 0,
        "slot": "4",
        "type": "t_address"
      },
      {
        "astId": 6405,
        "contract": "contracts/strategies/MasterChefLPStrategy.sol:MasterChefLPStrategy",
        "label": "feePercent",
        "offset": 20,
        "slot": "4",
        "type": "t_uint8"
      }
    ],
    "types": {
      "t_address": {
        "encoding": "inplace",
        "label": "address",
        "numberOfBytes": "20"
      },
      "t_bool": {
        "encoding": "inplace",
        "label": "bool",
        "numberOfBytes": "1"
      },
      "t_mapping(t_address,t_bool)": {
        "encoding": "mapping",
        "key": "t_address",
        "label": "mapping(address => bool)",
        "numberOfBytes": "32",
        "value": "t_bool"
      },
      "t_mapping(t_address,t_struct(RewardTokenInfo)6396_storage)": {
        "encoding": "mapping",
        "key": "t_address",
        "label": "mapping(address => struct MasterChefLPStrategy.RewardTokenInfo)",
        "numberOfBytes": "32",
        "value": "t_struct(RewardTokenInfo)6396_storage"
      },
      "t_struct(RewardTokenInfo)6396_storage": {
        "encoding": "inplace",
        "label": "struct MasterChefLPStrategy.RewardTokenInfo",
        "members": [
          {
            "astId": 6391,
            "contract": "contracts/strategies/MasterChefLPStrategy.sol:MasterChefLPStrategy",
            "label": "enabled",
            "offset": 0,
            "slot": "0",
            "type": "t_bool"
          },
          {
            "astId": 6393,
            "contract": "contracts/strategies/MasterChefLPStrategy.sol:MasterChefLPStrategy",
            "label": "usePairToken0",
            "offset": 1,
            "slot": "0",
            "type": "t_bool"
          },
          {
            "astId": 6395,
            "contract": "contracts/strategies/MasterChefLPStrategy.sol:MasterChefLPStrategy",
            "label": "bridgeToken",
            "offset": 2,
            "slot": "0",
            "type": "t_address"
          }
        ],
        "numberOfBytes": "32"
      },
      "t_uint256": {
        "encoding": "inplace",
        "label": "uint256",
        "numberOfBytes": "32"
      },
      "t_uint8": {
        "encoding": "inplace",
        "label": "uint8",
        "numberOfBytes": "1"
      }
    }
  }
}