{
  "address": "0x12ea786c9e53C5740feF04EfD568e69D6e9f3e98",
  "abi": [
    {
      "inputs": [
        {
          "internalType": "address",
          "name": "_strategyToken",
          "type": "address"
        },
        {
          "internalType": "address",
          "name": "_bentoBox",
          "type": "address"
        },
        {
          "internalType": "contract IStargateRouter",
          "name": "_router",
          "type": "address"
        },
        {
          "internalType": "uint256",
          "name": "_poolId",
          "type": "uint256"
        },
        {
          "internalType": "contract ILPStaking",
          "name": "_staking",
          "type": "address"
        },
        {
          "internalType": "uint256",
          "name": "_pid",
          "type": "uint256"
        }
      ],
      "stateMutability": "nonpayable",
      "type": "constructor"
    },
    {
      "anonymous": false,
      "inputs": [
        {
          "indexed": false,
          "internalType": "address",
          "name": "feeCollector",
          "type": "address"
        },
        {
          "indexed": false,
          "internalType": "uint256",
          "name": "feeAmount",
          "type": "uint256"
        }
      ],
      "name": "FeeParametersChanged",
      "type": "event"
    },
    {
      "anonymous": false,
      "inputs": [
        {
          "indexed": true,
          "internalType": "address",
          "name": "server",
          "type": "address"
        },
        {
          "indexed": true,
          "internalType": "address",
          "name": "token0",
          "type": "address"
        },
        {
          "indexed": true,
          "internalType": "address",
          "name": "token1",
          "type": "address"
        },
        {
          "indexed": false,
          "internalType": "uint256",
          "name": "amount0",
          "type": "uint256"
        },
        {
          "indexed": false,
          "internalType": "uint256",
          "name": "amount1",
          "type": "uint256"
        }
      ],
      "name": "LogConvert",
      "type": "event"
    },
    {
      "anonymous": false,
      "inputs": [
        {
          "indexed": true,
          "internalType": "address",
          "name": "executor",
          "type": "address"
        },
        {
          "indexed": false,
          "internalType": "bool",
          "name": "allowed",
          "type": "bool"
        }
      ],
      "name": "LogSetStrategyExecutor",
      "type": "event"
    },
    {
      "anonymous": false,
      "inputs": [
        {
          "indexed": false,
          "internalType": "uint256",
          "name": "total",
          "type": "uint256"
        },
        {
          "indexed": false,
          "internalType": "uint256",
          "name": "strategyAmount",
          "type": "uint256"
        },
        {
          "indexed": false,
          "internalType": "uint256",
          "name": "feeAmount",
          "type": "uint256"
        }
      ],
      "name": "LpMinted",
      "type": "event"
    },
    {
      "anonymous": false,
      "inputs": [
        {
          "indexed": true,
          "internalType": "address",
          "name": "previousOwner",
          "type": "address"
        },
        {
          "indexed": true,
          "internalType": "address",
          "name": "newOwner",
          "type": "address"
        }
      ],
      "name": "OwnershipTransferred",
      "type": "event"
    },
    {
      "inputs": [],
      "name": "USDC",
      "outputs": [
        {
          "internalType": "address",
          "name": "",
          "type": "address"
        }
      ],
      "stateMutability": "view",
      "type": "function"
    },
    {
      "inputs": [],
      "name": "VAULT",
      "outputs": [
        {
          "internalType": "contract IBalancerVault",
          "name": "",
          "type": "address"
        }
      ],
      "stateMutability": "view",
      "type": "function"
    },
    {
      "inputs": [
        {
          "internalType": "address",
          "name": "to",
          "type": "address"
        },
        {
          "internalType": "uint256",
          "name": "value",
          "type": "uint256"
        },
        {
          "internalType": "bytes",
          "name": "data",
          "type": "bytes"
        }
      ],
      "name": "afterExit",
      "outputs": [
        {
          "internalType": "bool",
          "name": "success",
          "type": "bool"
        }
      ],
      "stateMutability": "nonpayable",
      "type": "function"
    },
    {
      "inputs": [],
      "name": "bentoBox",
      "outputs": [
        {
          "internalType": "address",
          "name": "",
          "type": "address"
        }
      ],
      "stateMutability": "view",
      "type": "function"
    },
    {
      "inputs": [],
      "name": "bridgeToken",
      "outputs": [
        {
          "internalType": "address",
          "name": "",
          "type": "address"
        }
      ],
      "stateMutability": "view",
      "type": "function"
    },
    {
      "inputs": [
        {
          "internalType": "uint256",
          "name": "balance",
          "type": "uint256"
        }
      ],
      "name": "exit",
      "outputs": [
        {
          "internalType": "int256",
          "name": "amountAdded",
          "type": "int256"
        }
      ],
      "stateMutability": "nonpayable",
      "type": "function"
    },
    {
      "inputs": [],
      "name": "exited",
      "outputs": [
        {
          "internalType": "bool",
          "name": "",
          "type": "bool"
        }
      ],
      "stateMutability": "view",
      "type": "function"
    },
    {
      "inputs": [],
      "name": "factory",
      "outputs": [
        {
          "internalType": "address",
          "name": "",
          "type": "address"
        }
      ],
      "stateMutability": "view",
      "type": "function"
    },
    {
      "inputs": [],
      "name": "feeCollector",
      "outputs": [
        {
          "internalType": "address",
          "name": "",
          "type": "address"
        }
      ],
      "stateMutability": "view",
      "type": "function"
    },
    {
      "inputs": [],
      "name": "feePercent",
      "outputs": [
        {
          "internalType": "uint8",
          "name": "",
          "type": "uint8"
        }
      ],
      "stateMutability": "view",
      "type": "function"
    },
    {
      "inputs": [
        {
          "internalType": "uint256",
          "name": "balance",
          "type": "uint256"
        },
        {
          "internalType": "address",
          "name": "sender",
          "type": "address"
        }
      ],
      "name": "harvest",
      "outputs": [
        {
          "internalType": "int256",
          "name": "",
          "type": "int256"
        }
      ],
      "stateMutability": "nonpayable",
      "type": "function"
    },
    {
      "inputs": [],
      "name": "maxBentoBoxBalance",
      "outputs": [
        {
          "internalType": "uint256",
          "name": "",
          "type": "uint256"
        }
      ],
      "stateMutability": "view",
      "type": "function"
    },
    {
      "inputs": [],
      "name": "owner",
      "outputs": [
        {
          "internalType": "address",
          "name": "",
          "type": "address"
        }
      ],
      "stateMutability": "view",
      "type": "function"
    },
    {
      "inputs": [],
      "name": "pid",
      "outputs": [
        {
          "internalType": "uint256",
          "name": "",
          "type": "uint256"
        }
      ],
      "stateMutability": "view",
      "type": "function"
    },
    {
      "inputs": [],
      "name": "poolId",
      "outputs": [
        {
          "internalType": "uint256",
          "name": "",
          "type": "uint256"
        }
      ],
      "stateMutability": "view",
      "type": "function"
    },
    {
      "inputs": [],
      "name": "renounceOwnership",
      "outputs": [],
      "stateMutability": "nonpayable",
      "type": "function"
    },
    {
      "inputs": [],
      "name": "router",
      "outputs": [
        {
          "internalType": "contract IStargateRouter",
          "name": "",
          "type": "address"
        }
      ],
      "stateMutability": "view",
      "type": "function"
    },
    {
      "inputs": [
        {
          "internalType": "uint256",
          "name": "maxBalance",
          "type": "uint256"
        },
        {
          "internalType": "bool",
          "name": "rebalance",
          "type": "bool"
        },
        {
          "internalType": "uint256",
          "name": "maxChangeAmount",
          "type": "uint256"
        },
        {
          "internalType": "bool",
          "name": "harvestRewards",
          "type": "bool"
        }
      ],
      "name": "safeHarvest",
      "outputs": [],
      "stateMutability": "nonpayable",
      "type": "function"
    },
    {
      "inputs": [
        {
          "internalType": "address",
          "name": "_feeCollector",
          "type": "address"
        },
        {
          "internalType": "uint8",
          "name": "_feePercent",
          "type": "uint8"
        }
      ],
      "name": "setFeeParameters",
      "outputs": [],
      "stateMutability": "nonpayable",
      "type": "function"
    },
    {
      "inputs": [
        {
          "internalType": "address",
          "name": "executor",
          "type": "address"
        },
        {
          "internalType": "bool",
          "name": "value",
          "type": "bool"
        }
      ],
      "name": "setStrategyExecutor",
      "outputs": [],
      "stateMutability": "nonpayable",
      "type": "function"
    },
    {
      "inputs": [
        {
          "internalType": "uint256",
          "name": "amount",
          "type": "uint256"
        }
      ],
      "name": "skim",
      "outputs": [],
      "stateMutability": "nonpayable",
      "type": "function"
    },
    {
      "inputs": [],
      "name": "staking",
      "outputs": [
        {
          "internalType": "contract ILPStaking",
          "name": "",
          "type": "address"
        }
      ],
      "stateMutability": "view",
      "type": "function"
    },
    {
      "inputs": [],
      "name": "stargateToken",
      "outputs": [
        {
          "internalType": "contract IStargateToken",
          "name": "",
          "type": "address"
        }
      ],
      "stateMutability": "view",
      "type": "function"
    },
    {
      "inputs": [
        {
          "internalType": "address",
          "name": "",
          "type": "address"
        }
      ],
      "name": "strategyExecutors",
      "outputs": [
        {
          "internalType": "bool",
          "name": "",
          "type": "bool"
        }
      ],
      "stateMutability": "view",
      "type": "function"
    },
    {
      "inputs": [],
      "name": "strategyToken",
      "outputs": [
        {
          "internalType": "address",
          "name": "",
          "type": "address"
        }
      ],
      "stateMutability": "view",
      "type": "function"
    },
    {
      "inputs": [
        {
          "internalType": "uint256",
          "name": "amountOutMin",
          "type": "uint256"
        },
        {
          "internalType": "address",
          "name": "inputToken",
          "type": "address"
        }
      ],
      "name": "swapExactTokensForUnderlying",
      "outputs": [
        {
          "internalType": "uint256",
          "name": "amountOut",
          "type": "uint256"
        }
      ],
      "stateMutability": "nonpayable",
      "type": "function"
    },
    {
      "inputs": [
        {
          "internalType": "uint256",
          "name": "amountOutMin",
          "type": "uint256"
        }
      ],
      "name": "swapToLP",
      "outputs": [
        {
          "internalType": "uint256",
          "name": "amountOut",
          "type": "uint256"
        }
      ],
      "stateMutability": "nonpayable",
      "type": "function"
    },
    {
      "inputs": [
        {
          "internalType": "address",
          "name": "newOwner",
          "type": "address"
        }
      ],
      "name": "transferOwnership",
      "outputs": [],
      "stateMutability": "nonpayable",
      "type": "function"
    },
    {
      "inputs": [],
      "name": "underlyingToken",
      "outputs": [
        {
          "internalType": "contract ERC20",
          "name": "",
          "type": "address"
        }
      ],
      "stateMutability": "view",
      "type": "function"
    },
    {
      "inputs": [
        {
          "internalType": "uint256",
          "name": "amount",
          "type": "uint256"
        }
      ],
      "name": "withdraw",
      "outputs": [
        {
          "internalType": "uint256",
          "name": "actualAmount",
          "type": "uint256"
        }
      ],
      "stateMutability": "nonpayable",
      "type": "function"
    }
  ],
  "transactionHash": "0xf89cbe4598b3db45fdb97ac06837edec291600821e87a383607706c61dfb9a0f",
  "args": [
    "0x892785f33CdeE22A30AEF750F285E18c18040c3e",
    "0x74c764D41B77DBbb4fe771daB1939B00b146894A",
    "0x53Bf833A5d6c4ddA888F69c22C88C9f356a41614",
    1,
    "0xeA8DfEE1898a7e0a59f7527F076106d7e44c2176",
    0
  ],
  "solcInputHash": "47347839c1fd0610217383a8cd77fe24",
  "bytecode": "0x6101e06040523480156200001257600080fd5b5060405162003a3338038062003a33833981016040819052620000359162000516565b858585858585858560008080806200004d33620003cd565b6001600160601b0319606087811b821660805286811b821660a05285811b821660c05284901b1660e0526101008190526001600160a01b03821615620000e8576001600160a01b038216600081815260026020908152604091829020805460ff1916600190811790915591519182527fb08a78f53a7fe017d5ca8c8fcdbf06ffa2c31f2ab668378a17700d9fc558717e910160405180910390a25b5050506001600160601b0319606088811b8216610160526101a088905286901b16610120525050506101c081905260408051637e062a3560e11b815290516000916001600160a01b0389169163fc0c546a91600480820192602092909190829003018186803b1580156200015b57600080fd5b505afa15801562000170573d6000803e3d6000fd5b505050506040513d601f19601f82011682018060405250810190620001969190620004ef565b9050826001600160a01b0316636c099dee6040518163ffffffff1660e01b815260040160206040518083038186803b158015620001d257600080fd5b505afa158015620001e7573d6000803e3d6000fd5b505050506040513d601f19601f820116820180604052508101906200020d9190620004ef565b60601b6001600160601b031916610140526003805460ff60a01b1916600560a11b179055620002393390565b600380546001600160a01b0319166001600160a01b0392831617905562000272908216866000196200041d602090811b620019df17901c565b606081901b6001600160601b03191661018052620002a96001600160a01b038816846000196200041d602090811b620019df17901c565b50505050505050816001600160a01b0316636c099dee6040518163ffffffff1660e01b815260040160206040518083038186803b158015620002ea57600080fd5b505afa158015620002ff573d6000803e3d6000fd5b505050506040513d601f19601f82011682018060405250810190620003259190620004ef565b60405163095ea7b360e01b815273ba12222222228d8ba445958a75a0704d566bf2c8600482015260001960248201526001600160a01b03919091169063095ea7b390604401602060405180830381600087803b1580156200038557600080fd5b505af11580156200039a573d6000803e3d6000fd5b505050506040513d601f19601f82011682018060405250810190620003c0919062000592565b50505050505050620005cf565b600080546001600160a01b038381166001600160a01b0319831681178455604051919092169283917f8be0079c531659141344cd1fd0a4f28419497f9722a3daafe3b4186f6b6457e09190a35050565b600060405163095ea7b360e01b81526001600160a01b03841660048201528260248201526000806044836000895af191506200045b905081620004a3565b6200049d5760405162461bcd60e51b815260206004820152600e60248201526d1054141493d59157d1905253115160921b604482015260640160405180910390fd5b50505050565b60003d82620004b657806000803e806000fd5b8060208114620004d1578015620004e35760009250620004e8565b816000803e60005115159250620004e8565b600192505b5050919050565b6000602082840312156200050257600080fd5b81516200050f81620005b6565b9392505050565b60008060008060008060c087890312156200053057600080fd5b86516200053d81620005b6565b60208801519096506200055081620005b6565b60408801519095506200056381620005b6565b6060880151608089015191955093506200057d81620005b6565b8092505060a087015190509295509295509295565b600060208284031215620005a557600080fd5b815180151581146200050f57600080fd5b6001600160a01b0381168114620005cc57600080fd5b50565b60805160601c60a05160601c60c05160601c60e05160601c610100516101205160601c6101405160601c6101605160601c6101805160601c6101a0516101c051613283620007b06000396000818161049101528181611a6c01528181611b6e01528181611c120152611cd501526000818161025c015261168e01526000818161020a01526115fd01526000818161051901526116c40152600081816104b8015281816114bb01526122d301526000818161029e01528181611a9c01528181611b9b01528181611c3f0152611cfb0152600081816110a0015281816111ad01526121050152600081816104f201528181610e6b0152610f2901526000818161043b01528181610d730152818161107d015281816111560152818161209f01526120e2015260008181610334015281816105a201528181610634015281816107b20152818161082c015281816108ee015281816109fc01528181610be801528181610d0401526113280152600081816103630152818161060c015281816106f9015281816107900152818161080a01528181610949015281816109da01528181610c4501528181610ce201528181610de901528181610f7e01528181611242015281816112f1015281816115600152818161174a015261187f01526132836000f3fe608060405234801561001057600080fd5b50600436106101da5760003560e01c80637fd6f15c11610104578063d9253c2d116100a2578063f17898f711610071578063f17898f7146104b3578063f2fde38b146104da578063f4734b0c146104ed578063f887ea401461051457600080fd5b8063d9253c2d1461045d578063daa656de14610470578063e8bd73a514610483578063f10684541461048c57600080fd5b8063a7edd48c116100de578063a7edd48c146103fd578063ba6275ab14610410578063c415b95c14610423578063c45a01551461043657600080fd5b80637fd6f15c146103ab57806389a30271146103d15780638da5cb5b146103ec57600080fd5b80635ce6c3271161017c578063715018a61161014b578063715018a614610356578063747efea11461035e57806374ceb267146103855780637f8661a11461039857600080fd5b80635ce6c327146102f357806363b98ac8146103075780636939aaf51461031c5780636b2ace871461032f57600080fd5b80633e0dc34e116101b85780633e0dc34e14610257578063411557d11461027e5780634cf088d9146102995780635066ebdd146102c057600080fd5b806318fccc76146101df5780632495a599146102055780632e1a7d4d14610244575b600080fd5b6101f26101ed366004612d21565b61053b565b6040519081526020015b60405180910390f35b61022c7f000000000000000000000000000000000000000000000000000000000000000081565b6040516001600160a01b0390911681526020016101fc565b6101f2610252366004612cef565b61088c565b6101f27f000000000000000000000000000000000000000000000000000000000000000081565b61022c73ba12222222228d8ba445958a75a0704d566bf2c881565b61022c7f000000000000000000000000000000000000000000000000000000000000000081565b6102e36102ce366004612a47565b60026020526000908152604090205460ff1681565b60405190151581526020016101fc565b6000546102e390600160a01b900460ff1681565b61031a610315366004612b48565b610a26565b005b61031a61032a366004612cef565b610b10565b61022c7f000000000000000000000000000000000000000000000000000000000000000081565b61031a610b1c565b61022c7f000000000000000000000000000000000000000000000000000000000000000081565b61031a610393366004612a62565b610b52565b6101f26103a6366004612cef565b610bdb565b6003546103bf90600160a01b900460ff1681565b60405160ff90911681526020016101fc565b61022c73ff970a61a04b1ca14834a43f5de4533ebddb5cc881565b6000546001600160a01b031661022c565b6101f261040b366004612d21565b610d42565b61031a61041e366004612d4d565b61129f565b60035461022c906001600160a01b031681565b61022c7f000000000000000000000000000000000000000000000000000000000000000081565b6102e361046b366004612a99565b61138a565b6101f261047e366004612cef565b611474565b6101f260015481565b6101f27f000000000000000000000000000000000000000000000000000000000000000081565b61022c7f000000000000000000000000000000000000000000000000000000000000000081565b61031a6104e8366004612a47565b611947565b61022c7f000000000000000000000000000000000000000000000000000000000000000081565b61022c7f000000000000000000000000000000000000000000000000000000000000000081565b60008054600160a01b900460ff16156105975760405162461bcd60e51b815260206004820152601960248201527810995b9d1bd09bde0814dd1c985d1959de4e88195e1a5d1959603a1b60448201526064015b60405180910390fd5b336001600160a01b037f000000000000000000000000000000000000000000000000000000000000000016146105df5760405162461bcd60e51b815260040161058e90612f96565b6001600160a01b038216301480156106ba5750600154604051634ffe34db60e01b81526001600160a01b037f0000000000000000000000000000000000000000000000000000000000000000811660048301527f00000000000000000000000000000000000000000000000000000000000000001690634ffe34db90602401604080518083038186803b15801561067557600080fd5b505afa158015610689573d6000803e3d6000fd5b505050506040513d601f19601f820116820180604052508101906106ad9190612c44565b516001600160801b031611155b80156106c65750600083115b156108825760006106d684611a5d565b6040516370a0823160e01b81523060048201529091506000906001600160a01b037f000000000000000000000000000000000000000000000000000000000000000016906370a082319060240160206040518083038186803b15801561073b57600080fd5b505afa15801561074f573d6000803e3d6000fd5b505050506040513d601f19601f820116820180604052508101906107739190612d08565b9050600082126107e05780156107d7576107d76001600160a01b037f0000000000000000000000000000000000000000000000000000000000000000167f000000000000000000000000000000000000000000000000000000000000000083611b08565b91506108869050565b801561087a5760006107f282846130a9565b90506000811315610867576108516001600160a01b037f0000000000000000000000000000000000000000000000000000000000000000167f000000000000000000000000000000000000000000000000000000000000000083611b08565b61086261085d846131e0565b611b5f565b610870565b61087082611b5f565b9250610886915050565b509050610886565b5060005b92915050565b60008054600160a01b900460ff16156108e35760405162461bcd60e51b815260206004820152601960248201527810995b9d1bd09bde0814dd1c985d1959de4e88195e1a5d1959603a1b604482015260640161058e565b336001600160a01b037f0000000000000000000000000000000000000000000000000000000000000000161461092b5760405162461bcd60e51b815260040161058e90612f96565b61093482611c03565b6040516370a0823160e01b81523060048201527f00000000000000000000000000000000000000000000000000000000000000006001600160a01b0316906370a082319060240160206040518083038186803b15801561099357600080fd5b505afa1580156109a7573d6000803e3d6000fd5b505050506040513d601f19601f820116820180604052508101906109cb9190612d08565b9050610a216001600160a01b037f0000000000000000000000000000000000000000000000000000000000000000167f000000000000000000000000000000000000000000000000000000000000000083611b08565b919050565b6000546001600160a01b03163314610a505760405162461bcd60e51b815260040161058e90612fcb565b6003546064600160a01b90910460ff161115610aa35760405162461bcd60e51b81526020600482015260126024820152711a5b9d985b1a590819995954195c98d95b9d60721b604482015260640161058e565b600380546001600160a01b0384166001600160a81b03199091168117600160a01b60ff8516908102919091179092556040805191825260208201929092527f5f850aa70c541070663ba840cabd35705ada3b9428408ab2c2fd2eb7ee0f8450910160405180910390a15050565b610b1981611b5f565b50565b6000546001600160a01b03163314610b465760405162461bcd60e51b815260040161058e90612fcb565b610b506000611c76565b565b6000546001600160a01b03163314610b7c5760405162461bcd60e51b815260040161058e90612fcb565b6001600160a01b038216600081815260026020908152604091829020805460ff191685151590811790915591519182527fb08a78f53a7fe017d5ca8c8fcdbf06ffa2c31f2ab668378a17700d9fc558717e910160405180910390a25050565b6000336001600160a01b037f00000000000000000000000000000000000000000000000000000000000000001614610c255760405162461bcd60e51b815260040161058e90612f96565b610c2d611cc6565b6040516370a0823160e01b81523060048201526000907f00000000000000000000000000000000000000000000000000000000000000006001600160a01b0316906370a082319060240160206040518083038186803b158015610c8f57600080fd5b505afa158015610ca3573d6000803e3d6000fd5b505050506040513d601f19601f82011682018060405250810190610cc79190612d08565b9050610cd38382613143565b9150610d296001600160a01b037f0000000000000000000000000000000000000000000000000000000000000000167f000000000000000000000000000000000000000000000000000000000000000083611b08565b506000805460ff60a01b1916600160a01b179055919050565b3360009081526002602052604081205460ff16610d715760405162461bcd60e51b815260040161058e90613000565b7f00000000000000000000000000000000000000000000000000000000000000006001600160a01b0316610de75760405162461bcd60e51b815260206004820152601e60248201527f42656e746f426f782053747261746567793a2063616e6e6f7420737761700000604482015260640161058e565b7f00000000000000000000000000000000000000000000000000000000000000006001600160a01b0316826001600160a01b03161415610e695760405162461bcd60e51b815260206004820152601f60248201527f42656e746f426f782053747261746567793a20696e76616c6964207377617000604482015260640161058e565b7f00000000000000000000000000000000000000000000000000000000000000006001600160a01b03161515600081610ea3576002610ea6565b60035b60ff1667ffffffffffffffff811115610ec157610ec1613229565b604051908082528060200260200182016040528015610eea578160200160208202803683370190505b5090508381600081518110610f0157610f01613213565b60200260200101906001600160a01b031690816001600160a01b0316815250508115610f7c577f000000000000000000000000000000000000000000000000000000000000000081600181518110610f5b57610f5b613213565b60200260200101906001600160a01b031690816001600160a01b0316815250505b7f00000000000000000000000000000000000000000000000000000000000000008160018351610fac9190613182565b81518110610fbc57610fbc613213565b60200260200101906001600160a01b031690816001600160a01b031681525050600081600081518110610ff157610ff1613213565b60209081029190910101516040516370a0823160e01b81523060048201526001600160a01b03909116906370a082319060240160206040518083038186803b15801561103c57600080fd5b505afa158015611050573d6000803e3d6000fd5b505050506040513d601f19601f820116820180604052508101906110749190612d08565b905060006110c47f000000000000000000000000000000000000000000000000000000000000000083857f0000000000000000000000000000000000000000000000000000000000000000611d5b565b905080600182516110d59190613182565b815181106110e5576110e5613213565b602002602001015194508685101561114e5760405162461bcd60e51b815260206004820152602660248201527f42656e746f426f782053747261746567793a20696e73756666696369656e74206044820152651bdd5d1c1d5d60d21b606482015260840161058e565b61121f6111d17f00000000000000000000000000000000000000000000000000000000000000008560008151811061118857611188613213565b6020026020010151866001815181106111a3576111a3613213565b60200260200101517f0000000000000000000000000000000000000000000000000000000000000000611ee8565b826000815181106111e4576111e4613213565b6020026020010151856000815181106111ff576111ff613213565b60200260200101516001600160a01b0316611b089092919063ffffffff16565b61122a818430611fa6565b60408051838152602081018790526001600160a01b037f00000000000000000000000000000000000000000000000000000000000000008116929089169133917f3b644720db133e4e05b302a56bdb46867109debe30c44b4f25566b3c41ed627b910160405180910390a45050505092915050565b3360009081526002602052604090205460ff166112ce5760405162461bcd60e51b815260040161058e90613000565b83156112da5760018490555b6040516366c6bb0b60e01b81526001600160a01b037f0000000000000000000000000000000000000000000000000000000000000000811660048301528415156024830152604482018490527f000000000000000000000000000000000000000000000000000000000000000016906366c6bb0b90606401600060405180830381600087803b15801561136c57600080fd5b505af1158015611380573d6000803e3d6000fd5b5050505050505050565b600080546001600160a01b031633146113b55760405162461bcd60e51b815260040161058e90612fcb565b600054600160a01b900460ff1661140e5760405162461bcd60e51b815260206004820152601d60248201527f42656e746f426f782053747261746567793a206e6f7420657869746564000000604482015260640161058e565b836001600160a01b031683836040516114279190612e37565b60006040518083038185875af1925050503d8060008114611464576040519150601f19603f3d011682016040523d82523d6000602084013e611469565b606091505b509095945050505050565b3360009081526002602052604081205460ff166114a35760405162461bcd60e51b815260040161058e90613000565b6040516370a0823160e01b81523060048201526000907f00000000000000000000000000000000000000000000000000000000000000006001600160a01b0316906370a082319060240160206040518083038186803b15801561150557600080fd5b505afa158015611519573d6000803e3d6000fd5b505050506040513d601f19601f8201168201806040525081019061153d9190612d08565b6040516370a0823160e01b81523060048201529091506000906001600160a01b037f000000000000000000000000000000000000000000000000000000000000000016906370a082319060240160206040518083038186803b1580156115a257600080fd5b505afa1580156115b6573d6000803e3d6000fd5b505050506040513d601f19601f820116820180604052508101906115da9190612d08565b90506115e5826121d2565b6040516370a0823160e01b81523060048201526000907f00000000000000000000000000000000000000000000000000000000000000006001600160a01b0316906370a082319060240160206040518083038186803b15801561164757600080fd5b505afa15801561165b573d6000803e3d6000fd5b505050506040513d601f19601f8201168201806040525081019061167f9190612d08565b6040516321ec87bf60e21b81527f00000000000000000000000000000000000000000000000000000000000000006004820152602481018290523060448201529091507f00000000000000000000000000000000000000000000000000000000000000006001600160a01b0316906387b21efc90606401600060405180830381600087803b15801561171057600080fd5b505af1158015611724573d6000803e3d6000fd5b50506040516370a0823160e01b8152306004820152600092508491506001600160a01b037f000000000000000000000000000000000000000000000000000000000000000016906370a082319060240160206040518083038186803b15801561178c57600080fd5b505afa1580156117a0573d6000803e3d6000fd5b505050506040513d601f19601f820116820180604052508101906117c49190612d08565b6117ce9190613182565b9050858110156118205760405162461bcd60e51b815260206004820152601760248201527f494e53554646494349454e545f414d4f554e545f4f5554000000000000000000604482015260640161058e565b60035460009060649061183d90600160a01b900460ff1684613124565b6118479190613102565b90506118538183613182565b60035460405163a9059cbb60e01b81526001600160a01b039182166004820152602481018490529197507f0000000000000000000000000000000000000000000000000000000000000000169063a9059cbb90604401602060405180830381600087803b1580156118c357600080fd5b505af11580156118d7573d6000803e3d6000fd5b505050506040513d601f19601f820116820180604052508101906118fb9190612c27565b5060408051838152602081018890529081018290527ffac4ceeb73d90e5d855cf54c2fc52267e49df26636cde8d7ab271952cd081b779060600160405180910390a15050505050919050565b6000546001600160a01b031633146119715760405162461bcd60e51b815260040161058e90612fcb565b6001600160a01b0381166119d65760405162461bcd60e51b815260206004820152602660248201527f4f776e61626c653a206e6577206f776e657220697320746865207a65726f206160448201526564647265737360d01b606482015260840161058e565b610b1981611c76565b600060405163095ea7b360e01b81526001600160a01b03841660048201528260248201526000806044836000895af1915050611a1a8161248c565b611a575760405162461bcd60e51b815260206004820152600e60248201526d1054141493d59157d1905253115160921b604482015260640161058e565b50505050565b604051630441a3e760e41b81527f00000000000000000000000000000000000000000000000000000000000000006004820152600060248201819052907f00000000000000000000000000000000000000000000000000000000000000006001600160a01b03169063441a3e7090604401600060405180830381600087803b158015611ae857600080fd5b505af1158015611afc573d6000803e3d6000fd5b50600095945050505050565b604080516001600160a01b038416602482015260448082018490528251808303909101815260649091019091526020810180516001600160e01b031663a9059cbb60e01b179052611b5a9084906124d3565b505050565b604051631c57762b60e31b81527f00000000000000000000000000000000000000000000000000000000000000006004820152602481018290527f00000000000000000000000000000000000000000000000000000000000000006001600160a01b03169063e2bbb158906044015b600060405180830381600087803b158015611be857600080fd5b505af1158015611bfc573d6000803e3d6000fd5b5050505050565b604051630441a3e760e41b81527f00000000000000000000000000000000000000000000000000000000000000006004820152602481018290527f00000000000000000000000000000000000000000000000000000000000000006001600160a01b03169063441a3e7090604401611bce565b600080546001600160a01b038381166001600160a01b0319831681178455604051919092169283917f8be0079c531659141344cd1fd0a4f28419497f9722a3daafe3b4186f6b6457e09190a35050565b604051632989754760e11b81527f000000000000000000000000000000000000000000000000000000000000000060048201527f00000000000000000000000000000000000000000000000000000000000000006001600160a01b031690635312ea8e90602401600060405180830381600087803b158015611d4757600080fd5b505af1158015611a57573d6000803e3d6000fd5b6060600283511015611daf5760405162461bcd60e51b815260206004820152601e60248201527f556e697377617056324c6962726172793a20494e56414c49445f504154480000604482015260640161058e565b825167ffffffffffffffff811115611dc957611dc9613229565b604051908082528060200260200182016040528015611df2578160200160208202803683370190505b5090508381600081518110611e0957611e09613213565b60200260200101818152505060005b60018451611e269190613182565b811015611edf57600080611e7a88878581518110611e4657611e46613213565b602002602001015188866001611e5c91906130ea565b81518110611e6c57611e6c613213565b6020026020010151886125a5565b91509150611ea2848481518110611e9357611e93613213565b60200260200101518383612680565b84611eae8560016130ea565b81518110611ebe57611ebe613213565b60200260200101818152505050508080611ed7906131c5565b915050611e18565b50949350505050565b6000806000611ef786866127a0565b6040516bffffffffffffffffffffffff19606084811b8216602084015283901b166034820152919350915087906048016040516020818303038152906040528051906020012085604051602001611f83939291906001600160f81b0319815260609390931b6bffffffffffffffffffffffff191660018401526015830191909152603582015260550190565b60408051601f198184030181529190528051602090910120979650505050505050565b60005b60018351611fb79190613182565b811015611a5757600080848381518110611fd357611fd3613213565b602002602001015185846001611fe991906130ea565b81518110611ff957611ff9613213565b6020026020010151915091506000816001600160a01b0316836001600160a01b0316106120265781612028565b825b90506000876120388660016130ea565b8151811061204857612048613213565b60200260200101519050600080836001600160a01b0316866001600160a01b0316146120765782600061207a565b6000835b91509150600060028a5161208e9190613182565b881061209a57886120db565b6120db7f0000000000000000000000000000000000000000000000000000000000000000878c6120cb8c60026130ea565b815181106111a3576111a3613213565b90506121297f000000000000000000000000000000000000000000000000000000000000000088887f0000000000000000000000000000000000000000000000000000000000000000611ee8565b6001600160a01b031663022c0d9f84848460006040519080825280601f01601f191660200182016040528015612166576020820181803683370190505b506040518563ffffffff1660e01b81526004016121869493929190613041565b600060405180830381600087803b1580156121a057600080fd5b505af11580156121b4573d6000803e3d6000fd5b505050505050505050505080806121ca906131c5565b915050611fa9565b604080516001808252818301909252600091816020015b61221e6040518060a0016040528060008019168152602001600081526020016000815260200160008152602001606081525090565b8152602001906001900390816121e95790505090506040518060a001604052807f3a4c6d2404b5eb14915041e01f63200a82f4a34300020000000000000000006560001b8152602001600081526020016001815260200183815260200160405180602001604052806000815250815250816000815181106122a1576122a1613213565b6020908102919091010152604080516002808252606082019092526000918160200160208202803683370190505090507f00000000000000000000000000000000000000000000000000000000000000008160008151811061230557612305613213565b60200260200101906001600160a01b031690816001600160a01b03168152505073ff970a61a04b1ca14834a43f5de4533ebddb5cc88160018151811061234d5761234d613213565b6001600160a01b039290921660209283029190910182015260408051608081018252308082526000938201849052818301526060808201849052825160028082529181019093529092919081602001602082028036833701905050905084816000815181106123be576123be613213565b6020026020010181815250506000816001815181106123df576123df613213565b602090810291909101015260405163945bcec960e01b815273ba12222222228d8ba445958a75a0704d566bf2c89063945bcec99061242e90600090889088908890889060001990600401612e53565b600060405180830381600087803b15801561244857600080fd5b505af115801561245c573d6000803e3d6000fd5b505050506040513d6000823e601f3d908101601f191682016040526124849190810190612b7a565b505050505050565b60003d8261249e57806000803e806000fd5b80602081146124b65780156124c757600092506124cc565b816000803e600051151592506124cc565b600192505b5050919050565b6000612528826040518060400160405280602081526020017f5361666545524332303a206c6f772d6c6576656c2063616c6c206661696c6564815250856001600160a01b03166128989092919063ffffffff16565b805190915015611b5a57808060200190518101906125469190612c27565b611b5a5760405162461bcd60e51b815260206004820152602a60248201527f5361666545524332303a204552433230206f7065726174696f6e20646964206e6044820152691bdd081cdd58d8d9595960b21b606482015260840161058e565b60008060006125b486866127a0565b5090506000806125c689898989611ee8565b6001600160a01b0316630902f1ac6040518163ffffffff1660e01b815260040160606040518083038186803b1580156125fe57600080fd5b505afa158015612612573d6000803e3d6000fd5b505050506040513d601f19601f820116820180604052508101906126369190612c9f565b506001600160701b031691506001600160701b03169150826001600160a01b0316886001600160a01b03161461266d578082612670565b81815b909a909950975050505050505050565b60008084116126e55760405162461bcd60e51b815260206004820152602b60248201527f556e697377617056324c6962726172793a20494e53554646494349454e545f4960448201526a1394155517d05353d5539560aa1b606482015260840161058e565b6000831180156126f55750600082115b6127525760405162461bcd60e51b815260206004820152602860248201527f556e697377617056324c6962726172793a20494e53554646494349454e545f4c604482015267495155494449545960c01b606482015260840161058e565b6000612760856103e5613124565b9050600061276e8483613124565b905060008261277f876103e8613124565b61278991906130ea565b90506127958183613102565b979650505050505050565b600080826001600160a01b0316846001600160a01b031614156128135760405162461bcd60e51b815260206004820152602560248201527f556e697377617056324c6962726172793a204944454e544943414c5f41444452604482015264455353455360d81b606482015260840161058e565b826001600160a01b0316846001600160a01b031610612833578284612836565b83835b90925090506001600160a01b0382166128915760405162461bcd60e51b815260206004820152601e60248201527f556e697377617056324c6962726172793a205a45524f5f414444524553530000604482015260640161058e565b9250929050565b60606128a784846000856128b1565b90505b9392505050565b6060824710156129125760405162461bcd60e51b815260206004820152602660248201527f416464726573733a20696e73756666696369656e742062616c616e636520666f6044820152651c8818d85b1b60d21b606482015260840161058e565b843b6129605760405162461bcd60e51b815260206004820152601d60248201527f416464726573733a2063616c6c20746f206e6f6e2d636f6e7472616374000000604482015260640161058e565b600080866001600160a01b0316858760405161297c9190612e37565b60006040518083038185875af1925050503d80600081146129b9576040519150601f19603f3d011682016040523d82523d6000602084013e6129be565b606091505b5091509150612795828286606083156129d85750816128aa565b8251156129e85782518084602001fd5b8160405162461bcd60e51b815260040161058e9190612f83565b80356001600160a01b0381168114610a2157600080fd5b80516001600160701b0381168114610a2157600080fd5b80516001600160801b0381168114610a2157600080fd5b600060208284031215612a5957600080fd5b6128aa82612a02565b60008060408385031215612a7557600080fd5b612a7e83612a02565b91506020830135612a8e8161323f565b809150509250929050565b600080600060608486031215612aae57600080fd5b612ab784612a02565b92506020808501359250604085013567ffffffffffffffff80821115612adc57600080fd5b818701915087601f830112612af057600080fd5b813581811115612b0257612b02613229565b612b14601f8201601f19168501613078565b91508082528884828501011115612b2a57600080fd5b80848401858401376000848284010152508093505050509250925092565b60008060408385031215612b5b57600080fd5b612b6483612a02565b9150602083013560ff81168114612a8e57600080fd5b60006020808385031215612b8d57600080fd5b825167ffffffffffffffff80821115612ba557600080fd5b818501915085601f830112612bb957600080fd5b815181811115612bcb57612bcb613229565b8060051b9150612bdc848301613078565b8181528481019084860184860187018a1015612bf757600080fd5b600095505b83861015612c1a578051835260019590950194918601918601612bfc565b5098975050505050505050565b600060208284031215612c3957600080fd5b81516128aa8161323f565b600060408284031215612c5657600080fd5b6040516040810181811067ffffffffffffffff82111715612c7957612c79613229565b604052612c8583612a30565b8152612c9360208401612a30565b60208201529392505050565b600080600060608486031215612cb457600080fd5b612cbd84612a19565b9250612ccb60208501612a19565b9150604084015163ffffffff81168114612ce457600080fd5b809150509250925092565b600060208284031215612d0157600080fd5b5035919050565b600060208284031215612d1a57600080fd5b5051919050565b60008060408385031215612d3457600080fd5b82359150612d4460208401612a02565b90509250929050565b60008060008060808587031215612d6357600080fd5b843593506020850135612d758161323f565b9250604085013591506060850135612d8c8161323f565b939692955090935050565b600081518084526020808501945080840160005b83811015612dd05781516001600160a01b031687529582019590820190600101612dab565b509495945050505050565b600081518084526020808501945080840160005b83811015612dd057815187529582019590820190600101612def565b60008151808452612e23816020860160208601613199565b601f01601f19169290920160200192915050565b60008251612e49818460208701613199565b9190910192915050565b600061012080830160028a10612e7957634e487b7160e01b600052602160045260246000fd5b89845260208085019290925288519081905261014080850192600583901b8601909101918a820160005b82811015612f065787850361013f190186528151805186528481015185870152604080820151908701526060808201519087015260809081015160a091870182905290612ef281880183612e0b565b978601979650505090830190600101612ea3565b505050508381036040850152612f1c8189612d97565b915050612f5c606084018780516001600160a01b039081168352602080830151151590840152604080830151909116908301526060908101511515910152565b82810360e0840152612f6e8186612ddb565b91505082610100830152979650505050505050565b6020815260006128aa6020830184612e0b565b6020808252818101527f42656e746f426f782053747261746567793a206f6e6c792042656e746f426f78604082015260600190565b6020808252818101527f4f776e61626c653a2063616c6c6572206973206e6f7420746865206f776e6572604082015260600190565b60208082526021908201527f42656e746f426f782053747261746567793a206f6e6c79204578656375746f726040820152607360f81b606082015260800190565b84815283602082015260018060a01b038316604082015260806060820152600061306e6080830184612e0b565b9695505050505050565b604051601f8201601f1916810167ffffffffffffffff811182821017156130a1576130a1613229565b604052919050565b600080821280156001600160ff1b03849003851316156130cb576130cb6131fd565b600160ff1b83900384128116156130e4576130e46131fd565b50500190565b600082198211156130fd576130fd6131fd565b500190565b60008261311f57634e487b7160e01b600052601260045260246000fd5b500490565b600081600019048311821515161561313e5761313e6131fd565b500290565b60008083128015600160ff1b850184121615613161576131616131fd565b6001600160ff1b038401831381161561317c5761317c6131fd565b50500390565b600082821015613194576131946131fd565b500390565b60005b838110156131b457818101518382015260200161319c565b83811115611a575750506000910152565b60006000198214156131d9576131d96131fd565b5060010190565b6000600160ff1b8214156131f6576131f66131fd565b5060000390565b634e487b7160e01b600052601160045260246000fd5b634e487b7160e01b600052603260045260246000fd5b634e487b7160e01b600052604160045260246000fd5b8015158114610b1957600080fdfea264697066735822122027bb13be3ba6df590229f99b1a9664033bdeea772e424cb46998f9577f8efb5864736f6c63430008070033",
  "devdoc": {
    "kind": "dev",
    "methods": {
      "afterExit(address,uint256,bytes)": {
        "details": "After exited, the owner can perform ANY call. This is to rescue any funds that didn't get released during exit or got earned afterwards due to vesting or airdrops, etc. "
      },
      "exit(uint256)": {
        "details": "do not use isActive modifier here; allow bentobox to call strategy.exit() multiple times",
        "params": {
          "balance": "The amount of tokens the caller thinks it has invested."
        },
        "returns": {
          "amountAdded": "The delta (+profit or -loss) that occured in contrast to `balance`."
        }
      },
      "harvest(uint256,address)": {
        "details": "Only BentoBox can call harvest on this strategy.Ensures that (1) the caller was this contract (called through the safeHarvest function) and (2) that we are not being frontrun by a large BentoBox deposit when harvesting profits. ",
        "params": {
          "balance": "The amount of tokens the caller thinks it has invested.",
          "sender": "The address of the initiator of this transaction. Can be used for reimbursements, etc."
        },
        "returns": {
          "_0": "The delta (+profit or -loss) that occured in contrast to `balance`."
        }
      },
      "owner()": {
        "details": "Returns the address of the current owner."
      },
      "renounceOwnership()": {
        "details": "Leaves the contract without owner. It will not be possible to call `onlyOwner` functions anymore. Can only be called by the current owner. NOTE: Renouncing ownership will leave the contract without an owner, thereby removing any functionality that is only available to the owner."
      },
      "safeHarvest(uint256,bool,uint256,bool)": {
        "details": "maxBalance can be set to 0 to keep the previous value.maxChangeAmount can be set to 0 to allow for full rebalancing.",
        "params": {
          "harvestRewards": "If we want to claim any accrued reward tokens",
          "maxBalance": "The maximum balance of the underlying token that is allowed to be in BentoBox.",
          "maxChangeAmount": "When rebalancing - the maximum amount that will be deposited to or withdrawn from a strategy to BentoBox.",
          "rebalance": "Whether BentoBox should rebalance the strategy assets to acheive it's target allocation."
        }
      },
      "skim(uint256)": {
        "params": {
          "amount": "The amount of tokens to invest."
        }
      },
      "transferOwnership(address)": {
        "details": "Transfers ownership of the contract to a new account (`newOwner`). Can only be called by the current owner."
      },
      "withdraw(uint256)": {
        "details": "The `actualAmount` should be very close to the amount. The difference should NOT be used to report a loss. That's what harvest is for.",
        "params": {
          "amount": "The requested amount the caller wants to withdraw."
        },
        "returns": {
          "actualAmount": "The real amount that is withdrawn."
        }
      }
    },
    "version": 1
  },
  "userdoc": {
    "kind": "user",
    "methods": {
      "exit(uint256)": {
        "notice": "Withdraw all assets in the safest way possible. This shouldn't fail."
      },
      "harvest(uint256,address)": {
        "notice": "Harvest any profits made converted to the asset and pass them to the caller."
      },
      "safeHarvest(uint256,bool,uint256,bool)": {
        "notice": "Harvest profits while preventing a sandwich attack exploit."
      },
      "skim(uint256)": {
        "notice": "Send the assets to the Strategy and call skim to invest them."
      },
      "swapExactTokensForUnderlying(uint256,address)": {
        "notice": "Swap some tokens in the contract for the underlying and deposits them to address(this)"
      },
      "withdraw(uint256)": {
        "notice": "Withdraw assets. The returned amount can differ from the requested amount due to rounding."
      }
    },
    "version": 1
  },
  "storageLayout": {
    "storage": [
      {
        "astId": 7,
        "contract": "contracts/strategies/stargate/ArbitrumUsdcStargateLPStrategy.sol:ArbitrumUsdcStargateLPStrategy",
        "label": "_owner",
        "offset": 0,
        "slot": "0",
        "type": "t_address"
      },
      {
        "astId": 1815,
        "contract": "contracts/strategies/stargate/ArbitrumUsdcStargateLPStrategy.sol:ArbitrumUsdcStargateLPStrategy",
        "label": "exited",
        "offset": 20,
        "slot": "0",
        "type": "t_bool"
      },
      {
        "astId": 1818,
        "contract": "contracts/strategies/stargate/ArbitrumUsdcStargateLPStrategy.sol:ArbitrumUsdcStargateLPStrategy",
        "label": "maxBentoBoxBalance",
        "offset": 0,
        "slot": "1",
        "type": "t_uint256"
      },
      {
        "astId": 1823,
        "contract": "contracts/strategies/stargate/ArbitrumUsdcStargateLPStrategy.sol:ArbitrumUsdcStargateLPStrategy",
        "label": "strategyExecutors",
        "offset": 0,
        "slot": "2",
        "type": "t_mapping(t_address,t_bool)"
      },
      {
        "astId": 11592,
        "contract": "contracts/strategies/stargate/ArbitrumUsdcStargateLPStrategy.sol:ArbitrumUsdcStargateLPStrategy",
        "label": "feeCollector",
        "offset": 0,
        "slot": "3",
        "type": "t_address"
      },
      {
        "astId": 11594,
        "contract": "contracts/strategies/stargate/ArbitrumUsdcStargateLPStrategy.sol:ArbitrumUsdcStargateLPStrategy",
        "label": "feePercent",
        "offset": 20,
        "slot": "3",
        "type": "t_uint8"
      }
    ],
    "types": {
      "t_address": {
        "encoding": "inplace",
        "label": "address",
        "numberOfBytes": "20"
      },
      "t_bool": {
        "encoding": "inplace",
        "label": "bool",
        "numberOfBytes": "1"
      },
      "t_mapping(t_address,t_bool)": {
        "encoding": "mapping",
        "key": "t_address",
        "label": "mapping(address => bool)",
        "numberOfBytes": "32",
        "value": "t_bool"
      },
      "t_uint256": {
        "encoding": "inplace",
        "label": "uint256",
        "numberOfBytes": "32"
      },
      "t_uint8": {
        "encoding": "inplace",
        "label": "uint8",
        "numberOfBytes": "1"
      }
    }
  }
}