{
  "address": "0xa5E9237B53C44d4B3dE26e307c2034DF1084c94c",
  "abi": [
    {
      "inputs": [],
      "stateMutability": "nonpayable",
      "type": "constructor"
    },
    {
      "inputs": [],
      "name": "STARGATE",
      "outputs": [
        {
          "internalType": "contract ERC20",
          "name": "",
          "type": "address"
        }
      ],
      "stateMutability": "view",
      "type": "function"
    },
    {
      "inputs": [],
      "name": "USDC",
      "outputs": [
        {
          "internalType": "address",
          "name": "",
          "type": "address"
        }
      ],
      "stateMutability": "view",
      "type": "function"
    },
    {
      "inputs": [],
      "name": "VAULT",
      "outputs": [
        {
          "internalType": "contract IBalancerVault",
          "name": "",
          "type": "address"
        }
      ],
      "stateMutability": "view",
      "type": "function"
    },
    {
      "inputs": [
        {
          "internalType": "uint256",
          "name": "stgBalance",
          "type": "uint256"
        },
        {
          "internalType": "address",
          "name": "recipient",
          "type": "address"
        }
      ],
      "name": "swapToUnderlying",
      "outputs": [],
      "stateMutability": "nonpayable",
      "type": "function"
    }
  ],
  "transactionHash": "0x687760e8e4f939a994af3f7c7042b5a2f7468dee3d1677d8fe1bca3aab190bdc",
  "args": [],
  "solcInputHash": "daba586f1b061e05ad00b2b6f1c455e4",
  "bytecode": "0x608060405234801561001057600080fd5b5060405163095ea7b360e01b815273ba12222222228d8ba445958a75a0704d566bf2c860048201526000196024820152736694340fc020c5e6b96567843da2df01b2ce1eb69063095ea7b390604401602060405180830381600087803b15801561007957600080fd5b505af115801561008d573d6000803e3d6000fd5b505050506040513d601f19601f820116820180604052508101906100b191906100b7565b506100e0565b6000602082840312156100c957600080fd5b815180151581146100d957600080fd5b9392505050565b610781806100ef6000396000f3fe608060405234801561001057600080fd5b506004361061004c5760003560e01c8063411557d1146100515780636c34ce881461008857806373460ba71461009d57806389a30271146100b8575b600080fd5b61006c73ba12222222228d8ba445958a75a0704d566bf2c881565b6040516001600160a01b03909116815260200160405180910390f35b61009b610096366004610502565b6100d3565b005b61006c736694340fc020c5e6b96567843da2df01b2ce1eb681565b61006c73ff970a61a04b1ca14834a43f5de4533ebddb5cc881565b6040516323b872dd60e01b815233600482015230602482015260448101839052736694340fc020c5e6b96567843da2df01b2ce1eb6906323b872dd90606401602060405180830381600087803b15801561012c57600080fd5b505af1158015610140573d6000803e3d6000fd5b505050506040513d601f19601f8201168201806040525081019061016491906104d9565b50604080516001808252818301909252600091816020015b6101b16040518060a0016040528060008019168152602001600081526020016000815260200160008152602001606081525090565b81526020019060019003908161017c5790505090506040518060a001604052807f3a4c6d2404b5eb14915041e01f63200a82f4a34300020000000000000000006560001b8152602001600081526020016001815260200184815260200160405180602001604052806000815250815250816000815181106102345761023461071f565b602090810291909101015260408051600280825260608201909252600091816020016020820280368337019050509050736694340fc020c5e6b96567843da2df01b2ce1eb68160008151811061028c5761028c61071f565b60200260200101906001600160a01b031690816001600160a01b03168152505073ff970a61a04b1ca14834a43f5de4533ebddb5cc8816001815181106102d4576102d461071f565b6001600160a01b039283166020918202929092018101919091526040805160808101825230815260009281018390529286168382015260608084018390528151600280825291810190925281602001602082028036833701905050905085816000815181106103455761034561071f565b6020026020010181815250506000816001815181106103665761036661071f565b602090810291909101015260405163945bcec960e01b815273ba12222222228d8ba445958a75a0704d566bf2c89063945bcec9906103b5906000908890889088908890600019906004016105b2565b600060405180830381600087803b1580156103cf57600080fd5b505af11580156103e3573d6000803e3d6000fd5b505050506040513d6000823e601f3d908101601f1916820160405261040b9190810190610414565b50505050505050565b6000602080838503121561042757600080fd5b825167ffffffffffffffff8082111561043f57600080fd5b818501915085601f83011261045357600080fd5b81518181111561046557610465610735565b8060051b604051601f19603f8301168101818110858211171561048a5761048a610735565b604052828152858101935084860182860187018a10156104a957600080fd5b600095505b838610156104cc5780518552600195909501949386019386016104ae565b5098975050505050505050565b6000602082840312156104eb57600080fd5b815180151581146104fb57600080fd5b9392505050565b6000806040838503121561051557600080fd5b8235915060208301356001600160a01b038116811461053357600080fd5b809150509250929050565b600081518084526020808501945080840160005b838110156105775781516001600160a01b031687529582019590820190600101610552565b509495945050505050565b600081518084526020808501945080840160005b8381101561057757815187529582019590820190600101610596565b600061012080830160028a106105d857634e487b7160e01b600052602160045260246000fd5b89845260208085019290925288519081905261014080850192600583901b8601909101918a82016000805b838110156106a15788860361013f190187528251805187528581015186880152604080820151908801526060808201519088015260809081015160a091880182905280519188018290529083905b8082101561066f5782820188015189830160c0015290870190610651565b80821115610680578460c0828b0101525b98870198601f01601f19169790970160c00196505091840191600101610603565b505050505083810360408501526106b8818961053e565b9150506106f8606084018780516001600160a01b039081168352602080830151151590840152604080830151909116908301526060908101511515910152565b82810360e084015261070a8186610582565b91505082610100830152979650505050505050565b634e487b7160e01b600052603260045260246000fd5b634e487b7160e01b600052604160045260246000fdfea26469706673582212208d2ba6ec19da9bfd60035c67441c15b5ef66184272229c91cb598c0f5e542c6764736f6c63430008070033",
  "devdoc": {
    "kind": "dev",
    "methods": {},
    "version": 1
  },
  "userdoc": {
    "kind": "user",
    "methods": {},
    "version": 1
  },
  "storageLayout": {
    "storage": [],
    "types": null
  }
}