{
  "address": "0x52bdF3f9E70F3fd8302d43F501c69871AC21e73b",
  "abi": [
    {
      "inputs": [],
      "stateMutability": "nonpayable",
      "type": "constructor"
    },
    {
      "inputs": [],
      "name": "STARGATE",
      "outputs": [
        {
          "internalType": "contract ERC20",
          "name": "",
          "type": "address"
        }
      ],
      "stateMutability": "view",
      "type": "function"
    },
    {
      "inputs": [],
      "name": "USDC",
      "outputs": [
        {
          "internalType": "address",
          "name": "",
          "type": "address"
        }
      ],
      "stateMutability": "view",
      "type": "function"
    },
    {
      "inputs": [],
      "name": "USDT",
      "outputs": [
        {
          "internalType": "address",
          "name": "",
          "type": "address"
        }
      ],
      "stateMutability": "view",
      "type": "function"
    },
    {
      "inputs": [],
      "name": "VAULT",
      "outputs": [
        {
          "internalType": "contract IBalancerVault",
          "name": "",
          "type": "address"
        }
      ],
      "stateMutability": "view",
      "type": "function"
    },
    {
      "inputs": [
        {
          "internalType": "uint256",
          "name": "stgBalance",
          "type": "uint256"
        },
        {
          "internalType": "address",
          "name": "recipient",
          "type": "address"
        }
      ],
      "name": "swapToUnderlying",
      "outputs": [],
      "stateMutability": "nonpayable",
      "type": "function"
    }
  ],
  "transactionHash": "0x524a4ab6437ced6dffb60018a3e1c64cef81c5479276202fc230285785c9969b",
  "args": [],
  "solcInputHash": "daba586f1b061e05ad00b2b6f1c455e4",
  "bytecode": "0x608060405234801561001057600080fd5b5060405163095ea7b360e01b815273ba12222222228d8ba445958a75a0704d566bf2c860048201526000196024820152736694340fc020c5e6b96567843da2df01b2ce1eb69063095ea7b390604401602060405180830381600087803b15801561007957600080fd5b505af115801561008d573d6000803e3d6000fd5b505050506040513d601f19601f820116820180604052508101906100b191906100b7565b506100e0565b6000602082840312156100c957600080fd5b815180151581146100d957600080fd5b9392505050565b61088c806100ef6000396000f3fe608060405234801561001057600080fd5b50600436106100575760003560e01c8063411557d11461005c5780636c34ce881461009357806373460ba7146100a857806389a30271146100c3578063c54e44eb146100de575b600080fd5b61007773ba12222222228d8ba445958a75a0704d566bf2c881565b6040516001600160a01b03909116815260200160405180910390f35b6100a66100a136600461060d565b6100f9565b005b610077736694340fc020c5e6b96567843da2df01b2ce1eb681565b61007773ff970a61a04b1ca14834a43f5de4533ebddb5cc881565b61007773fd086bc7cd5c481dcc9c85ebe478a1c0b69fcbb981565b6040516323b872dd60e01b815233600482015230602482015260448101839052736694340fc020c5e6b96567843da2df01b2ce1eb6906323b872dd90606401602060405180830381600087803b15801561015257600080fd5b505af1158015610166573d6000803e3d6000fd5b505050506040513d601f19601f8201168201806040525081019061018a91906105e4565b5060408051600280825260608201909252600091816020015b6101d86040518060a0016040528060008019168152602001600081526020016000815260200160008152602001606081525090565b8152602001906001900390816101a35790505090506040518060a001604052807f3a4c6d2404b5eb14915041e01f63200a82f4a34300020000000000000000006560001b81526020016000815260200160018152602001848152602001604051806020016040528060008152508152508160008151811061025b5761025b61082a565b60200260200101819052506040518060a001604052807f1533a3278f3f9141d5f820a184ea4b017fce238200000000000000000000001660001b815260200160018152602001600281526020016000815260200160405180602001604052806000815250815250816001815181106102d5576102d561082a565b602090810291909101015260408051600380825260808201909252600091816020016020820280368337019050509050736694340fc020c5e6b96567843da2df01b2ce1eb68160008151811061032d5761032d61082a565b60200260200101906001600160a01b031690816001600160a01b03168152505073ff970a61a04b1ca14834a43f5de4533ebddb5cc8816001815181106103755761037561082a565b60200260200101906001600160a01b031690816001600160a01b03168152505073fd086bc7cd5c481dcc9c85ebe478a1c0b69fcbb9816002815181106103bd576103bd61082a565b6001600160a01b039283166020918202929092018101919091526040805160808082018352308252600093820184905293871681830152606081018390528151600380825294810190925292816020016020820280368337019050509050858160008151811061042f5761042f61082a565b6020026020010181815250506000816001815181106104505761045061082a565b6020026020010181815250506000816002815181106104715761047161082a565b602090810291909101015260405163945bcec960e01b815273ba12222222228d8ba445958a75a0704d566bf2c89063945bcec9906104c0906000908890889088908890600019906004016106bd565b600060405180830381600087803b1580156104da57600080fd5b505af11580156104ee573d6000803e3d6000fd5b505050506040513d6000823e601f3d908101601f19168201604052610516919081019061051f565b50505050505050565b6000602080838503121561053257600080fd5b825167ffffffffffffffff8082111561054a57600080fd5b818501915085601f83011261055e57600080fd5b81518181111561057057610570610840565b8060051b604051601f19603f8301168101818110858211171561059557610595610840565b604052828152858101935084860182860187018a10156105b457600080fd5b600095505b838610156105d75780518552600195909501949386019386016105b9565b5098975050505050505050565b6000602082840312156105f657600080fd5b8151801515811461060657600080fd5b9392505050565b6000806040838503121561062057600080fd5b8235915060208301356001600160a01b038116811461063e57600080fd5b809150509250929050565b600081518084526020808501945080840160005b838110156106825781516001600160a01b03168752958201959082019060010161065d565b509495945050505050565b600081518084526020808501945080840160005b83811015610682578151875295820195908201906001016106a1565b600061012080830160028a106106e357634e487b7160e01b600052602160045260246000fd5b89845260208085019290925288519081905261014080850192600583901b8601909101918a82016000805b838110156107ac5788860361013f190187528251805187528581015186880152604080820151908801526060808201519088015260809081015160a091880182905280519188018290529083905b8082101561077a5782820188015189830160c001529087019061075c565b8082111561078b578460c0828b0101525b98870198601f01601f19169790970160c0019650509184019160010161070e565b505050505083810360408501526107c38189610649565b915050610803606084018780516001600160a01b039081168352602080830151151590840152604080830151909116908301526060908101511515910152565b82810360e0840152610815818661068d565b91505082610100830152979650505050505050565b634e487b7160e01b600052603260045260246000fd5b634e487b7160e01b600052604160045260246000fdfea26469706673582212204b40465d5b02e177906ac31d0dae1c91f9a57c7144a2eb1277ebee35a00c19be64736f6c63430008070033",
  "devdoc": {
    "kind": "dev",
    "methods": {},
    "version": 1
  },
  "userdoc": {
    "kind": "user",
    "methods": {},
    "version": 1
  },
  "storageLayout": {
    "storage": [],
    "types": null
  }
}