{
  "address": "0xd076F5426bD1F4cEE4054aBA60331Fa1d075dC49",
  "abi": [
    {
      "inputs": [
        {
          "internalType": "address",
          "name": "_strategyToken",
          "type": "address"
        },
        {
          "internalType": "address",
          "name": "_bentoBox",
          "type": "address"
        },
        {
          "internalType": "contract IStargateRouter",
          "name": "_router",
          "type": "address"
        },
        {
          "internalType": "uint256",
          "name": "_poolId",
          "type": "uint256"
        },
        {
          "internalType": "contract ILPStaking",
          "name": "_staking",
          "type": "address"
        },
        {
          "internalType": "uint256",
          "name": "_pid",
          "type": "uint256"
        }
      ],
      "stateMutability": "nonpayable",
      "type": "constructor"
    },
    {
      "anonymous": false,
      "inputs": [
        {
          "indexed": false,
          "internalType": "address",
          "name": "feeCollector",
          "type": "address"
        },
        {
          "indexed": false,
          "internalType": "uint256",
          "name": "feeAmount",
          "type": "uint256"
        }
      ],
      "name": "FeeParametersChanged",
      "type": "event"
    },
    {
      "anonymous": false,
      "inputs": [
        {
          "indexed": true,
          "internalType": "address",
          "name": "server",
          "type": "address"
        },
        {
          "indexed": true,
          "internalType": "address",
          "name": "token0",
          "type": "address"
        },
        {
          "indexed": true,
          "internalType": "address",
          "name": "token1",
          "type": "address"
        },
        {
          "indexed": false,
          "internalType": "uint256",
          "name": "amount0",
          "type": "uint256"
        },
        {
          "indexed": false,
          "internalType": "uint256",
          "name": "amount1",
          "type": "uint256"
        }
      ],
      "name": "LogConvert",
      "type": "event"
    },
    {
      "anonymous": false,
      "inputs": [
        {
          "indexed": true,
          "internalType": "address",
          "name": "executor",
          "type": "address"
        },
        {
          "indexed": false,
          "internalType": "bool",
          "name": "allowed",
          "type": "bool"
        }
      ],
      "name": "LogSetStrategyExecutor",
      "type": "event"
    },
    {
      "anonymous": false,
      "inputs": [
        {
          "indexed": false,
          "internalType": "uint256",
          "name": "total",
          "type": "uint256"
        },
        {
          "indexed": false,
          "internalType": "uint256",
          "name": "strategyAmount",
          "type": "uint256"
        },
        {
          "indexed": false,
          "internalType": "uint256",
          "name": "feeAmount",
          "type": "uint256"
        }
      ],
      "name": "LpMinted",
      "type": "event"
    },
    {
      "anonymous": false,
      "inputs": [
        {
          "indexed": true,
          "internalType": "address",
          "name": "previousOwner",
          "type": "address"
        },
        {
          "indexed": true,
          "internalType": "address",
          "name": "newOwner",
          "type": "address"
        }
      ],
      "name": "OwnershipTransferred",
      "type": "event"
    },
    {
      "inputs": [],
      "name": "USDC",
      "outputs": [
        {
          "internalType": "address",
          "name": "",
          "type": "address"
        }
      ],
      "stateMutability": "view",
      "type": "function"
    },
    {
      "inputs": [],
      "name": "USDT",
      "outputs": [
        {
          "internalType": "address",
          "name": "",
          "type": "address"
        }
      ],
      "stateMutability": "view",
      "type": "function"
    },
    {
      "inputs": [],
      "name": "VAULT",
      "outputs": [
        {
          "internalType": "contract IBalancerVault",
          "name": "",
          "type": "address"
        }
      ],
      "stateMutability": "view",
      "type": "function"
    },
    {
      "inputs": [
        {
          "internalType": "address",
          "name": "to",
          "type": "address"
        },
        {
          "internalType": "uint256",
          "name": "value",
          "type": "uint256"
        },
        {
          "internalType": "bytes",
          "name": "data",
          "type": "bytes"
        }
      ],
      "name": "afterExit",
      "outputs": [
        {
          "internalType": "bool",
          "name": "success",
          "type": "bool"
        }
      ],
      "stateMutability": "nonpayable",
      "type": "function"
    },
    {
      "inputs": [],
      "name": "bentoBox",
      "outputs": [
        {
          "internalType": "address",
          "name": "",
          "type": "address"
        }
      ],
      "stateMutability": "view",
      "type": "function"
    },
    {
      "inputs": [],
      "name": "bridgeToken",
      "outputs": [
        {
          "internalType": "address",
          "name": "",
          "type": "address"
        }
      ],
      "stateMutability": "view",
      "type": "function"
    },
    {
      "inputs": [
        {
          "internalType": "uint256",
          "name": "balance",
          "type": "uint256"
        }
      ],
      "name": "exit",
      "outputs": [
        {
          "internalType": "int256",
          "name": "amountAdded",
          "type": "int256"
        }
      ],
      "stateMutability": "nonpayable",
      "type": "function"
    },
    {
      "inputs": [],
      "name": "exited",
      "outputs": [
        {
          "internalType": "bool",
          "name": "",
          "type": "bool"
        }
      ],
      "stateMutability": "view",
      "type": "function"
    },
    {
      "inputs": [],
      "name": "factory",
      "outputs": [
        {
          "internalType": "address",
          "name": "",
          "type": "address"
        }
      ],
      "stateMutability": "view",
      "type": "function"
    },
    {
      "inputs": [],
      "name": "feeCollector",
      "outputs": [
        {
          "internalType": "address",
          "name": "",
          "type": "address"
        }
      ],
      "stateMutability": "view",
      "type": "function"
    },
    {
      "inputs": [],
      "name": "feePercent",
      "outputs": [
        {
          "internalType": "uint8",
          "name": "",
          "type": "uint8"
        }
      ],
      "stateMutability": "view",
      "type": "function"
    },
    {
      "inputs": [
        {
          "internalType": "uint256",
          "name": "balance",
          "type": "uint256"
        },
        {
          "internalType": "address",
          "name": "sender",
          "type": "address"
        }
      ],
      "name": "harvest",
      "outputs": [
        {
          "internalType": "int256",
          "name": "",
          "type": "int256"
        }
      ],
      "stateMutability": "nonpayable",
      "type": "function"
    },
    {
      "inputs": [],
      "name": "maxBentoBoxBalance",
      "outputs": [
        {
          "internalType": "uint256",
          "name": "",
          "type": "uint256"
        }
      ],
      "stateMutability": "view",
      "type": "function"
    },
    {
      "inputs": [],
      "name": "owner",
      "outputs": [
        {
          "internalType": "address",
          "name": "",
          "type": "address"
        }
      ],
      "stateMutability": "view",
      "type": "function"
    },
    {
      "inputs": [],
      "name": "pid",
      "outputs": [
        {
          "internalType": "uint256",
          "name": "",
          "type": "uint256"
        }
      ],
      "stateMutability": "view",
      "type": "function"
    },
    {
      "inputs": [],
      "name": "poolId",
      "outputs": [
        {
          "internalType": "uint256",
          "name": "",
          "type": "uint256"
        }
      ],
      "stateMutability": "view",
      "type": "function"
    },
    {
      "inputs": [],
      "name": "renounceOwnership",
      "outputs": [],
      "stateMutability": "nonpayable",
      "type": "function"
    },
    {
      "inputs": [],
      "name": "router",
      "outputs": [
        {
          "internalType": "contract IStargateRouter",
          "name": "",
          "type": "address"
        }
      ],
      "stateMutability": "view",
      "type": "function"
    },
    {
      "inputs": [
        {
          "internalType": "uint256",
          "name": "maxBalance",
          "type": "uint256"
        },
        {
          "internalType": "bool",
          "name": "rebalance",
          "type": "bool"
        },
        {
          "internalType": "uint256",
          "name": "maxChangeAmount",
          "type": "uint256"
        },
        {
          "internalType": "bool",
          "name": "harvestRewards",
          "type": "bool"
        }
      ],
      "name": "safeHarvest",
      "outputs": [],
      "stateMutability": "nonpayable",
      "type": "function"
    },
    {
      "inputs": [
        {
          "internalType": "address",
          "name": "_feeCollector",
          "type": "address"
        },
        {
          "internalType": "uint8",
          "name": "_feePercent",
          "type": "uint8"
        }
      ],
      "name": "setFeeParameters",
      "outputs": [],
      "stateMutability": "nonpayable",
      "type": "function"
    },
    {
      "inputs": [
        {
          "internalType": "address",
          "name": "executor",
          "type": "address"
        },
        {
          "internalType": "bool",
          "name": "value",
          "type": "bool"
        }
      ],
      "name": "setStrategyExecutor",
      "outputs": [],
      "stateMutability": "nonpayable",
      "type": "function"
    },
    {
      "inputs": [
        {
          "internalType": "uint256",
          "name": "amount",
          "type": "uint256"
        }
      ],
      "name": "skim",
      "outputs": [],
      "stateMutability": "nonpayable",
      "type": "function"
    },
    {
      "inputs": [],
      "name": "staking",
      "outputs": [
        {
          "internalType": "contract ILPStaking",
          "name": "",
          "type": "address"
        }
      ],
      "stateMutability": "view",
      "type": "function"
    },
    {
      "inputs": [],
      "name": "stargateToken",
      "outputs": [
        {
          "internalType": "contract IStargateToken",
          "name": "",
          "type": "address"
        }
      ],
      "stateMutability": "view",
      "type": "function"
    },
    {
      "inputs": [
        {
          "internalType": "address",
          "name": "",
          "type": "address"
        }
      ],
      "name": "strategyExecutors",
      "outputs": [
        {
          "internalType": "bool",
          "name": "",
          "type": "bool"
        }
      ],
      "stateMutability": "view",
      "type": "function"
    },
    {
      "inputs": [],
      "name": "strategyToken",
      "outputs": [
        {
          "internalType": "address",
          "name": "",
          "type": "address"
        }
      ],
      "stateMutability": "view",
      "type": "function"
    },
    {
      "inputs": [
        {
          "internalType": "uint256",
          "name": "amountOutMin",
          "type": "uint256"
        },
        {
          "internalType": "address",
          "name": "inputToken",
          "type": "address"
        }
      ],
      "name": "swapExactTokensForUnderlying",
      "outputs": [
        {
          "internalType": "uint256",
          "name": "amountOut",
          "type": "uint256"
        }
      ],
      "stateMutability": "nonpayable",
      "type": "function"
    },
    {
      "inputs": [
        {
          "internalType": "uint256",
          "name": "amountOutMin",
          "type": "uint256"
        }
      ],
      "name": "swapToLP",
      "outputs": [
        {
          "internalType": "uint256",
          "name": "amountOut",
          "type": "uint256"
        }
      ],
      "stateMutability": "nonpayable",
      "type": "function"
    },
    {
      "inputs": [
        {
          "internalType": "address",
          "name": "newOwner",
          "type": "address"
        }
      ],
      "name": "transferOwnership",
      "outputs": [],
      "stateMutability": "nonpayable",
      "type": "function"
    },
    {
      "inputs": [],
      "name": "underlyingToken",
      "outputs": [
        {
          "internalType": "contract ERC20",
          "name": "",
          "type": "address"
        }
      ],
      "stateMutability": "view",
      "type": "function"
    },
    {
      "inputs": [
        {
          "internalType": "uint256",
          "name": "amount",
          "type": "uint256"
        }
      ],
      "name": "withdraw",
      "outputs": [
        {
          "internalType": "uint256",
          "name": "actualAmount",
          "type": "uint256"
        }
      ],
      "stateMutability": "nonpayable",
      "type": "function"
    }
  ],
  "transactionHash": "0xdfc26f4f312067904e630d703aeae845ef78611039d55a6d7629bd30311c6264",
  "args": [
    "0xB6CfcF89a7B22988bfC96632aC2A9D6daB60d641",
    "0x74c764D41B77DBbb4fe771daB1939B00b146894A",
    "0x53Bf833A5d6c4ddA888F69c22C88C9f356a41614",
    2,
    "0xeA8DfEE1898a7e0a59f7527F076106d7e44c2176",
    1
  ],
  "solcInputHash": "47347839c1fd0610217383a8cd77fe24",
  "bytecode": "0x6101e06040523480156200001257600080fd5b5060405162003b3d38038062003b3d833981016040819052620000359162000516565b858585858585858560008080806200004d33620003cd565b6001600160601b0319606087811b821660805286811b821660a05285811b821660c05284901b1660e0526101008190526001600160a01b03821615620000e8576001600160a01b038216600081815260026020908152604091829020805460ff1916600190811790915591519182527fb08a78f53a7fe017d5ca8c8fcdbf06ffa2c31f2ab668378a17700d9fc558717e910160405180910390a25b5050506001600160601b0319606088811b8216610160526101a088905286901b16610120525050506101c081905260408051637e062a3560e11b815290516000916001600160a01b0389169163fc0c546a91600480820192602092909190829003018186803b1580156200015b57600080fd5b505afa15801562000170573d6000803e3d6000fd5b505050506040513d601f19601f82011682018060405250810190620001969190620004ef565b9050826001600160a01b0316636c099dee6040518163ffffffff1660e01b815260040160206040518083038186803b158015620001d257600080fd5b505afa158015620001e7573d6000803e3d6000fd5b505050506040513d601f19601f820116820180604052508101906200020d9190620004ef565b60601b6001600160601b031916610140526003805460ff60a01b1916600560a11b179055620002393390565b600380546001600160a01b0319166001600160a01b0392831617905562000272908216866000196200041d602090811b62001a0517901c565b606081901b6001600160601b03191661018052620002a96001600160a01b038816846000196200041d602090811b62001a0517901c565b50505050505050816001600160a01b0316636c099dee6040518163ffffffff1660e01b815260040160206040518083038186803b158015620002ea57600080fd5b505afa158015620002ff573d6000803e3d6000fd5b505050506040513d601f19601f82011682018060405250810190620003259190620004ef565b60405163095ea7b360e01b815273ba12222222228d8ba445958a75a0704d566bf2c8600482015260001960248201526001600160a01b03919091169063095ea7b390604401602060405180830381600087803b1580156200038557600080fd5b505af11580156200039a573d6000803e3d6000fd5b505050506040513d601f19601f82011682018060405250810190620003c0919062000592565b50505050505050620005cf565b600080546001600160a01b038381166001600160a01b0319831681178455604051919092169283917f8be0079c531659141344cd1fd0a4f28419497f9722a3daafe3b4186f6b6457e09190a35050565b600060405163095ea7b360e01b81526001600160a01b03841660048201528260248201526000806044836000895af191506200045b905081620004a3565b6200049d5760405162461bcd60e51b815260206004820152600e60248201526d1054141493d59157d1905253115160921b604482015260640160405180910390fd5b50505050565b60003d82620004b657806000803e806000fd5b8060208114620004d1578015620004e35760009250620004e8565b816000803e60005115159250620004e8565b600192505b5050919050565b6000602082840312156200050257600080fd5b81516200050f81620005b6565b9392505050565b60008060008060008060c087890312156200053057600080fd5b86516200053d81620005b6565b60208801519096506200055081620005b6565b60408801519095506200056381620005b6565b6060880151608089015191955093506200057d81620005b6565b8092505060a087015190509295509295509295565b600060208284031215620005a557600080fd5b815180151581146200050f57600080fd5b6001600160a01b0381168114620005cc57600080fd5b50565b60805160601c60a05160601c60c05160601c60e05160601c610100516101205160601c6101405160601c6101605160601c6101805160601c6101a0516101c05161338d620007b0600039600081816104b701528181611a9201528181611b9401528181611c380152611cfb01526000818161026701526116b4015260008181610215015261162301526000818161053f01526116ea0152600081816104de015281816114e101526123740152600081816102a901528181611ac201528181611bc101528181611c650152611d210152600081816110c6015281816111d3015261212b01526000818161051801528181610e910152610f4f01526000818161044601528181610d99015281816110a30152818161117c015281816120c5015261210801526000818161033f015281816105c80152818161065a015281816107d8015281816108520152818161091401528181610a2201528181610c0e01528181610d2a015261134e01526000818161036e015281816106320152818161071f015281816107b6015281816108300152818161096f01528181610a0001528181610c6b01528181610d0801528181610e0f01528181610fa40152818161126801528181611317015281816115860152818161177001526118a5015261338d6000f3fe608060405234801561001057600080fd5b50600436106101e55760003560e01c80637fd6f15c1161010f578063d9253c2d116100a2578063f17898f711610071578063f17898f7146104d9578063f2fde38b14610500578063f4734b0c14610513578063f887ea401461053a57600080fd5b8063d9253c2d14610483578063daa656de14610496578063e8bd73a5146104a9578063f1068454146104b257600080fd5b8063ba6275ab116100de578063ba6275ab1461041b578063c415b95c1461042e578063c45a015514610441578063c54e44eb1461046857600080fd5b80637fd6f15c146103b657806389a30271146103dc5780638da5cb5b146103f7578063a7edd48c1461040857600080fd5b80635ce6c32711610187578063715018a611610156578063715018a614610361578063747efea11461036957806374ceb267146103905780637f8661a1146103a357600080fd5b80635ce6c327146102fe57806363b98ac8146103125780636939aaf5146103275780636b2ace871461033a57600080fd5b80633e0dc34e116101c35780633e0dc34e14610262578063411557d1146102895780634cf088d9146102a45780635066ebdd146102cb57600080fd5b806318fccc76146101ea5780632495a599146102105780632e1a7d4d1461024f575b600080fd5b6101fd6101f8366004612e2b565b610561565b6040519081526020015b60405180910390f35b6102377f000000000000000000000000000000000000000000000000000000000000000081565b6040516001600160a01b039091168152602001610207565b6101fd61025d366004612df9565b6108b2565b6101fd7f000000000000000000000000000000000000000000000000000000000000000081565b61023773ba12222222228d8ba445958a75a0704d566bf2c881565b6102377f000000000000000000000000000000000000000000000000000000000000000081565b6102ee6102d9366004612b51565b60026020526000908152604090205460ff1681565b6040519015158152602001610207565b6000546102ee90600160a01b900460ff1681565b610325610320366004612c52565b610a4c565b005b610325610335366004612df9565b610b36565b6102377f000000000000000000000000000000000000000000000000000000000000000081565b610325610b42565b6102377f000000000000000000000000000000000000000000000000000000000000000081565b61032561039e366004612b6c565b610b78565b6101fd6103b1366004612df9565b610c01565b6003546103ca90600160a01b900460ff1681565b60405160ff9091168152602001610207565b61023773ff970a61a04b1ca14834a43f5de4533ebddb5cc881565b6000546001600160a01b0316610237565b6101fd610416366004612e2b565b610d68565b610325610429366004612e57565b6112c5565b600354610237906001600160a01b031681565b6102377f000000000000000000000000000000000000000000000000000000000000000081565b61023773fd086bc7cd5c481dcc9c85ebe478a1c0b69fcbb981565b6102ee610491366004612ba3565b6113b0565b6101fd6104a4366004612df9565b61149a565b6101fd60015481565b6101fd7f000000000000000000000000000000000000000000000000000000000000000081565b6102377f000000000000000000000000000000000000000000000000000000000000000081565b61032561050e366004612b51565b61196d565b6102377f000000000000000000000000000000000000000000000000000000000000000081565b6102377f000000000000000000000000000000000000000000000000000000000000000081565b60008054600160a01b900460ff16156105bd5760405162461bcd60e51b815260206004820152601960248201527810995b9d1bd09bde0814dd1c985d1959de4e88195e1a5d1959603a1b60448201526064015b60405180910390fd5b336001600160a01b037f000000000000000000000000000000000000000000000000000000000000000016146106055760405162461bcd60e51b81526004016105b4906130a0565b6001600160a01b038216301480156106e05750600154604051634ffe34db60e01b81526001600160a01b037f0000000000000000000000000000000000000000000000000000000000000000811660048301527f00000000000000000000000000000000000000000000000000000000000000001690634ffe34db90602401604080518083038186803b15801561069b57600080fd5b505afa1580156106af573d6000803e3d6000fd5b505050506040513d601f19601f820116820180604052508101906106d39190612d4e565b516001600160801b031611155b80156106ec5750600083115b156108a85760006106fc84611a83565b6040516370a0823160e01b81523060048201529091506000906001600160a01b037f000000000000000000000000000000000000000000000000000000000000000016906370a082319060240160206040518083038186803b15801561076157600080fd5b505afa158015610775573d6000803e3d6000fd5b505050506040513d601f19601f820116820180604052508101906107999190612e12565b9050600082126108065780156107fd576107fd6001600160a01b037f0000000000000000000000000000000000000000000000000000000000000000167f000000000000000000000000000000000000000000000000000000000000000083611b2e565b91506108ac9050565b80156108a057600061081882846131b3565b9050600081131561088d576108776001600160a01b037f0000000000000000000000000000000000000000000000000000000000000000167f000000000000000000000000000000000000000000000000000000000000000083611b2e565b610888610883846132ea565b611b85565b610896565b61089682611b85565b92506108ac915050565b5090506108ac565b5060005b92915050565b60008054600160a01b900460ff16156109095760405162461bcd60e51b815260206004820152601960248201527810995b9d1bd09bde0814dd1c985d1959de4e88195e1a5d1959603a1b60448201526064016105b4565b336001600160a01b037f000000000000000000000000000000000000000000000000000000000000000016146109515760405162461bcd60e51b81526004016105b4906130a0565b61095a82611c29565b6040516370a0823160e01b81523060048201527f00000000000000000000000000000000000000000000000000000000000000006001600160a01b0316906370a082319060240160206040518083038186803b1580156109b957600080fd5b505afa1580156109cd573d6000803e3d6000fd5b505050506040513d601f19601f820116820180604052508101906109f19190612e12565b9050610a476001600160a01b037f0000000000000000000000000000000000000000000000000000000000000000167f000000000000000000000000000000000000000000000000000000000000000083611b2e565b919050565b6000546001600160a01b03163314610a765760405162461bcd60e51b81526004016105b4906130d5565b6003546064600160a01b90910460ff161115610ac95760405162461bcd60e51b81526020600482015260126024820152711a5b9d985b1a590819995954195c98d95b9d60721b60448201526064016105b4565b600380546001600160a01b0384166001600160a81b03199091168117600160a01b60ff8516908102919091179092556040805191825260208201929092527f5f850aa70c541070663ba840cabd35705ada3b9428408ab2c2fd2eb7ee0f8450910160405180910390a15050565b610b3f81611b85565b50565b6000546001600160a01b03163314610b6c5760405162461bcd60e51b81526004016105b4906130d5565b610b766000611c9c565b565b6000546001600160a01b03163314610ba25760405162461bcd60e51b81526004016105b4906130d5565b6001600160a01b038216600081815260026020908152604091829020805460ff191685151590811790915591519182527fb08a78f53a7fe017d5ca8c8fcdbf06ffa2c31f2ab668378a17700d9fc558717e910160405180910390a25050565b6000336001600160a01b037f00000000000000000000000000000000000000000000000000000000000000001614610c4b5760405162461bcd60e51b81526004016105b4906130a0565b610c53611cec565b6040516370a0823160e01b81523060048201526000907f00000000000000000000000000000000000000000000000000000000000000006001600160a01b0316906370a082319060240160206040518083038186803b158015610cb557600080fd5b505afa158015610cc9573d6000803e3d6000fd5b505050506040513d601f19601f82011682018060405250810190610ced9190612e12565b9050610cf9838261324d565b9150610d4f6001600160a01b037f0000000000000000000000000000000000000000000000000000000000000000167f000000000000000000000000000000000000000000000000000000000000000083611b2e565b506000805460ff60a01b1916600160a01b179055919050565b3360009081526002602052604081205460ff16610d975760405162461bcd60e51b81526004016105b49061310a565b7f00000000000000000000000000000000000000000000000000000000000000006001600160a01b0316610e0d5760405162461bcd60e51b815260206004820152601e60248201527f42656e746f426f782053747261746567793a2063616e6e6f742073776170000060448201526064016105b4565b7f00000000000000000000000000000000000000000000000000000000000000006001600160a01b0316826001600160a01b03161415610e8f5760405162461bcd60e51b815260206004820152601f60248201527f42656e746f426f782053747261746567793a20696e76616c696420737761700060448201526064016105b4565b7f00000000000000000000000000000000000000000000000000000000000000006001600160a01b03161515600081610ec9576002610ecc565b60035b60ff1667ffffffffffffffff811115610ee757610ee7613333565b604051908082528060200260200182016040528015610f10578160200160208202803683370190505b5090508381600081518110610f2757610f2761331d565b60200260200101906001600160a01b031690816001600160a01b0316815250508115610fa2577f000000000000000000000000000000000000000000000000000000000000000081600181518110610f8157610f8161331d565b60200260200101906001600160a01b031690816001600160a01b0316815250505b7f00000000000000000000000000000000000000000000000000000000000000008160018351610fd2919061328c565b81518110610fe257610fe261331d565b60200260200101906001600160a01b031690816001600160a01b0316815250506000816000815181106110175761101761331d565b60209081029190910101516040516370a0823160e01b81523060048201526001600160a01b03909116906370a082319060240160206040518083038186803b15801561106257600080fd5b505afa158015611076573d6000803e3d6000fd5b505050506040513d601f19601f8201168201806040525081019061109a9190612e12565b905060006110ea7f000000000000000000000000000000000000000000000000000000000000000083857f0000000000000000000000000000000000000000000000000000000000000000611d81565b905080600182516110fb919061328c565b8151811061110b5761110b61331d565b60200260200101519450868510156111745760405162461bcd60e51b815260206004820152602660248201527f42656e746f426f782053747261746567793a20696e73756666696369656e74206044820152651bdd5d1c1d5d60d21b60648201526084016105b4565b6112456111f77f0000000000000000000000000000000000000000000000000000000000000000856000815181106111ae576111ae61331d565b6020026020010151866001815181106111c9576111c961331d565b60200260200101517f0000000000000000000000000000000000000000000000000000000000000000611f0e565b8260008151811061120a5761120a61331d565b6020026020010151856000815181106112255761122561331d565b60200260200101516001600160a01b0316611b2e9092919063ffffffff16565b611250818430611fcc565b60408051838152602081018790526001600160a01b037f00000000000000000000000000000000000000000000000000000000000000008116929089169133917f3b644720db133e4e05b302a56bdb46867109debe30c44b4f25566b3c41ed627b910160405180910390a45050505092915050565b3360009081526002602052604090205460ff166112f45760405162461bcd60e51b81526004016105b49061310a565b83156113005760018490555b6040516366c6bb0b60e01b81526001600160a01b037f0000000000000000000000000000000000000000000000000000000000000000811660048301528415156024830152604482018490527f000000000000000000000000000000000000000000000000000000000000000016906366c6bb0b90606401600060405180830381600087803b15801561139257600080fd5b505af11580156113a6573d6000803e3d6000fd5b5050505050505050565b600080546001600160a01b031633146113db5760405162461bcd60e51b81526004016105b4906130d5565b600054600160a01b900460ff166114345760405162461bcd60e51b815260206004820152601d60248201527f42656e746f426f782053747261746567793a206e6f742065786974656400000060448201526064016105b4565b836001600160a01b0316838360405161144d9190612f41565b60006040518083038185875af1925050503d806000811461148a576040519150601f19603f3d011682016040523d82523d6000602084013e61148f565b606091505b509095945050505050565b3360009081526002602052604081205460ff166114c95760405162461bcd60e51b81526004016105b49061310a565b6040516370a0823160e01b81523060048201526000907f00000000000000000000000000000000000000000000000000000000000000006001600160a01b0316906370a082319060240160206040518083038186803b15801561152b57600080fd5b505afa15801561153f573d6000803e3d6000fd5b505050506040513d601f19601f820116820180604052508101906115639190612e12565b6040516370a0823160e01b81523060048201529091506000906001600160a01b037f000000000000000000000000000000000000000000000000000000000000000016906370a082319060240160206040518083038186803b1580156115c857600080fd5b505afa1580156115dc573d6000803e3d6000fd5b505050506040513d601f19601f820116820180604052508101906116009190612e12565b905061160b826121f8565b6040516370a0823160e01b81523060048201526000907f00000000000000000000000000000000000000000000000000000000000000006001600160a01b0316906370a082319060240160206040518083038186803b15801561166d57600080fd5b505afa158015611681573d6000803e3d6000fd5b505050506040513d601f19601f820116820180604052508101906116a59190612e12565b6040516321ec87bf60e21b81527f00000000000000000000000000000000000000000000000000000000000000006004820152602481018290523060448201529091507f00000000000000000000000000000000000000000000000000000000000000006001600160a01b0316906387b21efc90606401600060405180830381600087803b15801561173657600080fd5b505af115801561174a573d6000803e3d6000fd5b50506040516370a0823160e01b8152306004820152600092508491506001600160a01b037f000000000000000000000000000000000000000000000000000000000000000016906370a082319060240160206040518083038186803b1580156117b257600080fd5b505afa1580156117c6573d6000803e3d6000fd5b505050506040513d601f19601f820116820180604052508101906117ea9190612e12565b6117f4919061328c565b9050858110156118465760405162461bcd60e51b815260206004820152601760248201527f494e53554646494349454e545f414d4f554e545f4f555400000000000000000060448201526064016105b4565b60035460009060649061186390600160a01b900460ff168461322e565b61186d919061320c565b9050611879818361328c565b60035460405163a9059cbb60e01b81526001600160a01b039182166004820152602481018490529197507f0000000000000000000000000000000000000000000000000000000000000000169063a9059cbb90604401602060405180830381600087803b1580156118e957600080fd5b505af11580156118fd573d6000803e3d6000fd5b505050506040513d601f19601f820116820180604052508101906119219190612d31565b5060408051838152602081018890529081018290527ffac4ceeb73d90e5d855cf54c2fc52267e49df26636cde8d7ab271952cd081b779060600160405180910390a15050505050919050565b6000546001600160a01b031633146119975760405162461bcd60e51b81526004016105b4906130d5565b6001600160a01b0381166119fc5760405162461bcd60e51b815260206004820152602660248201527f4f776e61626c653a206e6577206f776e657220697320746865207a65726f206160448201526564647265737360d01b60648201526084016105b4565b610b3f81611c9c565b600060405163095ea7b360e01b81526001600160a01b03841660048201528260248201526000806044836000895af1915050611a4081612596565b611a7d5760405162461bcd60e51b815260206004820152600e60248201526d1054141493d59157d1905253115160921b60448201526064016105b4565b50505050565b604051630441a3e760e41b81527f00000000000000000000000000000000000000000000000000000000000000006004820152600060248201819052907f00000000000000000000000000000000000000000000000000000000000000006001600160a01b03169063441a3e7090604401600060405180830381600087803b158015611b0e57600080fd5b505af1158015611b22573d6000803e3d6000fd5b50600095945050505050565b604080516001600160a01b038416602482015260448082018490528251808303909101815260649091019091526020810180516001600160e01b031663a9059cbb60e01b179052611b809084906125dd565b505050565b604051631c57762b60e31b81527f00000000000000000000000000000000000000000000000000000000000000006004820152602481018290527f00000000000000000000000000000000000000000000000000000000000000006001600160a01b03169063e2bbb158906044015b600060405180830381600087803b158015611c0e57600080fd5b505af1158015611c22573d6000803e3d6000fd5b5050505050565b604051630441a3e760e41b81527f00000000000000000000000000000000000000000000000000000000000000006004820152602481018290527f00000000000000000000000000000000000000000000000000000000000000006001600160a01b03169063441a3e7090604401611bf4565b600080546001600160a01b038381166001600160a01b0319831681178455604051919092169283917f8be0079c531659141344cd1fd0a4f28419497f9722a3daafe3b4186f6b6457e09190a35050565b604051632989754760e11b81527f000000000000000000000000000000000000000000000000000000000000000060048201527f00000000000000000000000000000000000000000000000000000000000000006001600160a01b031690635312ea8e90602401600060405180830381600087803b158015611d6d57600080fd5b505af1158015611a7d573d6000803e3d6000fd5b6060600283511015611dd55760405162461bcd60e51b815260206004820152601e60248201527f556e697377617056324c6962726172793a20494e56414c49445f50415448000060448201526064016105b4565b825167ffffffffffffffff811115611def57611def613333565b604051908082528060200260200182016040528015611e18578160200160208202803683370190505b5090508381600081518110611e2f57611e2f61331d565b60200260200101818152505060005b60018451611e4c919061328c565b811015611f0557600080611ea088878581518110611e6c57611e6c61331d565b602002602001015188866001611e8291906131f4565b81518110611e9257611e9261331d565b6020026020010151886126af565b91509150611ec8848481518110611eb957611eb961331d565b6020026020010151838361278a565b84611ed48560016131f4565b81518110611ee457611ee461331d565b60200260200101818152505050508080611efd906132cf565b915050611e3e565b50949350505050565b6000806000611f1d86866128aa565b6040516bffffffffffffffffffffffff19606084811b8216602084015283901b166034820152919350915087906048016040516020818303038152906040528051906020012085604051602001611fa9939291906001600160f81b0319815260609390931b6bffffffffffffffffffffffff191660018401526015830191909152603582015260550190565b60408051601f198184030181529190528051602090910120979650505050505050565b60005b60018351611fdd919061328c565b811015611a7d57600080848381518110611ff957611ff961331d565b60200260200101518584600161200f91906131f4565b8151811061201f5761201f61331d565b6020026020010151915091506000816001600160a01b0316836001600160a01b03161061204c578161204e565b825b905060008761205e8660016131f4565b8151811061206e5761206e61331d565b60200260200101519050600080836001600160a01b0316866001600160a01b03161461209c578260006120a0565b6000835b91509150600060028a516120b4919061328c565b88106120c05788612101565b6121017f0000000000000000000000000000000000000000000000000000000000000000878c6120f18c60026131f4565b815181106111c9576111c961331d565b905061214f7f000000000000000000000000000000000000000000000000000000000000000088887f0000000000000000000000000000000000000000000000000000000000000000611f0e565b6001600160a01b031663022c0d9f84848460006040519080825280601f01601f19166020018201604052801561218c576020820181803683370190505b506040518563ffffffff1660e01b81526004016121ac949392919061314b565b600060405180830381600087803b1580156121c657600080fd5b505af11580156121da573d6000803e3d6000fd5b505050505050505050505080806121f0906132cf565b915050611fcf565b60408051600280825260608201909252600091816020015b6122456040518060a0016040528060008019168152602001600081526020016000815260200160008152602001606081525090565b8152602001906001900390816122105790505090506040518060a001604052807f3a4c6d2404b5eb14915041e01f63200a82f4a34300020000000000000000006560001b8152602001600081526020016001815260200183815260200160405180602001604052806000815250815250816000815181106122c8576122c861331d565b60200260200101819052506040518060a001604052807f1533a3278f3f9141d5f820a184ea4b017fce238200000000000000000000001660001b815260200160018152602001600281526020016000815260200160405180602001604052806000815250815250816001815181106123425761234261331d565b6020908102919091010152604080516003808252608082019092526000918160200160208202803683370190505090507f0000000000000000000000000000000000000000000000000000000000000000816000815181106123a6576123a661331d565b60200260200101906001600160a01b031690816001600160a01b03168152505073ff970a61a04b1ca14834a43f5de4533ebddb5cc8816001815181106123ee576123ee61331d565b60200260200101906001600160a01b031690816001600160a01b03168152505073fd086bc7cd5c481dcc9c85ebe478a1c0b69fcbb9816002815181106124365761243661331d565b6001600160a01b039290921660209283029190910182015260408051608080820183523080835260009483018590528284015260608201849052825160038082529181019093529092919081602001602082028036833701905050905084816000815181106124a7576124a761331d565b6020026020010181815250506000816001815181106124c8576124c861331d565b6020026020010181815250506000816002815181106124e9576124e961331d565b602090810291909101015260405163945bcec960e01b815273ba12222222228d8ba445958a75a0704d566bf2c89063945bcec99061253890600090889088908890889060001990600401612f5d565b600060405180830381600087803b15801561255257600080fd5b505af1158015612566573d6000803e3d6000fd5b505050506040513d6000823e601f3d908101601f1916820160405261258e9190810190612c84565b505050505050565b60003d826125a857806000803e806000fd5b80602081146125c05780156125d157600092506125d6565b816000803e600051151592506125d6565b600192505b5050919050565b6000612632826040518060400160405280602081526020017f5361666545524332303a206c6f772d6c6576656c2063616c6c206661696c6564815250856001600160a01b03166129a29092919063ffffffff16565b805190915015611b8057808060200190518101906126509190612d31565b611b805760405162461bcd60e51b815260206004820152602a60248201527f5361666545524332303a204552433230206f7065726174696f6e20646964206e6044820152691bdd081cdd58d8d9595960b21b60648201526084016105b4565b60008060006126be86866128aa565b5090506000806126d089898989611f0e565b6001600160a01b0316630902f1ac6040518163ffffffff1660e01b815260040160606040518083038186803b15801561270857600080fd5b505afa15801561271c573d6000803e3d6000fd5b505050506040513d601f19601f820116820180604052508101906127409190612da9565b506001600160701b031691506001600160701b03169150826001600160a01b0316886001600160a01b03161461277757808261277a565b81815b909a909950975050505050505050565b60008084116127ef5760405162461bcd60e51b815260206004820152602b60248201527f556e697377617056324c6962726172793a20494e53554646494349454e545f4960448201526a1394155517d05353d5539560aa1b60648201526084016105b4565b6000831180156127ff5750600082115b61285c5760405162461bcd60e51b815260206004820152602860248201527f556e697377617056324c6962726172793a20494e53554646494349454e545f4c604482015267495155494449545960c01b60648201526084016105b4565b600061286a856103e561322e565b90506000612878848361322e565b9050600082612889876103e861322e565b61289391906131f4565b905061289f818361320c565b979650505050505050565b600080826001600160a01b0316846001600160a01b0316141561291d5760405162461bcd60e51b815260206004820152602560248201527f556e697377617056324c6962726172793a204944454e544943414c5f41444452604482015264455353455360d81b60648201526084016105b4565b826001600160a01b0316846001600160a01b03161061293d578284612940565b83835b90925090506001600160a01b03821661299b5760405162461bcd60e51b815260206004820152601e60248201527f556e697377617056324c6962726172793a205a45524f5f41444452455353000060448201526064016105b4565b9250929050565b60606129b184846000856129bb565b90505b9392505050565b606082471015612a1c5760405162461bcd60e51b815260206004820152602660248201527f416464726573733a20696e73756666696369656e742062616c616e636520666f6044820152651c8818d85b1b60d21b60648201526084016105b4565b843b612a6a5760405162461bcd60e51b815260206004820152601d60248201527f416464726573733a2063616c6c20746f206e6f6e2d636f6e747261637400000060448201526064016105b4565b600080866001600160a01b03168587604051612a869190612f41565b60006040518083038185875af1925050503d8060008114612ac3576040519150601f19603f3d011682016040523d82523d6000602084013e612ac8565b606091505b509150915061289f82828660608315612ae25750816129b4565b825115612af25782518084602001fd5b8160405162461bcd60e51b81526004016105b4919061308d565b80356001600160a01b0381168114610a4757600080fd5b80516001600160701b0381168114610a4757600080fd5b80516001600160801b0381168114610a4757600080fd5b600060208284031215612b6357600080fd5b6129b482612b0c565b60008060408385031215612b7f57600080fd5b612b8883612b0c565b91506020830135612b9881613349565b809150509250929050565b600080600060608486031215612bb857600080fd5b612bc184612b0c565b92506020808501359250604085013567ffffffffffffffff80821115612be657600080fd5b818701915087601f830112612bfa57600080fd5b813581811115612c0c57612c0c613333565b612c1e601f8201601f19168501613182565b91508082528884828501011115612c3457600080fd5b80848401858401376000848284010152508093505050509250925092565b60008060408385031215612c6557600080fd5b612c6e83612b0c565b9150602083013560ff81168114612b9857600080fd5b60006020808385031215612c9757600080fd5b825167ffffffffffffffff80821115612caf57600080fd5b818501915085601f830112612cc357600080fd5b815181811115612cd557612cd5613333565b8060051b9150612ce6848301613182565b8181528481019084860184860187018a1015612d0157600080fd5b600095505b83861015612d24578051835260019590950194918601918601612d06565b5098975050505050505050565b600060208284031215612d4357600080fd5b81516129b481613349565b600060408284031215612d6057600080fd5b6040516040810181811067ffffffffffffffff82111715612d8357612d83613333565b604052612d8f83612b3a565b8152612d9d60208401612b3a565b60208201529392505050565b600080600060608486031215612dbe57600080fd5b612dc784612b23565b9250612dd560208501612b23565b9150604084015163ffffffff81168114612dee57600080fd5b809150509250925092565b600060208284031215612e0b57600080fd5b5035919050565b600060208284031215612e2457600080fd5b5051919050565b60008060408385031215612e3e57600080fd5b82359150612e4e60208401612b0c565b90509250929050565b60008060008060808587031215612e6d57600080fd5b843593506020850135612e7f81613349565b9250604085013591506060850135612e9681613349565b939692955090935050565b600081518084526020808501945080840160005b83811015612eda5781516001600160a01b031687529582019590820190600101612eb5565b509495945050505050565b600081518084526020808501945080840160005b83811015612eda57815187529582019590820190600101612ef9565b60008151808452612f2d8160208601602086016132a3565b601f01601f19169290920160200192915050565b60008251612f538184602087016132a3565b9190910192915050565b600061012080830160028a10612f8357634e487b7160e01b600052602160045260246000fd5b89845260208085019290925288519081905261014080850192600583901b8601909101918a820160005b828110156130105787850361013f190186528151805186528481015185870152604080820151908701526060808201519087015260809081015160a091870182905290612ffc81880183612f15565b978601979650505090830190600101612fad565b5050505083810360408501526130268189612ea1565b915050613066606084018780516001600160a01b039081168352602080830151151590840152604080830151909116908301526060908101511515910152565b82810360e08401526130788186612ee5565b91505082610100830152979650505050505050565b6020815260006129b46020830184612f15565b6020808252818101527f42656e746f426f782053747261746567793a206f6e6c792042656e746f426f78604082015260600190565b6020808252818101527f4f776e61626c653a2063616c6c6572206973206e6f7420746865206f776e6572604082015260600190565b60208082526021908201527f42656e746f426f782053747261746567793a206f6e6c79204578656375746f726040820152607360f81b606082015260800190565b84815283602082015260018060a01b03831660408201526080606082015260006131786080830184612f15565b9695505050505050565b604051601f8201601f1916810167ffffffffffffffff811182821017156131ab576131ab613333565b604052919050565b600080821280156001600160ff1b03849003851316156131d5576131d5613307565b600160ff1b83900384128116156131ee576131ee613307565b50500190565b6000821982111561320757613207613307565b500190565b60008261322957634e487b7160e01b600052601260045260246000fd5b500490565b600081600019048311821515161561324857613248613307565b500290565b60008083128015600160ff1b85018412161561326b5761326b613307565b6001600160ff1b038401831381161561328657613286613307565b50500390565b60008282101561329e5761329e613307565b500390565b60005b838110156132be5781810151838201526020016132a6565b83811115611a7d5750506000910152565b60006000198214156132e3576132e3613307565b5060010190565b6000600160ff1b82141561330057613300613307565b5060000390565b634e487b7160e01b600052601160045260246000fd5b634e487b7160e01b600052603260045260246000fd5b634e487b7160e01b600052604160045260246000fd5b8015158114610b3f57600080fdfea2646970667358221220e8e2df571f2ab4c79038a6cf1e9bf3291379aebfd7a98737e069157c7958d3a964736f6c63430008070033",
  "devdoc": {
    "kind": "dev",
    "methods": {
      "afterExit(address,uint256,bytes)": {
        "details": "After exited, the owner can perform ANY call. This is to rescue any funds that didn't get released during exit or got earned afterwards due to vesting or airdrops, etc. "
      },
      "exit(uint256)": {
        "details": "do not use isActive modifier here; allow bentobox to call strategy.exit() multiple times",
        "params": {
          "balance": "The amount of tokens the caller thinks it has invested."
        },
        "returns": {
          "amountAdded": "The delta (+profit or -loss) that occured in contrast to `balance`."
        }
      },
      "harvest(uint256,address)": {
        "details": "Only BentoBox can call harvest on this strategy.Ensures that (1) the caller was this contract (called through the safeHarvest function) and (2) that we are not being frontrun by a large BentoBox deposit when harvesting profits. ",
        "params": {
          "balance": "The amount of tokens the caller thinks it has invested.",
          "sender": "The address of the initiator of this transaction. Can be used for reimbursements, etc."
        },
        "returns": {
          "_0": "The delta (+profit or -loss) that occured in contrast to `balance`."
        }
      },
      "owner()": {
        "details": "Returns the address of the current owner."
      },
      "renounceOwnership()": {
        "details": "Leaves the contract without owner. It will not be possible to call `onlyOwner` functions anymore. Can only be called by the current owner. NOTE: Renouncing ownership will leave the contract without an owner, thereby removing any functionality that is only available to the owner."
      },
      "safeHarvest(uint256,bool,uint256,bool)": {
        "details": "maxBalance can be set to 0 to keep the previous value.maxChangeAmount can be set to 0 to allow for full rebalancing.",
        "params": {
          "harvestRewards": "If we want to claim any accrued reward tokens",
          "maxBalance": "The maximum balance of the underlying token that is allowed to be in BentoBox.",
          "maxChangeAmount": "When rebalancing - the maximum amount that will be deposited to or withdrawn from a strategy to BentoBox.",
          "rebalance": "Whether BentoBox should rebalance the strategy assets to acheive it's target allocation."
        }
      },
      "skim(uint256)": {
        "params": {
          "amount": "The amount of tokens to invest."
        }
      },
      "transferOwnership(address)": {
        "details": "Transfers ownership of the contract to a new account (`newOwner`). Can only be called by the current owner."
      },
      "withdraw(uint256)": {
        "details": "The `actualAmount` should be very close to the amount. The difference should NOT be used to report a loss. That's what harvest is for.",
        "params": {
          "amount": "The requested amount the caller wants to withdraw."
        },
        "returns": {
          "actualAmount": "The real amount that is withdrawn."
        }
      }
    },
    "version": 1
  },
  "userdoc": {
    "kind": "user",
    "methods": {
      "exit(uint256)": {
        "notice": "Withdraw all assets in the safest way possible. This shouldn't fail."
      },
      "harvest(uint256,address)": {
        "notice": "Harvest any profits made converted to the asset and pass them to the caller."
      },
      "safeHarvest(uint256,bool,uint256,bool)": {
        "notice": "Harvest profits while preventing a sandwich attack exploit."
      },
      "skim(uint256)": {
        "notice": "Send the assets to the Strategy and call skim to invest them."
      },
      "swapExactTokensForUnderlying(uint256,address)": {
        "notice": "Swap some tokens in the contract for the underlying and deposits them to address(this)"
      },
      "withdraw(uint256)": {
        "notice": "Withdraw assets. The returned amount can differ from the requested amount due to rounding."
      }
    },
    "version": 1
  },
  "storageLayout": {
    "storage": [
      {
        "astId": 7,
        "contract": "contracts/strategies/stargate/ArbitrumUsdtStargateLPStrategy.sol:ArbitrumUsdtStargateLPStrategy",
        "label": "_owner",
        "offset": 0,
        "slot": "0",
        "type": "t_address"
      },
      {
        "astId": 1815,
        "contract": "contracts/strategies/stargate/ArbitrumUsdtStargateLPStrategy.sol:ArbitrumUsdtStargateLPStrategy",
        "label": "exited",
        "offset": 20,
        "slot": "0",
        "type": "t_bool"
      },
      {
        "astId": 1818,
        "contract": "contracts/strategies/stargate/ArbitrumUsdtStargateLPStrategy.sol:ArbitrumUsdtStargateLPStrategy",
        "label": "maxBentoBoxBalance",
        "offset": 0,
        "slot": "1",
        "type": "t_uint256"
      },
      {
        "astId": 1823,
        "contract": "contracts/strategies/stargate/ArbitrumUsdtStargateLPStrategy.sol:ArbitrumUsdtStargateLPStrategy",
        "label": "strategyExecutors",
        "offset": 0,
        "slot": "2",
        "type": "t_mapping(t_address,t_bool)"
      },
      {
        "astId": 11592,
        "contract": "contracts/strategies/stargate/ArbitrumUsdtStargateLPStrategy.sol:ArbitrumUsdtStargateLPStrategy",
        "label": "feeCollector",
        "offset": 0,
        "slot": "3",
        "type": "t_address"
      },
      {
        "astId": 11594,
        "contract": "contracts/strategies/stargate/ArbitrumUsdtStargateLPStrategy.sol:ArbitrumUsdtStargateLPStrategy",
        "label": "feePercent",
        "offset": 20,
        "slot": "3",
        "type": "t_uint8"
      }
    ],
    "types": {
      "t_address": {
        "encoding": "inplace",
        "label": "address",
        "numberOfBytes": "20"
      },
      "t_bool": {
        "encoding": "inplace",
        "label": "bool",
        "numberOfBytes": "1"
      },
      "t_mapping(t_address,t_bool)": {
        "encoding": "mapping",
        "key": "t_address",
        "label": "mapping(address => bool)",
        "numberOfBytes": "32",
        "value": "t_bool"
      },
      "t_uint256": {
        "encoding": "inplace",
        "label": "uint256",
        "numberOfBytes": "32"
      },
      "t_uint8": {
        "encoding": "inplace",
        "label": "uint8",
        "numberOfBytes": "1"
      }
    }
  }
}